:100000002BC100005AC1000058C1000056C10000B9
:1000100054C1000052C1000050C100004EC1000098
:100020004CC100004AC1000048C1000046C10000A8
:1000300044C1000042C1000040C100003EC10000B8
:100040003CC100003AC1000038C1000036C10000C8
:1000500034C1000032C1000030C100000C94E01B2C
:100060002CC100000C942B1F0C94611F26C10000B2
:1000700024C1000022C1000020C100001EC10000F8
:100080001CC100001AC1000018C1000016C1000008
:100090000C94D61F0C940C2010C1000009C5000060
:1000A0000CC100000AC1000008C1000006C1000028
:1000B00004C1000002C1000000C10000FEC0000039
:1000C000FCC00000FAC00000F8C000000C948120C1
:1000D0000C94B720F2C00000F0C00000EEC0000099
:1000E000ECC00000151D181D071D0B1D111D4F1D17
:1000F0001C1D201D261D2A1D2E1D341D381D3C1DB6
:100100004F1D421D461D4A1D1112131415160A0BD0
:100110000C0D0E0F0001020304057C3C3E5E2B3DDE
:100120003F2F5B5D3B2C2A225C0000000A0B02097A
:100130000C0D0E0807030401000000000000000081
:1001400000000000000000000000000000000000AF
:10015000000000000000121110000000000000006C
:10016000000000000000000000000000000000008F
:1001700001021020200808102040102040800201B9
:10018000020108040201010204081020408080409E
:10019000201008040201800402018040201008049D
:1001A000020108040201010204081020408001023B
:1001B0000408102040800505050507050808080803
:1001C000020202020A0A08080404040401010101EF
:1001D00001010101030303030303030304070707EA
:1001E0000C0C0C0C0C0C0C0C02020202060606068F
:1001F000060606060B0B0B0B0B0B0B0B000020006F
:100200002300260029002C002F00320000010000EE
:1002100003010601090100002200250028002B002F
:100220002E003100340002010000050108010B011D
:1002300000002100240027002A002D003000330098
:1002400001010000040107010A0144036F046A0C64
:10025000931F3E20E920520311241FBECFEFD1E2AD
:10026000DEBFCDBF00E00CBF12E0A0E0B2E0E8E1ED
:10027000FBE400E00BBF02C007900D92A239B1076A
:10028000D9F727E0A2E9B2E001C01D92AA3EB20769
:10029000E1F712E0C6E5D2E000E006C022970109CE
:1002A000FE010BBF0E940223CA34D10780E0080779
:1002B000A9F70E942D210C947B25A2CE8091920259
:1002C000909193020E943A218DE992E00E946E0A79
:1002D00088EB92E00C946E0ACF93DF93EC011982C5
:1002E000188288E090E09B838A831D821C8288E3C9
:1002F00090E00E943921998388831F82188619868D
:100300001A860E94361C6F83788789879A87DF91C7
:10031000CF910895CF92DF92EF92FF920F931F93A8
:10032000CF93DF9300D000D0CDB7DEB78C017B0137
:100330006A0163E872E00E940122F601818188234C
:10034000A1F0F701608170E06053784F4AE0CE0180
:1003500001960E945722BE016F5F7F4FC8010E9425
:10036000AB22CE0101960E949A21F601808188235A
:1003700029F061E272E0C8010E94B122F601828197
:100380008823E1F0F70161816A3048F463E272E0AA
:10039000C8010E94B1224AE0F701618101C04AE030
:1003A000CE0101960E942C22BE016F5F7F4FC801D3
:1003B0000E94AB22CE0101960E949A21F601808113
:1003C000882329F061E272E0C8010E94B122F6019F
:1003D00083818823E1F0F70162816A3048F463E2A7
:1003E00072E0C8010E94B1224AE0F701628101C0B7
:1003F0004AE0CE0101960E942C22BE016F5F7F4F22
:10040000C8010E94AB22CE0101960E949A21F601FA
:100410008081882329F065E272E0C8010E94B12240
:10042000F60184818823E1F0F70163816A3048F4A2
:1004300063E272E0C8010E94B1224AE0F7016381E1
:1004400001C04AE0CE0101960E942C22BE016F5FDE
:100450007F4FC8010E94AB22CE0101960E949A21D3
:10046000F6018081882329F067E272E0C8010E94CA
:10047000B122F60185818823E1F0F70164816A30B9
:1004800048F463E272E0C8010E94B1224AE0F70139
:10049000648101C04AE0CE0101960E942C22BE0177
:1004A0006F5F7F4FC8010E94AB22CE0101960E9470
:1004B0009A21F6018081882329F067E272E0C80161
:1004C0000E94B122F60186818823E1F0F70165815F
:1004D0006A3048F463E272E0C8010E94B1224AE047
:1004E000F701658101C04AE0CE0101960E942C22ED
:1004F000BE016F5F7F4FC8010E94AB22CE01019603
:100500000E949A21C80126960FB6F894DEBF0FBE4E
:10051000CDBFDF91CF911F910F91FF90EF90DF90B2
:10052000CF9008950F93CF93DF93CDB7DEB7A79702
:100530000FB6F894DEBF0FBECDBF0DE02CE04BE050
:100540006AE087EA93E00E94D30A26E040E052EC9A
:1005500061E070E08FE096E00E94CB1E26E040E074
:1005600052EC61E070E08CEA96E00E94CB1E26E03F
:1005700040E052EC61E070E089E497E00E94CB1E1D
:1005800086EE92E025D183ED92E055D684ED92E09F
:10059000DBD563E084ED92E081D565E172E084ED26
:1005A00092E0C4D44DE052E061E084ED92E0D5D415
:1005B00084ED92E03AD523E149E252E067EA73E044
:1005C000CE0101960E94EB0B8B819C819093BB0224
:1005D0008093BA028D819E81AF81B8858093BC02E1
:1005E0009093BD02A093BE02B093BF0289859A8505
:1005F000AB85BC858093C0029093C102A093C202D8
:10060000B093C3028DE0FE013D96A4ECB2E00190F0
:100610000D928A95E1F78A8D9B8D9093D2028093FB
:10062000D102CE0101965AD7CE01829609D6BE01DB
:100630006E5D7F4FCE010196E6D546E052E0BE01E9
:100640006F5F7F4FCE014C9665DEBE01645E7F4FCB
:1006500088EB92E00E94792161E372E088EB92E0FE
:100660000E948A2188EB92E08CD7CE014C960E94A2
:100670009A21A7960FB6F894DEBF0FBECDBFDF91CB
:10068000CF910F910895089545E064E084ED92E0E4
:1006900025D488EB92E00FD78DE992E00CD782E960
:1006A00092E01ACE0BCE8091160390E020911703B2
:1006B000821B910908952091170380911603281732
:1006C00050F4E22FF0E0E85EFC4F808190E02F5F75
:1006D0002093170308958FEF9FEF0895E09117037C
:1006E00080911603E81730F4F0E0E85EFC4F80815B
:1006F00090E008958FEF9FEF08950895CF92DF92D5
:10070000EF92FF920F931F93CF93DF937C01CB0166
:100710008A012091F202222389F0EB016B01C40EC1
:10072000D51ECC15DD0561F06991D701ED91FC91E5
:100730000190F081E02DC7011995F3CF642F8FD17F
:10074000C801DF91CF911F910F91FF90EF90DF9043
:10075000CF900895CF93DF931F92CDB7DEB7698313
:100760002091F2022223D1F02091F302203240F0B6
:1007700021E030E0FC013383228380E090E014C06C
:100780008091F402E82FF0E0EB50FD4F99819083C7
:100790008F5F8093F4028093F30204C061E0CE0186
:1007A00001965DD181E090E00F90DF91CF910895A7
:1007B000FC011382128248EE53E060E070E0448353
:1007C0005583668377838DE492E0918380830895D7
:1007D00010921703109216031092F4021092F30273
:1007E00081C081E08093F202609315031092F402BD
:1007F0001092F3020895F5CF0F93062F21E0409158
:10080000F30265EF72E080911503D2D01092F402EA
:100810001092F3021092F2020F9108958F929F921C
:10082000AF92BF92CF92DF92EF92FF920F931F93FE
:10083000CF93DF93EC01F62ED42E48015901EE2020
:1008400009F1CFDF1E2D143008F013E01150B8F07D
:10085000E881F98128E0129FB0011124A5019401DB
:1008600004C056954795379527956A95D2F7CA01E2
:10087000B9010190F081E02DCE011995E7CF60E03C
:10088000CE01BADF4D2D413208F040E22C2D68E157
:1008900073E08F2D45D01092170380931603DF91DC
:1008A000CF911F910F91FF90EF90DF90CF90BF906D
:1008B000AF909F908F900895CF92EF920F931F93D8
:1008C000C22EE12C00E010E09801A8DF1F910F91EB
:1008D000EF90CF90089521E0EFCF61E08DCF86EECD
:1008E00092E066CF1092A50381E08093A30310925B
:1008F000A20361E084E10E94891D61E085E10E941C
:10090000891DE9EBF0E080818E7F808380818D7F7F
:10091000808388E48093B80085E48093BC000895C8
:10092000413208F043C09091A5039111FCCF91E0B2
:100930009093A5032093A3032FEF209338031092E5
:100940007D03240F20937C039093A4039091A40330
:10095000880F892B8093A4038091A203813061F4D6
:100960001092A2038091A4038093BB008091BC00ED
:1009700083FDF8CF85EC01C085EE8093BC008091AB
:10098000A5038130E1F380917D03841710F4409139
:100990007D032EE733E0FB01D9018A2F821B8417E8
:1009A00018F48D918193F9CF842F089580E00895F4
:1009B0000F93413208F04AC09091A5039111FCCFEA
:1009C00092E09093A5030093A3039FEF90933803C5
:1009D00010927D0340937C03FB016EE773E0DB0123
:1009E0009A2F961B941718F491919D93F9CF10921A
:1009F000A4039091A403880F892B8093A403809172
:100A0000A203813061F41092A2038091A403809329
:100A1000BB008091BC0083FDF8CF85EC01C085EE62
:100A20008093BC00222321F08091A5038230E1F362
:100A3000809138038F3F61F080913803803251F00C
:100A400080913803803341F483E007C081E005C022
:100A500080E003C082E001C084E00F91089561321C
:100A600098F42091A503243089F460935A03FC0183
:100A70008CE593E0DC012A2F281B261718F421911E
:100A80002D93F9CF80E0089581E0089582E00895E4
:100A900085ED8093BC008091BC0084FDFCCF10925A
:100AA000A503089585EC8093BC001092A5030895DA
:100AB0001F920F920FB60F9211240BB60F922F9325
:100AC0003F934F935F936F937F938F939F93AF93D6
:100AD000BF93EF93FF938091B900887F803609F42C
:100AE0009DC070F5883209F45CC090F4803109F43F
:100AF00055C038F4882309F4F3C0883009F44EC097
:100B0000F2C0883109F44DC0803209F45EC0EBC0F8
:100B1000803409F469C050F4803309F456C0883336
:100B200009F0E1C080933803BDDFDDC0803509F4F2
:100B30004FC0883509F45DC0883409F0D4C0D2C0F4
:100B4000883909F4C3C0A8F4883709F467C038F4B9
:100B5000883609F463C0803709F460C0C4C088389F
:100B600009F4B4C0803909F45FC0803809F0BBC013
:100B70005BC0803B09F482C038F4803A09F466C057
:100B8000883A09F47BC0AFC0803C09F4A3C0883C1C
:100B900009F4A0C0883B09F486C0A5C08091A403D5
:100BA00010C090917D0380917C03981770F5E091BF
:100BB0007D0381E08E0F80937D03F0E0E258FC4FCF
:100BC00080818093BB0085EC82C0809338038AC00B
:100BD000E0917D0381E08E0F80937D038091BB00C7
:100BE000F0E0E258FC4F808390917D0380917C037C
:100BF0006AC0E0917D0381E08E0F80937D03809138
:100C0000BB00F0E0E258FC4F80838091A303811188
:100C100069C081E08093A20384EA5DC083E0809391
:100C2000A50310923903CFCF80913903803208F0A9
:100C30004DC0E091390381E08E0F8093390380919C
:100C4000BB00F0E0E65CFC4F8083BDCF2BDF8091E2
:100C50003903803230F4E0913903F0E0E65CFC4F78
:100C600010826091390370E0E0919E03F0919F0340
:100C70008AE393E019951092390335C084E080939C
:100C8000A50310925B0310925A03E091A003F09128
:100C9000A103199580915A03811105C081E08093C9
:100CA0005A0310925C03E0915B0381E08E0F809306
:100CB0005B03F0E0E45AFC4F80818093BB0090918D
:100CC0005B0380915A03981708F47DCF85E88093E1
:100CD000BC0009C085EC8093BC001092A50303C042
:100CE00010923803D5DEFF91EF91BF91AF919F91A4
:100CF0008F917F916F915F914F913F912F910F90C5
:100D00000BBE0F900FBE0F901F901895CF93CFB7CB
:100D1000F8948091A603811127C0EBEEF1E0849155
:100D2000E5EAF1E09491E82FF0E0EE0FFF1FE05DBF
:100D3000FD4FA591B4918C91892321F461E085E365
:100D40000E94891D61E085E30E94501D8CB5806181
:100D50008CBD8CB580648CBD61E084E30E94501D25
:100D600061E083E30E94501D8091A6038F5F809312
:100D7000A603CFBFCF9108958EBD00000DB407FE2E
:100D8000FDCF8EB508952CB52F7D2CBD2CB5237FBE
:100D90002CBD2CB52C7F2CBD2DB521602DBDFC01AB
:100DA00081810E94891D85E090E00C94901CFC01DB
:100DB0008081918189130C94891D089560E0E3CFAF
:100DC00061E0E1CFEF92FF921F93CF93DF931F92E9
:100DD000CDB7DEB77C016983F1DF6981862F8F7122
:100DE000CBDF8FEFC9DF182FC701EADF812F0F900C
:100DF000DF91CF911F91FF90EF900895CF92DF92F6
:100E0000EF92FF920F931F93CF93DF9300D0CDB754
:100E1000DEB78C01F22E4A835B836983CFDF698161
:100E2000862F8F718062A8DFE82E4A81C42E5B81F5
:100E3000D52EF40EFC1429F0F60181916F019CDF90
:100E4000F9CFC801BDDF8E2D0F900F900F90DF916D
:100E5000CF911F910F91FF90EF90DF90CF90089569
:100E6000EF92FF921F93CF93DF931F921F92CDB704
:100E7000DEB77C014A836983A1DF6981862F8F7188
:100E800080627ADF182F4A81842F76DFC70198DFCE
:100E9000812F0F900F90DF91CF911F91FF90EF90D6
:100EA0000895EF92FF921F93CF93DF931F92CDB7D8
:100EB000DEB77C01698382DF6981862F5DDF182FB1
:100EC000C7017EDF812F0F90DF91CF911F91FF909F
:100ED000EF90089562EEE5CF61EEE3CFFC01608311
:100EE0004183148280E28583168285E0848717829D
:100EF0000895462F6E3708F04DE765E0B1CFCF93E8
:100F0000DF93EC0160E05EDF81FD0DC0482F4260A1
:100F100060E0CE01A5DF65E070E080E090E0DF9169
:100F2000CF910C94591CDF91CF9108950F931F938B
:100F3000CF93DF93EC018B012C85AB016AE05EDF80
:100F40002C85A80160E1CE0159DF4D8161E1CE0120
:100F5000DF91CF911F910F9183CFFF920F931F933A
:100F6000CF93DF93EC01F62E8A01611107C04C8507
:100F700050E0B80107960E941E2507C086E086173C
:100F800008F433C081E0681307C0EF2DF0E0E25FA2
:100F9000FE4F64912C8506C0E62FF0E0E25FFE4F25
:100FA000649121E0A801CE0129DF0F2D10E0F801A6
:100FB000E85FFE4F64914D81CE0152DF62E0CE01C9
:100FC00001DFF801EC5EFE4F049121E030E001C04A
:100FD000220F0A95EAF7822B482F62E0CE01DF91BB
:100FE000CF911F910F91FF903BCFDF91CF911F9138
:100FF0000F91FF9008951F93CF93DF93EC01162F6D
:1010000062E0E0DEE12FF0E0EC5EFE4FE49141E0D3
:1010100050E001C0440FEA95EAF74095482362E0AA
:10102000CE01DF91CF911F911BCFCF93DF93EC01C6
:1010300066DF60E0CE01C6DE482F416060E0CE0191
:101040000FDF40E767E0CE010BDF61E0CE01AFDEEE
:101050008F81882341F02C85AE01495F5F4F6AE0A4
:10106000CE01CCDE03C060E0CE01C5DF6DE1CE0174
:10107000A9DE81FF04C0CE01DF91CF912DCFDF919A
:10108000CF910895CF93DF93EC0198DE80E574DE75
:1010900083E772DECE01DF91CF9192CE1F93CF9383
:1010A000DF93EC01162F66E08DDE887F143020F48C
:1010B000612F660F6F5F01C067E0462F482B66E027
:1010C000CE01DF91CF911F91CBCEEF92FF920F9384
:1010D0001F93CF93DF931F92CDB7DEB77C018B01B7
:1010E00066E070DE582F577D0230110531F45062F2
:1010F0000BE910E020E030E00DC00130110529F0CF
:1011000005E510E020E030E005C0586001E410E0A3
:1011100020E030E0F701058716872787308B452FC1
:1011200066E0C70159839CDE66E0C7014BDE91E0B3
:101130005981851390E0892F0F90DF91CF911F91F6
:101140000F91FF90EF9008951F93CF93DF93EC01E1
:1011500088819981891719F061E00E94501D898169
:101160009881981719F061E00E94501DCFDD60E072
:10117000CE011DDE61E0CE0106DE65E070E080E0BC
:1011800090E00E94591C4CE060E0CE0169DE4FE522
:1011900064E0CE0165DE62E070E0CE0196DF882378
:1011A00011F081E08C8366E0CE010CDE182F60E048
:1011B00070E0CE018ADFCE0165DF40E06DE1CE0157
:1011C0004FDE40E06CE1CE014BDE40E767E0CE0150
:1011D00047DE6CE4CE018DDECE017CDECE017CDE0E
:1011E000CE018DDE60E0CE01EDDD482F4E7F60E068
:1011F000CE0136DE115081E01E3F08F080E0DF9125
:10120000CF911F910895FC01DB018C918083119691
:101210008C911197818312968C91129782831396E9
:101220008C911397838314968C91149784831596CD
:101230008C918583089586EE92E0CADA81E0089564
:10124000CF92DF92EF92FF920F931F93CF93DF9392
:10125000EC0168E670E086EE92E0CDDA60E086EEC2
:1012600092E078DA86EE92E038DB47E050E068E61C
:1012700070E086EE92E02FDB86EE92E01CDA8F774C
:10128000982F92959F701AEF082F919F000D1124AF
:1012900086EE92E010DA9C013327A4E0359527957D
:1012A000AA95E1F7F82E129FF00C112486EE92E039
:1012B00002DA9C013327B4E035952795BA95E1F71A
:1012C000E82E129FE00C112486EE92E0F4D986EE0F
:1012D00092E0F1D99C01332794E0359527959A95B2
:1012E000E1F7D82E129FD00C112486EE92E0E3D9BC
:1012F0009C01332744E0359527954A95E1F7C82EA0
:10130000129FC00C112486EE92E0D5D99C013327A0
:1013100054E0359527955A95E1F7129F800D1124D9
:101320008883C982DA82EB82FC820D83CE01DF9151
:10133000CF911F910F91FF90EF90DF90CF90089584
:10134000CF93DF931F92CDB7DEB76983DC01ED91B8
:10135000FC910280F381E02D41E050E0BE016F5F1F
:101360007F4F19950F90DF91CF910895CF93DF9321
:10137000EC01898D9A8D009759F0FC01138212823D
:101380000E949D15E98DFA8D22813381232B31F046
:1013900081E090E09B838A8380E090E0DF91CF91B1
:1013A0000895FC01818D928D009711F00C944F13DC
:1013B0000895CF93DF931F92CDB7DEB741E050E0A1
:1013C000BE016F5F7F4F81D7019719F4898190E04B
:1013D00002C08FEF9FEF0F90DF91CF910895FC0136
:1013E000818D928D009709F0E4CF8FEF9FEF0895E4
:1013F0000F931F93CF93DF938C01FC01818D928D0E
:101400000097B1F0D6DFEC018F3FFFEF9F0799F017
:10141000F801818D928DFC01428553856485758527
:1014200041505109610971090E94B412CE0105C0F1
:1014300080E090E002C08FEF9FEFDF91CF911F918E
:101440000F910895CF92DF92EF92FF920F931F9327
:10145000CF93DF93EC017B016A011B821A8208EEB5
:1014600013E020E030E00C831D832E833F838DE565
:1014700092E0998388838DE190E00E9406239A8F01
:10148000898F009779F02DE1F701DC0101900D9231
:101490002A95E1F74CE050E0B601CE010C960E948F
:1014A0003925188EDF91CF911F910F91FF90EF900A
:1014B000DF90CF900895FC011382128248EE53E032
:1014C00060E070E044835583668377838DE592E026
:1014D00091838083128E118E148608952DE532E05B
:1014E000FC01318320830895DC015996ED91FC9134
:1014F0005A97309729F0628573858485958508957C
:101500006FEF7FEFCB010895DC015996ED91FC91CF
:101510005A97309729F06389748985899689089547
:1015200060E070E0CB010895CF92DF92EF92FF92DE
:10153000CF93DF93EC01898D9A8D892BC9F0CE0171
:10154000E3DF6B017C01CE01CFDFA7019601261BF3
:10155000370B480B590BDA01C901811530E89307A5
:10156000A105B10538F08FEF9FE7A0E0B0E002C021
:1015700080E090E0DF91CF91FF90EF90DF90CF90EF
:101580000895CF93DF93EC01898D9A8D009741F0F8
:101590000E949413898D9A8D0E949E231A8E198E13
:1015A000DF91CF910895EF920F931F93CF93DF9325
:1015B000EC01E02E022F242F462F61E0E3D28111AF
:1015C00002C080E01CC08E01035F1F4F41E0BE01DE
:1015D000C8010E94CF1A882351F0B801CE018B9622
:1015E00025D691E0811101C090E0892F08C040E02C
:1015F000BE01C8010E94CF1A882319F3EECFDF91F4
:10160000CF911F910F91EF900895FC01DB0112968D
:101610008D919C911397938382838DE692E09183C1
:10162000808314968C911497848315968C911597CA
:10163000858316964D915D916D917C9119974683A6
:101640005783608771871A964D915D916D917C915A
:101650001D9742875387648775871E964D915D91CC
:101660006D917C91519746875787608B718B52960D
:101670008C915297828B53964D915D916D917C9197
:101680005697438B548B658B768B57964D915D9116
:101690006D917C915A97478B508F618F728F5B96BB
:1016A0008D919C915C97948F838F08954F925F9258
:1016B0006F927F928F929F92AF92BF92CF92DF9262
:1016C000EF92FF920F931F93CF93DF93CDB7DEB7C7
:1016D000C754D1090FB6F894DEBF0FBECDBF6C0161
:1016E0004A013901655D7F4F5E018EE1A80EB11C94
:1016F000C5018BDF1C821B828DE692E09A83898371
:101700001E828401FE0131967F015A2C4B2C6FE220
:1017100070E0C8010E9427250097D9F1F8012081C7
:101720002F3219F40F5F1F4FF2CF801B8D3008F05E
:101730008CE0A82EB12CA501B801CE01CB960E9459
:101740003925EBE3F0E0EC0FFD1FEA0DFB1D1082E5
:10175000C701EAD721E0AE01455C5F4F652D742DCE
:10176000C7010E94BE14811109C0F60113821282C2
:101770008DE692E091838083158214C00A0D1B1DB3
:10178000852D942DD1D7C2015E2C4F2CE92EF82E39
:10179000BECF08191909F30111830083652D742D3B
:1017A000C60133DFC601C95BDF4F0FB6F894DEBF59
:1017B0000FBECDBFDF91CF911F910F91FF90EF90A2
:1017C000DF90CF90BF90AF909F908F907F906F9061
:1017D0005F904F900895BF92CF92DF92EF92FF9269
:1017E0000F931F93CF93DF93CDB7DEB7C955D109C0
:1017F0000FB6F894DEBF0FBECDBF7C016A01B22EDA
:101800009E01285A3F4FCE01CB9650DF6A960EAD0F
:101810001FAD6A970C0D1D1DF8018081811109C053
:10182000BE01655C7F4FCE010196EFDE41E252E0E2
:101830003AC019A218A28DE692E09F8F8E8F1BA24C
:1018400021968FAD2197811103C0C70134DE30C0CE
:1018500082502B2DA801823048F462ED73E0CE0156
:101860004E960E94BE1481110DC0EFCFBE01655C83
:101870007F4FCE014E960E94BE14882331F3CE01D5
:10188000CB9652D78B2D867039F049A95AA96BA9EE
:101890007CA9CE014E9668D6BE01625E7F4FCE0116
:1018A0000196B3DEA801BE016F5F7F4FC701CADD9D
:1018B000C701C75ADF4F0FB6F894DEBF0FBECDBFCA
:1018C000DF91CF911F910F91FF90EF90DF90CF901C
:1018D000BF9008951092AC031092AD031092B00324
:1018E0001092B20382E090E0A0E0B0E08093B403F5
:1018F0009093B503A093B603B093B7031092CB03B4
:101900001092D5031092D4038DE692E09093D30306
:101910008093D2031092D70308959091FA039F3FCA
:1019200039F48EBD00000DB407FEFDCF8EB50895CD
:10193000F894E091F603F091F7034091F203342F0D
:101940003095A091F803B091F9035091F303652FFE
:10195000609598E02081232320832C9187FF02C08B
:10196000252B01C026232C932081242B2083880F34
:10197000915081F700000000000000008081832367
:101980008083789408958091FA038F3F39F48EBD57
:1019900000000DB407FEFDCF8EB50895F894E091D8
:1019A000F803F091F90380819091F303892B8083F0
:1019B000E091F603F091F7033091F203A091F40364
:1019C000B091F5035091F103432F409598E080E0EA
:1019D0002081232B2083880F2C91252309F08160FF
:1019E00020812423208300000000915089F77894FF
:1019F00008952CB5982F93702C7F922B9CBD9DB58C
:101A000082FB882780F99E7F982B9DBD089561E019
:101A1000FC0184810C94891D60E0FC0184810C949C
:101A2000891DCF93DF93EC018E81882379F08F811C
:101A300098859C012F5F3F4F38872F8382309240DB
:101A400010F4A1DFF4CFCE01E2DF1E82DF91CF914F
:101A50000895673028F026E1FC01258380E0089591
:101A6000633079F028F46130A1F0623041F005C0B4
:101A7000653059F040F0663051F084E00BC085E0ED
:101A800009C081E007C086E005C082E003C083E0B2
:101A900001C080E0AEDF81E008950F931F93CF93E4
:101AA000DF93EB010E942A1C8B016DDF8F3F49F011
:101AB0000E942A1C601B710B6C177D07B0F380E03D
:101AC00001C081E0DF91CF911F910F910895CF92D6
:101AD000DF92FF920F931F93CF93DF9300D01F925B
:101AE000CDB7DEB76C01F62E29833A834B835C8336
:101AF00098DFC60191DF6CE271E0C601CEDF8F2D69
:101B000080640BDF08E110E05C814B813A81298120
:101B1000DA01C901002E04C0B695A795979587955F
:101B20000A94D2F729833A834B835C83F6DE08500C
:101B3000110929813A814B815C81083F8FEF180799
:101B400039F7FF2029F0E8E0FE1621F08FEF03C0FF
:101B500085E901C087E8E1DE10E015DFF601828744
:101B600087FF04C01F3F11F01F5FF7CF0F900F904A
:101B70000F900F90DF91CF911F910F91FF90DF9009
:101B8000CF900895AF92BF92CF92DF92EF92FF92E3
:101B90000F931F93CF93DF93EC01B62E1B8619860C
:101BA0001E821D821C864C832093FC030093FB0342
:101BB000E092FA030E942A1C8B0161E08C810E9452
:101BC000501DCE0124DF8FEFE81609F45EC060E0FF
:101BD0008091FB030E94501D61E08091FC030E94F4
:101BE000501D61E08091FA030E94501D8091FA031C
:101BF000992787FD9095FC01EA54FE4FE491F0E0AF
:101C0000EE0FFF1FEA5EFD4F259134913093F703ED
:101C10002093F603FC01E059FE4F84918093F20378
:101C20008091FC03992787FD9095FC01EA54FE4FB3
:101C3000E491F0E0EE0FFF1FEA5EFD4F2591349135
:101C40003093F9032093F803FC01E059FE4F84918F
:101C50008093F3038091FB03992787FD9095FC0106
:101C6000EA54FE4FE491F0E0EE0FFF1FE450FE4F08
:101C7000259134913093F5032093F403FC01E0594E
:101C8000FE4F84918093F10303C040D883E0B1DE1E
:101C90002AE0A22E8FEF41DEAA94E1F7CE01BCDE4E
:101CA00020E030E0A90160E0CE0111DFF82E8A8744
:101CB00081E0F81649F00E942A1C601B710B613DFF
:101CC000774070F381E046C02AEA31E040E050E01E
:101CD00068E0CE01FCDE82FF02C0FB860CC094E00F
:101CE000F92E51DE8A87FA94E1F78A3A11F082E000
:101CF00031C082E08B878B85823031F4C12CD12CAE
:101D0000E12C80E4F82E03C0C12CD12C760120E018
:101D100030E0A90167E3CE01DADEA701960169E2AE
:101D2000CE01D5DE8A87882349F00E942A1C601BD9
:101D3000710B613D774058F388E00CC08B85823091
:101D4000B1F420E030E0A9016AE3CE01C0DE8823CF
:101D500029F086E08D83CE015ADE1EC014DE807C21
:101D6000803C11F483E08B870EDE0DDE0CDECE01AD
:101D70004EDE8091FA038F3F69F46B2DCE01DF9127
:101D8000CF911F910F91FF90EF90DF90CF90BF9078
:101D9000AF905FCEAA24A3948A2DDF91CF911F919B
:101DA0000F91FF90EF90DF90CF90BF90AF9008958C
:101DB0000F931F93CF93DF93EC010E942A1C8B019A
:101DC000E2DD8A878F3F49F40E942A1C601B710B59
:101DD0006D327140A8F38FE003C08E3F31F08DE08B
:101DE0008D83CE0114DE80E001C081E0DF91CF91D0
:101DF0001F910F910895CF92DF92EF92FF920F9370
:101E00001F93CF93DF93EC0169010115110509F4CC
:101E10005DC0C801820F931F8130924008F058C006
:101E20008E81882371F088819981AA81BB814817AE
:101E300059076A077B0729F48F819885C816D90648
:101E400000F5488359836A837B838B85833039F01F
:101E5000E9E0440F551F661F771FEA95D1F79A01F5
:101E6000AB0161E1CE0133DE882319F083E08D837D
:101E70002FC0CE019DDF882359F118861F8281E093
:101E80008E838F8198858C159D0538F47CDD8F813C
:101E90009885019698878F83F4CF6701E00EF11E35
:101EA000CE14DF0429F06FDDF60181936F01F8CFC6
:101EB0008F819885800F911F98878F832985222392
:101EC00019F08115924010F0CE01ABDD81E003C026
:101ED000CE019DDD80E0DF91CF911F910F91FF90AA
:101EE000EF90DF90CF900895EF92FF920F931F93A2
:101EF000790100E012E020E030E07DDF1F910F91DA
:101F0000FF90EF900895AF92BF92CF92DF92EF9241
:101F1000FF920F931F93CF93DF931F921F92CDB722
:101F2000DEB78C01862FF8019485992351F1DA01EF
:101F3000E12CF12CA12CB12CED91F0E0EB259F01CF
:101F400064E0359527956A95E1F72E273F27BA2C4F
:101F5000AA24A226B326F901FE2FEE27F295F07FE0
:101F6000AE26BF2665E0220F331F6A95E1F7A22651
:101F7000B326FFEFEF1AFF0AE11492E0F906E1F64B
:101F800003C0AA24AA94BA2C49835A83C6DC498187
:101F9000E42E5A81F52EC12CD12CF70181917F01BD
:101FA000BCDCFFEFCF1ADF0AC11482E0D806A9F724
:101FB0008B2DB3DC8A2DB1DCE6DCF80182878F71D2
:101FC000853031F081E18583C80121DD80E001C0E9
:101FD00081E00F900F90DF91CF911F910F91FF90B3
:101FE000EF90DF90CF90BF90AF9008950F931F9325
:101FF000CF93DF93EC01890141155105610571050E
:1020000011F482E12DC08B85833039F0E9E0440F73
:10201000551F661F771FEA95D1F79A01AB0168E15A
:10202000CE0155DD882311F084E01AC0A8016EEFBF
:10203000CE0169DF8823A9F068E572E0CE012DDDCD
:10204000811102C085E10CC020E030E0A9016DE003
:10205000CE013DDD811103C096DC882331F084E19F
:102060008D83CE01D4DC80E003C0CE01D0DC81E0E2
:10207000DF91CF911F910F910895CF93DF93EC01E2
:102080009C012A5F3F4F41E050E060E070E08B8DA3
:102090009C8D0E946A198823A1F04F89588D698D03
:1020A0007A8D452B462B472B71F44E815F816885D5
:1020B00079854F8B588F698F7A8F8C8180688C835C
:1020C00002C080E001C081E0DF91CF910895CF92FE
:1020D000DF92EF92FF921F93CF93DF93EC01CDDF5E
:1020E000811102C080E04AC0EB8DFC8DCE80DF8084
:1020F000E884F98482E0C81AD108E108F10805846F
:1021000004C0CC0CDD1CEE1CFF1C0A94D2F74685E3
:10211000578560897189C40ED51EE61EF71E14818D
:1021200081E0C81AD108E108F108112359F0C7016C
:10213000B601610F711D811D911D1AD7882391F27F
:102140001150F3CFEB8DFC8DC12C82E0D82EE12C09
:10215000F12C058404C0CC0CDD1CEE1CFF1C0A9481
:10216000D2F74B895C896D897E894C0D5D1D6E1D92
:102170007F1D4B8B5C8B6D8B7E8B81E0DF91CF91D4
:102180001F91FF90EF90DF90CF900895CF93DF9352
:10219000EC01462F6E857F8588899989AFD6882383
:1021A00041F08A8920E2829FC00111248A5F9B4FFF
:1021B00002C080E090E0DF91CF910895282FFB01CD
:1021C0008BE030E231938150E9F7A22FB92F20E064
:1021D00037E09D91992319F19E3219F0EAE1F1E07F
:1021E00008C03A3011F128E03AE0F3CF31964917B0
:1021F000E1F044914111FACF3217B8F04FED490F99
:102200004E3598F441E0420FFB01E20FF11D2FE93A
:10221000290F2A3108F490529083242FDACF81E0DD
:10222000FB019081903209F480E008950F931F9391
:10223000CF93DF93EC018B018D81882311F080E037
:102240003FC0FB0187898031B1F482E08D831F8A12
:10225000188E198E1A8E408D518D60E070E095E0D9
:10226000440F551F661F771F9A95D1F74B8B5C8BD8
:102270006D8B7E8B14C0803211F783E08D83FB0160
:10228000428D538D648D758D4F8B588F698F7A8FEA
:102290009E012D5E3F4FC80113D7882381F21C8F0A
:1022A0000B8F81E08C831E821F82188619861A8606
:1022B0001B861C861D861E861F86188A198A1A8A06
:1022C000DF91CF911F910F9108952F923F924F92DE
:1022D0005F926F927F928F929F92AF92BF92CF92B6
:1022E000DF92EF92FF920F931F93CF93DF93EC0156
:1022F0006B015A018D81811103C08FEF9FEFD7C011
:102300008C8180FFFACF4B895C896D897E898A85B3
:102310009B85AC85BD852501612C712C8A019B01B3
:10232000081B190B2A0B3B0B041515052605370551
:1023300018F45A01A81AB90A25011E0126E0220E36
:10234000311C4114510409F47AC04A855B856C85BF
:102350007D854A0181E09822ED818A019B01F9E0A7
:102360003695279517950795FA95D1F78B8D9C8D06
:10237000E23051F4FC01628D738D848D958D600F78
:10238000711F821F931F3DC0FC0174807A947022DC
:1023900081149104C1F4711016C0452B462B472BB4
:1023A00049F48F89988DA98DBA8D8E839F83A887D4
:1023B000B98709C04E815F81688579859101FDD516
:1023C000882309F49ACFEB8DFC8D6E817F818885FF
:1023D00099856250710981099109058404C0660FCD
:1023E000771F881F991F0A94D2F7068517852089C1
:1023F0003189600F711F821F931F670D711D811D31
:10240000911D20E032E028193909320124153505E3
:1024100008F439012C8126FD04C06114F2E07F0626
:1024200099F500911D0210911E0220911F0230911A
:102430002002601771078207930719F425C0C501B0
:1024400036C0760183019401AB01BC018091040484
:1024500090910504D0DC882309F44FCFC60CD71C1B
:1024600004C0E81BF90BCE0EDF1E8A859B85AC8568
:10247000BD85860D971DA11DB11D8A879B87AC87E1
:10248000BD87461857085DCF40E038D5882309F44A
:1024900034CFC4018A5F9B4FD6019C01260D371DA6
:1024A000FC01E217F307E9F241914D93FACFDF9176
:1024B000CF911F910F91FF90EF90DF90CF90BF9041
:1024C000AF909F908F907F906F905F904F903F90D4
:1024D0002F900895FF920F931F93CF93DF931F9236
:1024E000CDB7DEB78C01FC018581823018F480E025
:1024F00090E033C0F8014285538564857585A5E079
:102500007695679557954795AA95D1F7F42FFF7063
:10251000FF2E41E050E0BE016F5F7F4FC801D5DE66
:10252000019719F4298130E002C02FEF3FEF2F3FD0
:102530003F4FE9F2F8014285538564857585415E18
:102540005F4F6F4F7F4F4287538764877587F0E2F5
:10255000FF9EC00111248A5F9B4F0F90DF91CF91A6
:102560001F910F91FF9008954F925F926F927F920B
:10257000AF92BF92CF92DF92EF92FF920F931F9391
:10258000CF93DF93EC016A017B012D81222309F4B3
:1025900056C08B899C89AD89BE8984179507A6078B
:1025A000B70708F44CC04DC08A859B85AC85BD85B6
:1025B000EB8DFC8DE585F0E03996AC01BD01415015
:1025C0005109610971090E2E04C0769567955795DA
:1025D00047950A94D2F79701860101501109210904
:1025E000310904C03695279517950795EA95D2F7D6
:1025F0000417150726073707A8F58F89988DA98D29
:10260000BA8D8E839F83A887B987280139015E011F
:1026100086E0A80EB11C411451046104710459F103
:102620004E815F816885798595018B8D9C8DC5D4A0
:1026300091E0491A5108610871088111ECCF80E0DE
:102640001FC02230C1F0C114D104E104F10409F02B
:10265000ABCF1E821F82188619861A861B861C869F
:102660001D860DC0892B8A2B8B2B39F2041B150B71
:10267000260B370BCACFCA86DB86EC86FD8681E047
:10268000DF91CF911F910F91FF90EF90DF90CF904E
:10269000BF90AF907F906F905F904F9008950F9391
:1026A0001F93CF93DF93EC018D818823B9F18C8147
:1026B00087FF2FC061E0CE0169DD8C01009771F1C9
:1026C0008D81823048F44B895C896D897E89F8015F
:1026D000448F558F668F778F4F89588D698D7A8D8E
:1026E000F801538F428F758B648BE091FD03F0915D
:1026F000FE03309759F0B8016A5E7F4FC8014896D3
:102700001995F801808D918D938B828B8C818F77B9
:102710008C83DF91CF911F910F91B7C380E0DF9140
:10272000CF911F910F910895CF93DF93EC01B7DF05
:10273000882319F01D8281E001C080E0DF91CF91F4
:1027400008954F925F926F927F92AF92BF92CF9215
:10275000DF92EF92FF920F931F93CF93DF9300D0FE
:102760001F92CDB7DEB75C016A017B01FC01858158
:102770008130E9F4848181FF1AC0F501838994894D
:10278000A589B68984179507A607B70780F0892B16
:102790008A2B8B2B09F472C0F50142845384648424
:1027A0007584B701A601C501DFDE811102C080E09A
:1027B00066C0F501838D948DC114D104E104F10448
:1027C00069F44789508D618D728D95D6882379F390
:1027D000F501178A108E118E128E37C0F5014681D1
:1027E0005781608571859E012F5F3F4FE6D3882317
:1027F000F1F249815A816B817C81F501838D948D41
:10280000FC012789203129F408EF1FEF20E030E098
:1028100004C008EF1FEF2FEF3FE04017510762079A
:10282000730798F468D6882309F4C1CFF50146816F
:102830005781608571850FEF1FEF2FEF3FE0838D8C
:10284000948DA8D4882309F4B2CFF501C38AD48A21
:10285000E58AF68A848180688483C50120DF882325
:1028600009F4A5CFB701A6014C145D046E047F04E2
:1028700010F4B301A201C50177DE01C081E00F9021
:102880000F900F900F90DF91CF911F910F91FF90BC
:10289000EF90DF90CF90BF90AF907F906F905F9060
:1028A0004F900895FF920F931F93CF93DF93EC0106
:1028B000F42E80E2689FF0011124EA5FFB4F8385CC
:1028C000817129F0842F827411F080E051C06A8BED
:1028D00080911D0290911E02A0911F02B0912002D2
:1028E0008E879F87A88BB98B4489558960E070E0FB
:1028F000BA0155274427028D138D20E030E0402B8C
:10290000512B622B732B4F8B588F698F7A8F838556
:10291000887151F4048D158D268D378D0B8B1C8B92
:102920002D8B3E8B81E00BC0803179F69E012D5EB0
:102930003F4F8B8D9C8DC4D3882339F284E08D83E7
:102940008F2D8F708C831E821F82188619861A869F
:102950001B861C861D86F6FE0AC040E050E0BA01C8
:10296000CE01DF91CF911F910F91FF90EACE81E0D0
:10297000DF91CF911F910F91FF900895AF92BF9279
:10298000CF92DF92EF92FF920F931F93CF93DF933B
:10299000CDB7DEB72B970FB6F894DEBF0FBECDBF15
:1029A0007C016B01CA01B22EF70125812111B3C050
:1029B000BE016F5F7F4F02DC882309F4ACC0F601D3
:1029C000838D948DF701948F838FF6011682178281
:1029D000108611861286138614861586A12CF601A0
:1029E000028513852485358583899489A589B689CF
:1029F000081719072A073B07E0F545E036952795A4
:102A0000179507954A95D1F70F70C60163DD0097BA
:102A100009F481C0FC012081222311F0253EB9F484
:102A2000A1100EC0F701028B40911D0250911E02B1
:102A300060911F027091200246875787608B718BCF
:102A4000FC018081AA24A3948111C9CF12C04BE05C
:102A500050E0BC01CE0101960E941125892B09F09E
:102A6000BECF8B2D8073803309F455C04B2D602F62
:102A70004FC08B2D8271823109F04DC0AA2039F0F0
:102A800061E0C70183DB8C01009771F444C0F6015B
:102A90008581823009F43FC0C60119DB8823D9F152
:102AA000F701128A06E014E080E2F80111928A959B
:102AB000E9F78BE0FE013196D80101900D928A95DD
:102AC000E1F7E091FD03F091FE03309739F0B80192
:102AD000625F7F4FC8014096199509C081E298E274
:102AE000F801918B808B80E098E097878687F801CA
:102AF00080899189938B828B918F808F8685978532
:102B0000978B868BC2D1882331F04B2DF7016289D8
:102B1000C701C8DE01C080E02B960FB6F894DEBF77
:102B20000FBECDBFDF91CF911F910F91FF90EF901E
:102B3000DF90CF90BF90AF9008952F923F924F9229
:102B40005F926F927F928F929F92AF92BF92CF923D
:102B5000DF92EF92FF920F931F93CF93DF9300D0FA
:102B60001F921F92CDB7DEB78C017B013A01DC01C9
:102B700015968C9115978130C1F414968C9181FF34
:102B800014C082FF1AC0F801438954896589768987
:102B900082859385A485B58584179507A607B70711
:102BA00061F0C801E1DC811108C081E090E0F8012A
:102BB0009383828380E090E040C163017FC0D801AD
:102BC0005B968D919C915C97FC01F481F150B5016D
:102BD000A40129E076956795579547952A95D1F7F1
:102BE000F423FD8321E09222FF2309F473C080E0E7
:102BF00092E08819990956018C159D0508F45C012D
:102C0000D8015B96ED91FC915C9716962D903D90C6
:102C10004D905C901997B2E02B1A31084108510889
:102C2000058404C0220C331C441C551C0A94D2F7A2
:102C300086859785A089B189280E391E4A1E5B1E9C
:102C4000ED812E0E311C411C511CA114F2E0BF0677
:102C500009F085C080911D0290911E02A0911F0273
:102C6000B091200282159305A405B50559F48FEFA4
:102C70009FEFDC0180931D0290931E02A0931F0220
:102C8000B09320029701B201A101809104049091B8
:102C90000504ACD9882309F488CF9EEFF91ACA1825
:102CA000DB08F80182859385A485B5858A0D9B1D77
:102CB000A11DB11D82879387A487B587D8011A9675
:102CC0008D909D90AD90BC901D97C114D10409F0DA
:102CD00076CF86C08114910409F089CF16964D9164
:102CE0005D916D917C9119974115510561057105B3
:102CF00059F457968D919D910D90BC91A02D009700
:102D0000A105B10531F520C09E012F5F3F4F55D180
:102D1000882309F450CF89819A81AB81BC81F80165
:102D2000238D348DF9012789203129F448EF5FEF95
:102D300060E070E004C048EF5FEF6FEF7FE0841762
:102D40009507A607B70728F0C80197D981114FCF7B
:102D50002CCFF80186839783A087B18748CF811451
:102D6000910421F5D8011A964D915D916D917C9158
:102D70001D9753968D919D910D90BC91A02D481754
:102D800059076A077B0790F080D0882309F40DCF9C
:102D900020921D0230921E0240921F025092200289
:102DA0008091030481608093030407C041E0C20165
:102DB000B101A4D0882309F4F8CEC4018A5F9B4FE7
:102DC000D7019C012A0D3B1DFC01E217F30719F006
:102DD0004D914193FACFE81BF90BEE0EFF1E5FCF2A
:102DE00053968D919D910D90BC91A02DF801248159
:102DF00088159905AA05BB0538F4838A948AA58AA3
:102E0000B68A206824830CC08091FD039091FE0354
:102E1000892B31F06114710419F02068F8012483C2
:102E2000D80114968C9183FD02C0C30106C0C8016D
:102E300036DC882309F4B9CEF8CF0F900F900F90AD
:102E40000F900F90DF91CF911F910F91FF90EF9016
:102E5000DF90CF90BF90AF909F908F907F906F90BA
:102E60005F904F903F902F900895CF93DF931F92E4
:102E7000CDB7DEB7698341E050E0BE016F5F7F4FA1
:102E80005CDE0F90DF91CF91089580910304882339
:102E900089F140911D0250911E0260911F027091B4
:102EA000200226E034E080910404909105049ED82D
:102EB000882311F14091FF035091000460910104B7
:102EC00070910204411551056105710589F026E0F4
:102ED00034E0809104049091050488D8882361F03F
:102EE0001092FF0310920004109201041092020449
:102EF0001092030481E0089580E00895CF92DF925C
:102F0000EF92FF92CF936B017C01C42F80911D0241
:102F100090911E02A0911F02B09120028C159D0578
:102F2000AE05BF05C9F0B1DF811102C080E01AC053
:102F300026E034E0B701A6018091040490910504D5
:102F40000E94740F882391F3C0921D02D0921E023A
:102F5000E0921F02F0922002809103048C2B809358
:102F6000030481E0CF91FF90EF90DF90CF90089520
:102F7000CF92DF92EF92FF926B017C0186DF882374
:102F8000B1F0E6E0F4E0119286E0E630F807D9F718
:102F9000C0921D02D0921E02E0921F02F092200207
:102FA0008091030481608093030481E001C080E08C
:102FB000FF90EF90DF90CF9008958F929F92AF9205
:102FC000BF92CF92DF92EF92FF920F931F93CF9316
:102FD000DF938C016A017B01E901FC018185928507
:102FE000A385B4850196A11DB11D84179507A60779
:102FF000B70710F480E057C0F80143895489658908
:1030000076898789803129F4BB27AF2D9E2D8D2DA0
:1030100009C0D701C60127E0B695A7959795879572
:103020002A95D1F74C015D01840E951EA61EB71E90
:10303000C501B40180901D0290901E02A0901F0255
:10304000B0902002681579058A059B0589F4F8017E
:103050008789803191F4DD24EE24FF24F601EE0F00
:10306000FF1FEA5FFB4F80819181A0E0B0E016C0B6
:1030700040E044DF8111EBCFBDCFE894C7F8DD24F9
:10308000EE24FF24F601EE0FFF1FEE0FFF1FEA5F95
:10309000FB4F80819181A281B381BF708883998326
:1030A000AA83BB8381E0DF91CF911F910F91FF90A5
:1030B000EF90DF90CF90BF90AF909F908F9008954A
:1030C0004F925F926F927F92AF92BF92CF92DF92B8
:1030D000EF92FF920F931F93CF93DF9300D01F9235
:1030E000CDB7DEB78C0149835A836B837C8359014A
:1030F000C12CD12C7601412C42E0542E612C712C34
:1031000049815A816B817C819E012F5F3F4FC801AD
:1031100054DF882359F1D301C201F801058404C0AA
:10312000880F991FAA1FBB1F0A94D2F7C80ED91E79
:10313000EA1EFB1E49815A816B817C81878980311F
:1031400029F488EF9FEFA0E0B0E004C088EF9FEF84
:10315000AFEFBFE0481759076A077B0788F2F50110
:10316000C082D182E282F38281E001C080E00F90D0
:103170000F900F900F90DF91CF911F910F91FF90C3
:10318000EF90DF90CF90BF90AF907F906F905F9067
:103190004F9008954F925F926F927F928F929F927D
:1031A000AF92BF92CF92DF92EF92FF920F931F9355
:1031B000CF93DF93EC016A017B0128013901423092
:1031C00051056105710508F473C049855A856B8501
:1031D0007C854F5F5F4F6F4F7F4F4C155D056E05D0
:1031E0007F0508F465C08B889C88AD88BE888F8970
:1031F000803129F477276F2D5E2D4D2D09C0B70141
:10320000A601E7E07695679557954795EA95D1F73A
:10321000840E951EA61EB71E40911D0250911E02DF
:1032200060911F027091200284169506A606B706CB
:1032300071F48F89803191F4DD24EE24FF24F601AE
:10324000EE0FFF1FEA5FFB4F5182408217C040E044
:10325000C501B40153DE8111ECCF2AC0E894C7F850
:10326000DD24EE24FF24F601EE0FFF1FEE0FFF1FFB
:10327000EA5FFB4F40825182628273828091030435
:103280008160809303048A89823080F08D819E81E1
:10329000AF81B885880D991DAA1DBB1D8093FF03C2
:1032A00090930004A0930104B093020481E001C054
:1032B00080E0DF91CF911F910F91FF90EF90DF9011
:1032C000CF90BF90AF909F908F907F906F905F90C6
:1032D0004F9008952F923F924F925F926F927F92FC
:1032E0009F92AF92BF92CF92DF92EF92FF920F9395
:1032F0001F93CF93DF93CDB7DEB760970FB6F894E7
:10330000DEBF0FBECDBF5C014D875E876F87788BB8
:103310001901D9014D905D906D907C90411451043C
:103320006104710431F0BFEF4B1A5B0A6B0A7B0A30
:1033300010C0FC0140805180628073809924939476
:103340000D851E852F853889013011052105310530
:1033500009F0912CD50119962D913D914D915C91DB
:103360001C972F5F3F4F4F4F5F4F29873A874B87FF
:103370005C87730162011D821E821F821886F5011F
:1033800081859285A385B4850D811E812F81388525
:10339000081719072A073B0708F054C029853A8502
:1033A0004B855C852C153D054E055F0550F4A2E06C
:1033B000CA2ED12CE12CF12CB2E04B2E512C612CD9
:1033C000712C9E012F5F3F4FB701A601C501F5DDAE
:1033D0008823C1F149815A816B817C81D701C60163
:1033E0000196A11DB11D452B462B472B19F02C0131
:1033F0003D010FC0AC01BD014419550966097709AB
:103400000D851E852F853889401751076207730780
:1034100079F02D813E814F8158852F5F3F4F4F4F6F
:103420005F4F2D833E834F8358876C017D01A7CF6B
:103430000FEF1FEF2FEF3FE0B701A601C501AADE96
:10344000811117C080E03FC0D701C6010197A109D3
:10345000B1098D839E83AF83B88797018601AC0144
:10346000BD01C50197DE882369F3CD80DE80EF8042
:10347000F8844C145D046E047F0430F3D1014D9147
:103480005D916D917C91411551056105710599F42E
:10349000F1014082518262827382992099F0FFEF9C
:1034A0004F1A5F0A6F0A7F0AD5014D925D926D92A5
:1034B0007C92139707C093018201C5016BDE8111D5
:1034C000E7CFC0CF81E060960FB6F894DEBF0FBEA5
:1034D000CDBFDF91CF911F910F91FF90EF90DF90C3
:1034E000CF90BF90AF909F907F906F905F904F90E4
:1034F0003F902F900895AF92BF92CF92DF92EF92BC
:10350000FF920F931F93CF93DF9300D01F92CDB7FD
:10351000DEB75C016A017B0182E090E0A0E0B0E0F0
:10352000F50180839183A283B3839E012F5F3F4F78
:10353000B701A601C50141DD882309F100E010E0D3
:103540009801B701A601C50125DE8823C1F0C98015
:10355000DA80EB80FC80F5018789803129F488EFDF
:103560009FEFA0E0B0E004C088EF9FEFAFEFBFE0B7
:10357000C816D906EA06FB06C0F281E001C080E069
:103580000F900F900F900F90DF91CF911F910F919F
:10359000FF90EF90DF90CF90BF90AF9008958F9203
:1035A0009F92AF92BF92CF92DF92EF92FF920F93D2
:1035B0001F93CF93DF93EC01142F70930504609356
:1035C0000404442339F1453010F080E0ECC040E0C1
:1035D00060E070E0CB0192DC8823B9F320E1129F18
:1035E000F0011124EC54FA4F80818F7771F78485B4
:1035F0009585A685B78584369105A105B10528F383
:10360000C084D184E284F384C114D104E104F104C0
:1036100021F4DBCFC12CD12C760140E0C701B601EB
:103620006DDC882391F28091110490911204811530
:10363000924059F630911604332339F280911404E4
:1036400090911504892B09F4C0CF209113042223F3
:1036500009F4BBCF3A8B2C831D8630E041E050E06B
:103660006D85062FCA01062E02C0880F991F0A9485
:10367000E2F72817390731F081E0860F8D8768302F
:1036800078F3A3CF20911C0430911D04211531053E
:1036900019F040E050E008C020912A0430912B043A
:1036A00040912C0450912D042D833E834F835887E5
:1036B000809114049091150446015701880E991EBB
:1036C000A11CB11C8B8A9C8AAD8ABE8AE09117042A
:1036D000F0911804F98FE88FA0911604B0E088D714
:1036E000680D791D8A1D9B1D6A8F7B8F8C8F9D8F26
:1036F00015E0EE0FFF1F1A95E1F7E150FE4FEF2F97
:10370000FF27E695DC01CB018E0F9F1FA11DB11D88
:103710008E879F87A88BB98B8090190490901A048C
:103720008114910419F0A12CB12C08C080902604BA
:1037300090902704A0902804B0902904A701960136
:10374000281B390B4A0B5B0BDA01C901880D991D47
:10375000AA1DBB1D04C0B695A795979587950A9598
:10376000D2F789879A87AB87BC87853F3FE093076D
:10377000A105B10510F48CE014C0853F9F4FA10551
:10378000B10510F480E10DC08091320490913304B2
:10379000A0913404B09135048A8F9B8FAC8FBD8F7C
:1037A00080E28F8B81E0DF91CF911F910F91FF908D
:1037B000EF90DF90CF90BF90AF909F908F90089543
:1037C0001F920F920FB60F9211242F933F938F9356
:1037D0009F93AF93BF938091070690910806A091A5
:1037E0000906B0910A063091060623E0230F2D3713
:1037F00020F40196A11DB11D05C026E8230F0296F5
:10380000A11DB11D2093060680930706909308061C
:10381000A0930906B0930A0680910B0690910C06BE
:10382000A0910D06B0910E060196A11DB11D8093C9
:103830000B0690930C06A0930D06B0930E06BF9155
:10384000AF919F918F913F912F910F900FBE0F904D
:103850001F9018952FB7F89460910706709108068D
:103860008091090690910A062FBF08953FB7F894FA
:1038700080910B0690910C06A0910D06B0910E065A
:1038800026B5A89B05C02F3F19F00196A11DB11DBB
:103890003FBF6627782F892F9A2F620F711D811DD8
:1038A000911D42E0660F771F881F991F4A95D1F737
:1038B00008958F929F92AF92BF92CF92DF92EF9234
:1038C000FF926B017C01D2DF4B015C01C114D1047A
:1038D000E104F104E1F054D6C9DF681979098A09D5
:1038E0009B09683E73408105910580F321E0C21A6F
:1038F000D108E108F10888EE880E83E0981EA11C2B
:10390000B11CC114D104E104F10431F7DFCFFF9001
:10391000EF90DF90CF90BF90AF909F908F900895E1
:103920008230910538F0880F991F880F991F0597ED
:103930000197F1F70895789484B5826084BD84B5C9
:10394000816084BD85B5826085BD85B5816085BD9A
:10395000EEE6F0E0808181608083E1E8F0E01082B3
:10396000808182608083808181608083E0E8F0E0F4
:10397000808181608083E1EBF0E0808184608083DE
:10398000E0EBF0E0808181608083E1E9F0E080811C
:1039900082608083808181608083E0E9F0E08081C3
:1039A00081608083E1EAF0E08081826080838081B1
:1039B00081608083E0EAF0E0808181608083E1E2E1
:1039C000F1E0808182608083808181608083E0E299
:1039D000F1E0808181608083EAE7F0E080818460AB
:1039E0008083808182608083808181608083808108
:1039F000806880831092C100089590E0FC013197A7
:103A0000E231F10508F04BC0EE58FF4FDCC5809164
:103A100080008F7703C0809180008F7D809380002D
:103A2000089580918000877FF9CF84B58F7702C099
:103A300084B58F7D84BD08958091B0008F7703C0D9
:103A40008091B0008F7D8093B000089580919000A8
:103A50008F7707C0809190008F7D03C08091900088
:103A6000877F8093900008958091A0008F7707C092
:103A70008091A0008F7D03C08091A000877F8093FC
:103A8000A0000895809120018F7707C080912001C8
:103A90008F7D03C080912001877F8093200108954E
:103AA000CF93DF9390E0FC01E059FE4F2491FC019D
:103AB000EA54FE4F8491882349F190E0880F991FC2
:103AC000FC01E05DFD4FA591B4918A5E9D4FFC0124
:103AD000C591D4919FB7611108C0F8948C9120953D
:103AE00082238C93888182230AC0623051F4F89437
:103AF0008C91322F309583238C938881822B8883FD
:103B000004C0F8948C91822B8C939FBFDF91CF914E
:103B100008950F931F93CF93DF931F92CDB7DEB716
:103B2000282F30E0F901E65DFE4F8491F901E0595C
:103B3000FE4F1491F901EA54FE4F04910023C1F0A5
:103B4000882319F0698359DF6981E02FF0E0EE0FD7
:103B5000FF1FEA5EFD4FA591B4919FB7F8948C9139
:103B6000611103C01095812301C0812B8C939FBFED
:103B70000F90DF91CF911F910F910895FC01818DDE
:103B8000228D90E0805C9F4F821B91098F73992753
:103B90000895FC01918D828D981731F0828DE80F88
:103BA000F11D858D90E008958FEF9FEF0895FC0142
:103BB000918D828D981761F0828DDF01A80FB11D64
:103BC0005D968C91928D9F5F9F73928F90E0089588
:103BD0008FEF9FEF08958AE89FE1892B39F080E00D
:103BE00090E0892B19F096D1811123C085E390E2F2
:103BF000892B39F080E090E0892B19F036D28111C1
:103C00001BC080EE90E2892B39F080E090E0892B98
:103C100019F0D6D2811113C080E090E0892BA1F079
:103C200080E090E0892B81F00E94000081110AC0A1
:103C300008950E940000DACF0E940000E2CF0E94A7
:103C40000000EACF0C9400000895FC01848DDF0190
:103C5000A80FB11DA35ABF4F2C91848D90E00196FF
:103C60008F739927848FA689B7892C93A089B189EE
:103C70008C9180648C93938D848D981306C00288F8
:103C8000F389E02D80818F7D80830895CF93DF932A
:103C9000EC01888D8823C1F0EA89FB89808185FD4C
:103CA00005C0A889B9898C9186FD0EC00FB607FCA6
:103CB000F5CF808185FFF2CFA889B9898C9185FFE6
:103CC000EDCFCE01C2DFE8CFDF91CF910895CF9243
:103CD000DF92FF920F931F93CF93DF931F92CDB785
:103CE000DEB76C0181E0D60158968C9358975B96AD
:103CF0009C915B975C968C915C97981307C050964B
:103D0000ED91FC915197808185FD2DC0F601038DC9
:103D100010E00F5F1F4F0F731127F02EF601848DF7
:103D2000F81210C00FB607FCF9CFD6015096ED91EE
:103D3000FC915197808185FFF1CFC601698385DFB2
:103D40006981ECCF838DE80FF11DE35AFF4F60834B
:103D5000D6015B960C935B975296ED91FC9153972D
:103D6000808180620CC0D6015696ED91FC915797E8
:103D700060835096ED91FC9151978081806480839F
:103D800081E090E00F90DF91CF911F910F91FF9014
:103D9000DF90CF900895BF92CF92DF92EF92FF9283
:103DA000CF93DF93EC016A017B01B22EE889F98998
:103DB00082E08083411581EE58076105710599F015
:103DC00060E079E08DE390E0A7019601DAD321501D
:103DD0003109410951095695479537952795211580
:103DE00080E1380790F0E889F989108260E874E88A
:103DF0008EE190E0A7019601C4D321503109410919
:103E000051095695479537952795EC85FD85308363
:103E1000EE85FF852083188EEC89FD89B082EA89C2
:103E2000FB89808180618083EA89FB898081886049
:103E30008083EA89FB89808180688083EA89FB89A5
:103E400080818F7D8083DF91CF91FF90EF90DF9015
:103E5000CF90BF9008951F920F920FB60F9211242A
:103E60000BB60F922F938F939F93EF93FF93E09155
:103E70001F06F09120068081E0912506F09126062C
:103E800082FD12C09081809128068F5F8F732091F0
:103E90002906821751F0E0912806F0E0E15FF94F22
:103EA000958F8093280601C08081FF91EF919F91AB
:103EB0008F912F910F900BBE0F900FBE0F901F9000
:103EC00018951F920F920FB60F9211240BB60F92F6
:103ED0002F933F934F935F936F937F938F939F9312
:103EE000AF93BF93EF93FF938FE096E0AEDEFF9129
:103EF000EF91BF91AF919F918F917F916F915F9162
:103F00004F913F912F910F900BBE0F900FBE0F90CE
:103F10001F9018958FE096E031DE21E0892B09F49F
:103F200020E0822F0895109212061092110688EE5A
:103F300093E0A0E0B0E08093130690931406A09362
:103F40001506B093160685E792E0909310068093CD
:103F50000F0685EC90E090931C0680931B0684EC82
:103F600090E090931E0680931D0680EC90E0909365
:103F7000200680931F0681EC90E0909322068093A8
:103F8000210682EC90E0909324068093230686EC31
:103F900090E09093260680932506109228061092B2
:103FA000290610922A0610922B0608951F920F924E
:103FB0000FB60F9211240BB60F922F938F939F93EE
:103FC000EF93FF93E091BC06F091BD068081E091F4
:103FD000C206F091C30682FD12C090818091C50691
:103FE0008F5F8F732091C606821751F0E091C5064E
:103FF000F0E0E455F94F958F8093C50601C08081AC
:10400000FF91EF919F918F912F910F900BBE0F9089
:104010000FBE0F901F9018951F920F920FB60F9220
:1040200011240BB60F922F933F934F935F936F938F
:104030007F938F939F93AF93BF93EF93FF938CEAFC
:1040400096E003DEFF91EF91BF91AF919F918F9129
:104050007F916F915F914F913F912F910F900BBE88
:104060000F900FBE0F901F9018958CEA96E086DD9A
:1040700021E0892B09F420E0822F08951092AF06E9
:104080001092AE0688EE93E0A0E0B0E08093B00618
:104090009093B106A093B206B093B30685E792E081
:1040A0009093AD068093AC068DEC90E09093B906AA
:1040B0008093B8068CEC90E09093BB068093BA0690
:1040C00088EC90E09093BD068093BC0689EC90E06C
:1040D0009093BF068093BE068AEC90E09093C10651
:1040E0008093C0068EEC90E09093C3068093C20646
:1040F0001092C5061092C6061092C7061092C80606
:1041000008951F920F920FB60F9211240BB60F92C3
:104110002F938F939F93EF93FF93E0915907F09123
:104120005A078081E0915F07F091600782FD12C01D
:104130009081809162078F5F8F7320916307821750
:1041400051F0E0916207F0E0E75BF84F958F8093C4
:10415000620701C08081FF91EF919F918F912F9114
:104160000F900BBE0F900FBE0F901F9018951F92CF
:104170000F920FB60F9211240BB60F922F933F930D
:104180004F935F936F937F938F939F93AF93BF935F
:10419000EF93FF9389E497E058DDFF91EF91BF9192
:1041A000AF919F918F917F916F915F914F913F91CF
:1041B0002F910F900BBE0F900FBE0F901F90189570
:1041C00089E497E0DBDC21E0892B09F420E0822FF1
:1041D000089510924C0710924B0788EE93E0A0E0F0
:1041E000B0E080934D0790934E07A0934F07B09394
:1041F000500785E792E090934A078093490785ED41
:1042000090E0909356078093550784ED90E090934B
:1042100058078093570780ED90E090935A0780935A
:10422000590781ED90E090935C0780935B0782EDE6
:1042300090E090935E0780935D0786ED90E0909309
:10424000600780935F0710926207109263071092D5
:10425000640710926507089508956DDBFDDF0E94E5
:104260009202CBEEDDE10E9443032097E1F3B3DC41
:10427000FACFCCC163C2CF92DF92EF92FF920F933D
:104280001F93CF93DF937C016A01EB0100E010E004
:104290000C151D0571F06991D701ED91FC9101900C
:1042A000F081E02DC7011995892B19F00F5F1F4F81
:1042B000EFCFC801DF91CF911F910F91FF90EF9049
:1042C000DF90CF9008956115710581F0DB010D90AD
:1042D0000020E9F7AD0141505109461B570BDC01A5
:1042E000ED91FC910280F381E02D199480E090E043
:1042F0000895DC01ED91FC91DB0114964D915C91E8
:1043000015976D917C910280F381E02D199461E8FD
:1043100072E0D9CF0F931F93CF93DF93EC01D3DFDC
:104320008C01CE01F4DF800F911FDF91CF911F919F
:104330000F910895FC018081918100C2CF93DF939A
:10434000EC0188819981009709F0F8D119821882CF
:104350001D821C821B821A82DF91CF9108950F93D8
:104360001F93CF93DF93EC018B016F5F7F4F8881A9
:10437000998173D2009731F0998388831B830A83D4
:1043800081E001C080E0DF91CF911F910F910895EE
:10439000CF93DF93EC0188819981892B29F08A8161
:1043A0009B818617970758F4CE01D9DF882341F007
:1043B0008C819D81892B19F4E881F981108281E03B
:1043C000DF91CF910895EF92FF920F931F93CF93B8
:1043D000DF93EC017B018A01BA01DADF811103C0AE
:1043E000CE01ACDF06C01D830C83B70188819981A3
:1043F00039D3CE01DF91CF911F910F91FF90EF90B4
:104400000895FC0111821082138212821582148297
:104410006115710551F0FB0101900020E9F7AF0132
:1044200041505109461B570BCECF0895CF93DF93D0
:10443000EC016115710559F0FB0101900020E9F7CD
:10444000AF0141505109461B570BBDDF01C076DF5C
:10445000CE01DF91CF9108950F931F93CF93DF93F8
:10446000CDB7DEB729970FB6F894DEBF0FBECDBF2C
:104470008C01862FF801118210821382128215821C
:10448000148250E0BE016F5F7F4F90E001D3BE0108
:104490006F5F7F4FC801CADF29960FB6F894DEBF61
:1044A0000FBECDBFDF91CF911F910F9108950F9354
:1044B0001F93CF93DF93CDB7DEB761970FB6F89414
:1044C000DEBF0FBECDBF8C01CB01F801118210827F
:1044D000138212821582148250E0BE016F5F7F4FFB
:1044E000D7D2BE016F5F7F4FC801A0DF61960FB6C4
:1044F000F894DEBF0FBECDBFDF91CF911F910F911A
:104500000895EF92FF920F931F93CF93DF93EC01E7
:104510007B010C811D816115710511F480E014C0CF
:104520004115510581F0040F151FB80131DF8823B3
:10453000A9F3288139818C819D81B701820F931F56
:1045400091D21D830C8381E0DF91CF911F910F9158
:10455000FF90EF900895FB01448155816081718146
:10456000D0CF6115710551F0FB0101900020E9F7F2
:10457000AF0141505109461B570BC3CF80E008954E
:104580000895A1E21A2EAA1BBB1BFD010DC0AA1F94
:10459000BB1FEE1FFF1FA217B307E407F50720F0AC
:1045A000A21BB30BE40BF50B661F771F881F991F27
:1045B0001A9469F760957095809590959B01AC0170
:1045C000BD01CF010895EE0FFF1F0590F491E02D7E
:1045D0001994A29FB001B39FC001A39F700D811DCC
:1045E0001124911DB29F700D811D1124911D0895FC
:1045F000F0DFA59F900DB49F900DA49F800D911D9D
:10460000112408950790F691E02D1994CF93DF932C
:104610008230910510F482E090E0E091E807F0919B
:10462000E90720E030E0A0E0B0E0309739F14081C8
:10463000518148175907B8F04817590771F482811A
:104640009381109729F013969C938E9312972CC008
:104650009093E9078093E80727C02115310531F0D1
:104660004217530718F0A901DB0101C0EF019A01BD
:10467000BD01DF010280F381E02DD7CF2115310587
:10468000F9F0281B390B2430310580F48A819B8195
:104690006115710521F0FB019383828304C090931F
:1046A000E9078093E807FE01329644C0FE01E20F5D
:1046B000F31F8193919322503109398328833AC0A3
:1046C0002091E6073091E707232B41F42091020265
:1046D000309103023093E7072093E6072091000210
:1046E000309101022115310541F42DB73EB74091BB
:1046F000040250910502241B350BE091E607F0916E
:10470000E707E217F307A0F42E1B3F0B2817390722
:1047100078F0AC014E5F5F4F2417350748F04E0F1D
:104720005F1F5093E7074093E6078193919302C080
:10473000E0E0F0E0CF01DF91CF910895CF93DF93D8
:10474000009709F487C0FC01329713821282C0914E
:10475000E807D091E907209781F420813181280F63
:10476000391F8091E6079091E7078217930779F543
:10477000F093E707E093E6076DC0DE0120E030E04C
:10478000AE17BF0750F412964D915C9113979D019F
:104790004115510509F1DA01F3CFB383A2834081BA
:1047A0005181840F951F8A179B0771F48D919C91FD
:1047B0001197840F951F02969183808312968D9195
:1047C0009C911397938382832115310529F4F093EB
:1047D000E907E093E8073EC0D9011396FC93EE93F6
:1047E00012974D915D91A40FB51FEA17FB0779F45D
:1047F00080819181840F951F0296D90111969C9317
:104800008E938281938113969C938E931297E0E00E
:10481000F0E08A819B81009719F0FE01EC01F9CF4D
:10482000CE01029628813981820F931F2091E607DD
:104830003091E7072817390769F4309729F4109267
:10484000E9071092E80702C013821282D093E707AB
:10485000C093E607DF91CF9108956F927F928F9278
:104860009F92AF92BF92CF92DF92EF92FF920F93FF
:104870001F93CF93DF93EC01CB01209779F4DF9165
:10488000CF911F910F91FF90EF90DF90CF90BF904D
:10489000AF909F908F907F906F90B8CEFE01E60F03
:1048A000F71F9E0122503109E217F30708F4A8C050
:1048B000D9010D911C91119706171707B0F005301B
:1048C000110508F49BC0A801445051094617570729
:1048D00008F494C002501109061B170B01931193A1
:1048E0006D937C93CF012ADF89C05B01A01AB10AC6
:1048F0004E01800E911EA091E807B091E907612C4E
:10490000712C60E070E0109709F449C0A815B90552
:10491000C9F5ED90FC901197670142E0C40ED11CDF
:10492000CA14DB0478F147018A189B08640142E04D
:10493000C40ED11C1296BC9012971396AC91B5E0A0
:10494000CB16D10440F0B282A38391828082D90138
:104950008D939C9309C00E5F1F4F0E0D1F1DF90113
:1049600011830083EB2DFA2F6115710531F0DB0106
:104970001396FC93EE93129741C0F093E907E093EE
:10498000E8073CC06D917C9111976616770608F494
:104990003B01BD0112960D90BC91A02DB4CF60914A
:1049A000E6077091E70768157905E9F46816790656
:1049B000D0F440910002509101024115510541F49B
:1049C0004DB75EB76091040270910502461B570B0C
:1049D000E417F507A8F4F093E707E093E607F90179
:1049E000918380830BC012DE7C01009749F0A801FF
:1049F000BE0124D0CE01A2DEC70104C0CE0102C098
:104A000080E090E0DF91CF911F910F91FF90EF90A8
:104A1000DF90CF90BF90AF909F908F907F906F90DE
:104A20000895FB01DC0104C08D910190801921F4EF
:104A300041505040C8F7881B990B0895FB01DC01D9
:104A400002C001900D9241505040D8F70895FC01EA
:104A50008191861721F08823D9F7992708953197F6
:104A6000CF010895FB01DC0101900D920020E1F7D8
:104A70000895FB01DC014150504048F001900D9237
:104A80000020C9F701C01D9241505040E0F7089541
:104A90004532510518F4423008F004C0FB01108281
:104AA000CB010895BB27FB015527AA27880F991F23
:104AB000AA1FA41710F0A41B83955051B9F7A05D4D
:104AC000AA3308F0A95DA193009779F7B111B193CA
:104AD0001192CB0100C0DC01FC01672F719177239B
:104AE000E1F7329704C07C916D9370836291AE17A9
:104AF000BF07C8F3089512E0C6E5D2E000E005C0A4
:104B000022970109FE010BBF7DDDC835D10780E08A
:084B10000807B1F7F894FFCF8C
:104B18000000EA07800001010101010101314E6F27
:104B28006465000000324E6F6465000000FFFFFFFF
:104B3800FF2F0030002D003A004C4F472E74787438
:104B48000020434152542053544152544544005488
:104B580041534B532E7478740000000000AA037E62
:104B68000353035B036E037D0300000000A009B636
:104B780009940AEF09F809D1090000000035173B2C
:104B88002100000000671E3B21BE1DD71DC91D4620
:104B98001E0D0A006E616E00696E66006F76660013
:024BA8002E00DD
:00000001FF
