:100000000C946E000C9496000C9496000C94960040
:100010000C9496000C9496000C9496000C94960008
:100020000C9496000C9496000C9496000C949600F8
:100030000C9496000C9496000C9496000C949600E8
:100040000C94E4070C9496000C94800A0C94B20A69
:100050000C9496000C9496000C9496000C949600C8
:100060000C9496000C9496007A01810188018F010E
:100070009601AD019D01AD01A4011D0221022502E1
:1000800029022D02310235020000000800020100A1
:100090000003040700000000000000000102040843
:1000A00010204080010204081020010204081020E2
:1000B000040404040404040402020202020203030E
:1000C0000303030300000000250028002B000000AC
:1000D0000000240027002A001401E20A11241FBE98
:1000E000CFEFD8E0DEBFCDBF11E0A0E0B1E0E2ECA1
:1000F000FEE102C005900D92AA3BB107D9F722E0BC
:10010000AAEBB1E001C01D92AD3AB207E1F710E0F1
:10011000CCEDD0E004C02297FE010E945B0FC83DE9
:10012000D107C9F70E94260B0C945F0F0C940000B6
:100130000F931F93CF93DF9300910102109102025E
:10014000D0910302C091040280910002813651F4E3
:1001500081E08093FE0166E071E080E192E00E9420
:10016000800B4FC0823639F41092FE018AEB91E089
:100170000E94810746C0833671F4B8018D2F9C2FF1
:100180000E94AA0DAB01BC018AEB91E00E94FD0622
:100190006CE171E00FC08436D9F4B8018D2F9C2F2B
:1001A0000E94AA0DAB01BC018AEB91E00E9474068B
:1001B0006EE271E080E192E00E94730B2AE030E091
:1001C000A8016D2F7C2F80E192E00E94430C19C0A2
:1001D000853671F4B8018D2F9C2F0E94AA0DAB01BA
:1001E000BC018AEB91E00E94D90667E471E0E2CF9E
:1001F000863639F420E041E061E08AEB91E00E942C
:100200007C0763E671E080E192E0DF91CF911F917E
:100210000F910C94800B26E040E052EC61E070E01E
:1002200080E192E00C941E0ACF92EF920F93CC24BF
:10023000C39485E0E82E04E025E044E061E08AEB29
:1002400091E00E9408060F91EF90CF900895CF9310
:10025000DF9380E192E00E943B091816190604F52D
:1002600048E050E06FEF71E080E192E00E94830C83
:1002700066E771E080E192E00E94800BCFEFD1E071
:100280006991772767FD70954AE050E080E192E040
:100290000E942B0C82E0C730D80791F70E9498008B
:1002A0008091FE018823A9F080E192E00E943B0941
:1002B0001816190674F048EC50E060E070E08AEB24
:1002C00091E00E9483058AEB91E0DF91CF910C943D
:1002D0009103DF91CF9108950F931F93DC01129644
:1002E0000C9110E009301105C0F5F801EC5CFF4FEE
:1002F0000C94590FDC01ED91FC910084F185E02D07
:1003000029C0DC01ED91FC910284F385E02D22C02F
:10031000DC01ED91FC910484F585E02D1BC0DC012E
:10032000ED91FC910684F785E02D14C0DC01ED9180
:10033000FC910088F189E02D0DC0DC01ED91FC916C
:100340000288F389E02D06C0DC01ED91FC91048860
:10035000F589E02D1F910F9109941F910F91089538
:10036000CF93DF93EC01CB01BA0126E030E040E00F
:1003700050E00E943A0F623071058105910559F1F4
:100380008CF46115710581059105F1F061307105FD
:1003900081059105C1F5E881F9810480F581E02DA1
:1003A00065E02DC0643071058105910511F1D4F02F
:1003B000653071058105910531F5E881F981048089
:1003C000F581E02D66E01BC0E881F9810480F581AC
:1003D000E02D64E014C0E881F9810480F581E02D0E
:1003E00061E00DC0E881F9810480F581E02D63E0D2
:1003F00006C0E881F9810480F581E02D62E0CE013C
:10040000DF91CF910994DF91CF910895CF93DF933E
:10041000477055276627772741505109DC01CD9158
:10042000DC914730510528F4435C5F4FFA010C948E
:10043000590FEC81FD8161E01BC0EC81FD8165E01D
:1004400017C0EC81FD8164E013C0EC81FD8166E0A2
:100450000FC0EC81FD8162E00BC0EC81FD816AE0A0
:1004600007C0EC81FD8168E003C0EC81FD8169E09B
:10047000DF91CF910994AF92BF92DF92EF92FF92FA
:100480000F931F93CF93DF931F92CDB7DEB78C01ED
:10049000FC018281843041F0883031F0833031F0CA
:1004A000863021F022E003C024E001C023E0A12C2B
:1004B000B12CE62EF12CDD24D394F801EA0DFB1DBE
:1004C000C7010A2C02C0959587950A94E2F76781C7
:1004D00080FD6D25838129830E940509FFEFAF1AF6
:1004E000BF0A2981A21648F30F90DF91CF911F9187
:1004F0000F91FF90EF90DF90BF90AF9008950F9312
:100500001F93CF93DF93EC01E881F9810480F5819B
:10051000E02D8C010D5B1F4FD8018C91882311F0C9
:1005200062E001C060E0CE010995E881F9810480B4
:10053000F581E02DD8018C91882311F063E001C092
:1005400061E0CE0109958BA59CA50E945D08E8811C
:10055000F9810480F581E02DD8018C91882311F078
:1005600062E001C060E0CE01DF91CF911F910F9159
:100570000994CF93DF93EC0120E030E0A9016B896F
:100580007C898D899E890E945A0E18161CF4EFA54D
:10059000F8A902C0E9A9FAA9DF91CF9109944370A3
:1005A000552766277727DC01ED91FC910480F581C2
:1005B000E02D423051056105710571F04330510560
:1005C0006105710559F0413051056105710511F062
:1005D00062E005C063E003C061E001C060E009942F
:1005E000CF93DF93EC01CB01BA0123E030E040E090
:1005F00050E00E943A0F613071058105910581F04C
:10060000623071058105910591F0672B682B692B8C
:10061000C1F4E881F9810480F581E02D64E00DC02A
:10062000E881F9810480F581E02D61E006C0E88170
:10063000F9810480F581E02D62E0CE01DF91CF9158
:100640000994DF91CF910895437055276627772746
:10065000DC01ED91FC910480F581E02D42305105E3
:100660006105710571F0433051056105710559F05F
:10067000413051056105710511F065E005C066E086
:1006800003C06AE001C069E00994CF93DF93EC01F5
:100690008A81882381F0E881F9810480F581E02D49
:1006A00060E0CE0109958EA58F3F29F06DA5DF9101
:1006B000CF910C940509DF91CF910895CF93DF93EB
:1006C000EC018A81882351F161E08B810E94CC0882
:1006D00061E08C810E94CC088A81843011F08830DE
:1006E00039F461E08D810E94CC0861E08E8106C002
:1006F000833011F0863021F461E08D810E94CC08B6
:100700008EA58F3F59F061E00E94CC086DA581E075
:1007100068278EA5DF91CF910C940509DF91CF91C9
:100720000895CF92DF92EF92FF920F931F93CF9392
:10073000DF93EC014BA15CA16DA17EA1452B462B63
:10074000472B09F44DC00E943A086B017C010FA1B0
:1007500018A529A53AA54BA15CA16DA17EA1400FCA
:10076000511F621F731F401751076207730730F054
:10077000C416D506E606F70658F405C0C416D50615
:10078000E606F70668F1C016D106E206F30640F564
:10079000FE01ED5BFF4F80814B855C856D857E851D
:1007A000882329F04F5F5F4F6F4F7F4F04C0415048
:1007B0005109610971094B875C876D877E87E881E4
:1007C000F9814B855C856D857E850680F781E02DFE
:1007D000CE010995CFA2D8A6E9A6FAA681E001C06C
:1007E00080E0DF91CF911F910F91FF90EF90DF900C
:1007F000CF9008952F923F924F925F926F927F9287
:100800008F929F92AF92BF92CF92DF92EF92FF9220
:100810000F931F93CF93DF9300D000D0CDB7DEB7F7
:100820001C01FC0187849088A188B2888385948507
:10083000A585B685881A990AAA0ABB0A63897489AC
:10084000858996899B01AC010E945E0E6B017C013B
:10085000F101638D748D858D968D9B01AC010E9495
:10086000A70C9B01AC01C701B6010E940F0D0E94AD
:10087000770D81149104A104B104A1F462307105D3
:10088000810591050CF07CC0F10113A214A215A200
:1008900016A2138A148A158A168A13AA14AA15AAEC
:1008A00016AA03C1F10103A914A925A936A9ED5B74
:1008B000FF4F181419041A041B04FCF41016110637
:1008C000120613064CF4681579058A059B054CF54C
:1008D0002081211155C025C00115110521053105C3
:1008E00009F44EC0681579058A059B050CF048C0CF
:1008F0008081882309F444C037C0101611061206FF
:100900001306F4F4002711279801081919092A0978
:100910003B0960177107820793071CF4208122238B
:1009200079F19B01AC0188279927DC01821B930B8D
:10093000A40BB50BF10183AB94ABA5ABB6AB20C058
:100940000115110521053105D9F0CC24DD247601EE
:10095000C818D908EA08FB086C157D058E059F05A7
:100960007CF4808181110CC0309520951095019503
:100970001F4F2F4F3F4FF10103AB14AB25AB36ABED
:10098000F101C3A8D4A8E5A8F6A881010D5B1F4F0B
:10099000C114D104E104F10491F487A990ADA1AD93
:1009A000B2AD83AF94AFA5AFB6AF81E01814190410
:1009B0001A041B040CF080E0F801808340C0F101B0
:1009C00083AC94ACA5ACB6ACA5019401C501B4014F
:1009D0000E94A70C2B013C01C701B6010E94AA0D81
:1009E00020E030E040E850E40E945E0E20E030E07D
:1009F00040E85FE30E94A70C9B01AC01C301B20178
:100A00000E940F0D9B01AC01C501B4010E94A60C10
:100A10002B013C01F101FF9680809180A280B38080
:100A20009401A5010E945A0E181614F442015301B4
:100A3000C401D501F10183AF94AFA5AFB6AFFFEF0D
:100A4000CF1ADF0AEF0AFF0AF101C3AAD4AAE5AA66
:100A5000F6AA23AD34AD45AD56ADCA01B90129831F
:100A60003A834B835C830E947C0DF10163A374A3E2
:100A700085A396A329813A814B815C8160E074E271
:100A800084E799E40E940F0DF101638B748B858BD1
:100A9000968BF8012081211108C0DC01CB01B058F0
:100AA000F101838B948BA58BB68B0F900F900F90D9
:100AB0000F90DF91CF911F910F91FF90EF90DF90FA
:100AC000CF90BF90AF909F908F907F906F905F90EE
:100AD0004F903F902F9008950F931F93FC0107852F
:100AE000108921893289041715072607370741F035
:100AF0004787508B618B728B1F910F910C94FA0377
:100B00001F910F9108950F931F93FC010385148586
:100B100025853685400F511F621F731F1F910F914E
:100B20000C946C054F925F926F927F928F929F927E
:100B3000AF92BF92CF92DF92EF92FF92CF93DF936B
:100B4000EC016A017B018B8C9C8CAD8CBE8C9A0174
:100B5000AB01C501B4010E940B0D882309F449C003
:100B60006BA97CA98DA99EA90E94AA0D2B013C010D
:100B7000A7019601C501B4010E940F0D9B01AC01B4
:100B8000C301B2010E945E0E0E94770D6BAB7CAB7D
:100B90008DAB9EABA701960160E070E080E090E431
:100BA0000E940F0D0E94C50E26E53EE04DE25FE378
:100BB0000E945E0E20E034E244E759E40E945E0E9B
:100BC0006FAB78AF89AF9AAFCB8EDC8EED8EFE8E99
:100BD000CE01DF91CF91FF90EF90DF90CF90BF904B
:100BE000AF909F908F907F906F905F904F900C94FC
:100BF000FA03DF91CF91FF90EF90DF90CF90BF90FD
:100C0000AF909F908F907F906F905F904F900895DE
:100C10008F929F92AF92BF92CF92EF920F93CF930A
:100C2000DF93EC0183E891E0998388836A831B86D4
:100C30001C861D861E861F86188A198A1A8A1B8A98
:100C40001C8A1D8A1E8A812C912C80E8A82E8FE395
:100C5000B82E8F8A988EA98EBA8E1B8E1C8E1D8EF2
:100C60001E8E8F8E98A2A9A2BAA21BA21CA21DA2A0
:100C70001EA281E090E09CA78BA78FEF8EA71FA2FA
:100C800018A619A61AA64B832C830D83EE821BAAE5
:100C90001CAA1DAA1EAA1FAA18AE19AE1AAE1BAE18
:100CA0001CAE1DAE1EAEFE01FF9680829182A28216
:100CB000B382349610821F82188619861A86CC2039
:100CC00019F0CE010E945E0340E050E060E87FE34F
:100CD000CE01DF91CF910F91EF90CF90BF90AF9069
:100CE0009F908F900C949205CF92DF92EF92FF929B
:100CF0000F931F93CF93DF93EC016A017B019A015D
:100D0000AB016F89788D898D9A8D0E940B0D882398
:100D100009F446C0CF8AD88EE98EFA8E8E01015C26
:100D20001F4FA701960160E074E284E799E40E94F6
:100D30000F0DF80160837183828393838BA99CA933
:100D4000ADA9BEA9181619061A061B064CF56B8923
:100D50007C898D899E899B01AC010E945E0E6B018E
:100D60007C016B8D7C8D8D8D9E8D9B01AC010E94D5
:100D7000A70C9B01AC01C701B6010E940F0D0E9498
:100D8000770D6BAB7CAB8DAB9EABCE01DF91CF9182
:100D90001F910F91FF90EF90DF90CF900C94FA038A
:100DA000DF91CF911F910F91FF90EF90DF90CF9047
:100DB0000895CF92DF92EF92FF92CF93DF93EC01F1
:100DC0006A017B0120E030E0A901C701B6010E9461
:100DD0000B0D882359F0B701A601CE01DF91CF9109
:100DE000FF90EF90DF90CF900C949205DF91CF9120
:100DF000FF90EF90DF90CF9008956F927F928F9247
:100E00009F92AF92BF92CF92DF92EF92FF920F9399
:100E10001F93CF93DF93EC013A018B012B893C891F
:100E20004D895E89B301C8010E940B0D882309F426
:100E300054C0CF88D88CE98CFA8C46015701B7FA98
:100E4000B094B7F8B094A5019401B301C8010E9411
:100E50000B0D87FD0BC0A7019601B301C8010E94CD
:100E60005A0E18162CF43601870102C03401850190
:100E700020E030E0A901B301C8010E940B0D8111EF
:100E800005C01BA21CA21DA21EA221C09301A80185
:100E900060E074E284E799E40E940F0D9F770E945E
:100EA0007C0D6BA37CA38DA39EA37E0183E4E80E3F
:100EB000F11CDD24D39420E030E0A901B301C80186
:100EC0000E945A0E18160CF0D12CF701D082C301E3
:100ED000D8018B8B9C8BAD8BBE8BDF91CF911F91FB
:100EE0000F91FF90EF90DF90CF90BF90AF909F90C9
:100EF0008F907F906F900895FC014783608725A7AE
:100F000008958F929F92AF92BF92CF92DF92EF920D
:100F1000FF92CF93DF93EC018B889C88AD88BE88CD
:100F200020E030E0A901C501B4010E940B0D882327
:100F300009F43FC0A5019401C501B4010E945E0EF1
:100F40006B017C016B8D7C8D8D8D9E8D9B01AC0129
:100F50000E94A70C9B01AC01C701B6010E940F0DB6
:100F60000E94770D6B017C018FEFC81AD80AE80A3E
:100F7000F80A20E030E0A901C501B4010E945A0E30
:100F800018161CF4B701A60107C044275527BA015B
:100F90004C195D096E097F09CE01DF91CF91FF9059
:100FA000EF90DF90CF90BF90AF909F908F900C9478
:100FB0008305DF91CF91FF90EF90DF90CF90BF90AE
:100FC000AF909F908F9008951F920F920FB60F923F
:100FD00011242F933F938F939F93AF93BF9380914F
:100FE000080290910902A0910A02B0910B0230917F
:100FF000070223E0230F2D3720F40196A11DB11D18
:1010000005C026E8230F0296A11DB11D20930702FB
:101010008093080290930902A0930A02B0930B02F6
:1010200080910C0290910D02A0910E02B0910F02DE
:101030000196A11DB11D80930C0290930D02A09307
:101040000E02B0930F02BF91AF919F918F913F918C
:101050002F910F900FBE0F901F9018952FB7F894F7
:10106000609108027091090280910A0290910B022E
:101070002FBF08953FB7F89480910C0290910D0214
:10108000A0910E02B0910F0226B5A89B05C02F3F7C
:1010900019F00196A11DB11D3FBF6627782F892F3A
:1010A0009A2F620F711D811D911D42E0660F771FFF
:1010B000881F991F4A95D1F708958230910538F01D
:1010C000880F991F880F991F05970197F1F70895C9
:1010D000789484B5826084BD84B5816084BD85B513
:1010E000826085BD85B5816085BDEEE6F0E08081DA
:1010F00081608083E1E8F0E01082808182608083FB
:10110000808181608083E0E8F0E08081816080837D
:10111000E1EBF0E0808184608083E0EBF0E08081AF
:1011200081608083EAE7F0E0808184608083808151
:1011300082608083808181608083808180688083F9
:101140001092C1000895833081F028F4813099F025
:101150008230A1F008958730A9F08830B9F084304A
:10116000D1F4809180008F7D03C0809180008F77C3
:1011700080938000089584B58F7702C084B58F7DF9
:1011800084BD08958091B0008F7703C08091B00036
:101190008F7D8093B0000895CF93DF9390E0FC01A2
:1011A000E456FF4F2491FC01E055FF4F84918823C2
:1011B00049F190E0880F991FFC01E253FF4FA59180
:1011C000B4918C539F4FFC01C591D4919FB761118D
:1011D00008C0F8948C91209582238C938881822377
:1011E0000AC0623051F4F8948C91322F30958323E9
:1011F0008C938881822B888304C0F8948C91822BF5
:101200008C939FBFDF91CF9108950F931F93CF933E
:10121000DF931F92CDB7DEB7282F30E0F901E857F2
:10122000FF4F8491F901E456FF4F1491F901E05505
:10123000FF4F04910023C9F0882321F069830E94A5
:10124000A3086981E02FF0E0EE0FFF1FEC53FF4F82
:10125000A591B4919FB7F8948C91611103C010953A
:10126000812301C0812B8C939FBF0F90DF91CF9181
:101270001F910F910895FC01818D228D90E0805C7B
:101280009F4F821B91098F7399270895FC01918DBF
:10129000828D981731F0828DE80FF11D858D90E0D9
:1012A00008958FEF9FEF0895FC01918D828D98171F
:1012B00061F0828DDF01A80FB11D5D968C91928D3A
:1012C0009F5F9F73928F90E008958FEF9FEF089537
:1012D00088ED9AE0892B49F080E090E0892B29F095
:1012E0000E94D80A81110C9400000895FC01848D9D
:1012F000DF01A80FB11DA35ABF4F2C91848D90E040
:1013000001968F739927848FA689B7892C93A0891A
:10131000B1898C9180648C93938D848D981306C0D1
:101320000288F389E02D80818F7D80830895CF939B
:10133000DF93EC01888D8823C9F0EA89FB898081DD
:1013400085FD05C0A889B9898C9186FD0FC00FB6AF
:1013500007FCF5CF808185FFF2CFA889B9898C91F0
:1013600085FFEDCFCE010E947609E7CFDF91CF91C7
:101370000895CF92DF92FF920F931F93CF93DF9345
:101380001F92CDB7DEB76C0181E0D60158968C93E1
:1013900058975B969C915B975C968C915C979813A1
:1013A00007C05096ED91FC915197808185FD2EC02C
:1013B000F601038D10E00F5F1F4F0F731127F02E02
:1013C000F601848DF81211C00FB607FCF9CFD601D3
:1013D0005096ED91FC915197808185FFF1CFC60128
:1013E00069830E9476096981EBCF838DE80FF11D37
:1013F000E35AFF4F6083D6015B960C935B9752963E
:10140000ED91FC915397808180620CC0D601569675
:10141000ED91FC91579760835096ED91FC91519717
:1014200080818064808381E090E00F90DF91CF9194
:101430001F910F91FF90DF90CF900895BF92CF92B0
:10144000DF92EF92FF92CF93DF93EC016A017B0171
:10145000B22EE889F98982E08083411581EE580730
:1014600061057105A1F060E079E08DE390E0A701EE
:1014700096010E94180F21503109410951095695D2
:10148000479537952795211580E1380798F0E88929
:10149000F989108260E874E88EE190E0A701960176
:1014A0000E94180F2150310941095109569547955D
:1014B00037952795EC85FD853083EE85FF85208364
:1014C000188EEC89FD89B082EA89FB898081806170
:1014D0008083EA89FB89808188608083EA89FB892F
:1014E000808180688083EA89FB8980818F7D808309
:1014F000DF91CF91FF90EF90DF90CF90BF90089554
:101500001F920F920FB60F9211242F938F939F93D8
:10151000EF93FF93E0912002F09121028081E0910E
:101520002602F091270282FD12C09081809129024B
:101530008F5F8F7320912A02821751F0E091290268
:10154000F0E0E05FFD4F958F8093290201C080811C
:10155000FF91EF919F918F912F910F900FBE0F9060
:101560001F9018951F920F920FB60F9211242F9370
:101570003F934F935F936F937F938F939F93AF931B
:10158000BF93EF93FF9380E192E00E947609FF9171
:10159000EF91BF91AF919F918F917F916F915F91EB
:1015A0004F913F912F910F900FBE0F901F90189564
:1015B00080E192E00E943B0921E0892B09F420E0C0
:1015C000822F0895109213021092120288EE93E077
:1015D000A0E0B0E08093140290931502A09316024D
:1015E000B09317028DE991E090931102809310025D
:1015F00085EC90E090931D0280931C0284EC90E0B7
:1016000090931F0280931E0280EC90E09093210241
:101610008093200281EC90E0909323028093220239
:1016200082EC90E0909325028093240286EC90E077
:1016300090932702809326021092290210922A0288
:1016400010922B0210922C02089508950E946808AF
:101650000E94250B0E940B01C8E6D9E00E942701D9
:101660002097E1F30E946809F9CFCF92DF92EF92C1
:10167000FF920F931F93CF93DF937C016A01EB01DD
:1016800000E010E00C151D0571F06991D701ED9196
:10169000FC910190F081E02DC7010995892B19F08B
:1016A0000F5F1F4FEFCFC801DF91CF911F910F91B7
:1016B000FF90EF90DF90CF9008956115710581F054
:1016C000DB010D900020E9F7AD0141505109461BA7
:1016D000570BDC01ED91FC910280F381E02D099420
:1016E00080E090E008950C945D0BDC01ED91FC919D
:1016F0000190F081E02D099469EA71E00C945D0B92
:101700000F931F93CF93DF93EC010E945D0B8C012D
:10171000CE010E947C0B800F911FDF91CF911F9112
:101720000F9108958F929F92AF92BF92DF92EF92A6
:10173000FF920F931F93CF93DF93CDB7DEB7A1979F
:101740000FB6F894DEBF0FBECDBF7C01F42FD52EAF
:10175000CB0119A2223008F42AE08E010F5D1F4F41
:10176000822E912CA12CB12C6F2F7D2DA5019401DF
:101770000E94180FF22FD32ECA01015011096A30AE
:1017800014F4E0E301C0E7E3E60FD801EC93232B68
:10179000242B252B49F7B801C7010E945D0BA196A8
:1017A0000FB6F894DEBF0FBECDBFDF91CF911F9172
:1017B0000F91FF90EF90DF90BF90AF909F908F9030
:1017C0000895CF92DF92EF92FF920F931F93CF93E2
:1017D000DF93EC016A017B012115310579F4E88181
:1017E000F9810190F081E02D642FDF91CF911F915D
:1017F0000F91FF90EF90DF90CF9009942A30310540
:10180000E9F477FF1AC06DE20E94750B8C01442742
:101810005527BA014C195D096E097F092AE0CE01EE
:101820000E94920B800F911FDF91CF911F910F911A
:10183000FF90EF90DF90CF9008952AE0B701A601C6
:10184000CE01DF91CF911F910F91FF90EF90DF902C
:10185000CF900C94920B0F931F93CF93DF93EC01D7
:101860009A01AB01662757FD6095762F0E94E10B28
:101870008C01CE010E947C0B800F911FDF91CF91D4
:101880001F910F9108950F931F93CF93DF93EC0156
:101890000E94E10B8C01CE010E947C0B800F911FF6
:1018A000DF91CF911F910F9108950F931F93CF93C5
:1018B000DF93EC010E942E08688779878A879B87CF
:1018C000E881F9810680F781E02DCE01099597FF27
:1018D00015C00E942E08088519852A853B85601B46
:1018E000710B820B930B0C811D812E813F81601740
:1018F00071078207930720F38FEF9FEFDF91CF915E
:101900001F910F910895CF92DF92EF92FF920F9364
:101910001F93CF93DF937C016A01EB0100E010E09D
:101920000C151D0549F0C7010E94550C97FD04C018
:1019300089930F5F1F4FF4CFC801DF91CF911F91A3
:101940000F91FF90EF90DF90CF9008955058BB27F4
:10195000AA270ED075C166D130F06BD120F031F4DA
:101960009F3F11F41EF45BC10EF4E095E7FB51C1FB
:10197000E92F77D180F3BA176207730784079507B9
:1019800018F071F49EF58FC10EF4E0950B2EBA2F6E
:10199000A02D0B01B90190010C01CA01A001112475
:1019A000FF27591B99F0593F50F4503E68F11A1621
:1019B000F040A22F232F342F4427585FF3CF4695B2
:1019C00037952795A795F0405395C9F77EF41F16D4
:1019D000BA0B620B730B840BBAF09150A1F0FF0F9E
:1019E000BB1F661F771F881FC2F70EC0BA0F621F8A
:1019F000731F841F48F4879577956795B795F7957A
:101A00009E3F08F0B3CF9395880F08F09927EE0F0B
:101A1000979587950895D9D008F481E008950CD062
:101A20000FC107D140F0FED030F021F45F3F19F034
:101A3000F0C0511139C1F3C014D198F39923C9F3FF
:101A40005523B1F3951B550BBB27AA2762177307C4
:101A5000840738F09F5F5F4F220F331F441FAA1F78
:101A6000A9F333D00E2E3AF0E0E830D09150504038
:101A7000E695001CCAF729D0FE2F27D0660F771FE6
:101A8000881FBB1F261737074807AB07B0E809F0C8
:101A9000BB0B802DBF01FF2793585F4F2AF09E3F5D
:101AA000510568F0B6C000C15F3FECF3983EDCF32F
:101AB000869577956795B795F7959F5FC9F7880FD6
:101AC000911D9695879597F90895E1E0660F771F28
:101AD000881FBB1F621773078407BA0720F0621BB9
:101AE000730B840BBA0BEE1F88F7E095089504D0B2
:101AF0006894B111D9C00895BCD088F09F5790F078
:101B0000B92F9927B751A0F0D1F0660F771F881F22
:101B1000991F1AF0BA95C9F712C0B13081F0C3D03D
:101B2000B1E00895C0C0672F782F8827B85F39F0DB
:101B3000B93FCCF3869577956795B395D9F73EF481
:101B400090958095709561957F4F8F4F9F4F089529
:101B5000E89409C097FB3EF4909580957095619547
:101B60007F4F8F4F9F4F9923A9F0F92F96E9BB27FD
:101B70009395F695879577956795B795F111F8CF79
:101B8000FAF4BB0F11F460FF1BC06F5F7F4F8F4FE4
:101B90009F4F16C0882311F096E911C0772321F0DA
:101BA0009EE8872F762F05C0662371F096E8862F72
:101BB00070E060E02AF09A95660F771F881FDAF7C9
:101BC000880F9695879597F90895990F0008550FF6
:101BD000AA0BE0E8FEEF16161706E807F907C0F0B3
:101BE00012161306E407F50798F0621B730B840BBB
:101BF000950B39F40A2661F0232B242B252B21F495
:101C000008950A2609F4A140A6958FEF811D811D34
:101C1000089597F99F6780E870E060E008959FEF6E
:101C200080EC089500240A94161617061806090673
:101C3000089500240A941216130614060506089542
:101C4000092E0394000C11F4882352F0BB0F40F4CA
:101C5000BF2B11F460FF04C06F5F7F4F8F4F9F4F0A
:101C6000089557FD9058440F551F59F05F3F71F08C
:101C70004795880F97FB991F61F09F3F79F08795F3
:101C80000895121613061406551FF2CF4695F1DF7C
:101C900008C0161617061806991FF1CF869571050C
:101CA000610508940895E894BB2766277727CB0140
:101CB00097F908958ADF08F48FEF08950BD0C0CF0D
:101CC000B1DF28F0B6DF18F0952309F0A2CFA7CF37
:101CD0001124EACFC6DFA0F3959FD1F3950F50E012
:101CE000551F629FF001729FBB27F00DB11D639FCE
:101CF000AA27F00DB11DAA1F649F6627B00DA11D74
:101D0000661F829F2227B00DA11D621F739FB00D19
:101D1000A11D621F839FA00D611D221F749F332789
:101D2000A00D611D231F849F600D211D822F762F22
:101D30006A2F11249F5750408AF0E1F088234AF01F
:101D4000EE0FFF1FBB1F661F771F881F915050406B
:101D5000A9F79E3F510570F05CCFA6CF5F3FECF333
:101D6000983EDCF3869577956795B795F795E79557
:101D70009F5FC1F7FE2B880F911D9695879597F968
:101D8000089511F40EF44BCF3EC073DFD0F39923C6
:101D9000D9F3CEF39F57550B87FF43D00024A0E61D
:101DA00040EA900180585695979528F4805C660F1C
:101DB000771F881F20F026173707480730F4621B6B
:101DC000730B840B202931294A2BA695179407946D
:101DD000202531254A2758F7660F771F881F20F0E6
:101DE00026173707480730F4620B730B840B200D5E
:101DF000311D411DA09581F7B901842F9158880F9D
:101E00009695879508959F3F31F0915020F48795DE
:101E100077956795B795880F911D9695879597F952
:101E2000089591505040660F771F881FD2F708958C
:101E3000A1E21A2EAA1BBB1BFD010DC0AA1FBB1FCE
:101E4000EE1FFF1FA217B307E407F50720F0A21B40
:101E5000B30BE40BF50B661F771F881F991F1A94AD
:101E600069F760957095809590959B01AC01BD01D7
:101E7000CF010895052E97FB1EF400940E94510F88
:101E800057FD07D00E94180F07FC03D04EF40C94A6
:101E9000510F50954095309521953F4F4F4F5F4FD3
:101EA000089590958095709561957F4F8F4F9F4FC6
:101EB0000895EE0FFF1F0590F491E02D0994F8941A
:021EC000FFCF52
:101EC2000000AD0280004D6F746F72732061726505
:101ED20020676F6F6420746F20676F0049207365FD
:101EE20074207468652053706565643A2000492047
:101EF20073657420746865206D6178205370656520
:101F02006420746F3A2000492073657420746865F8
:101F120020416363656C65726174696F6E20746FD2
:101F22003A200065786974696E6720657865632078
:101F3200737461676500436F6D6D616E643A000092
:101F420000000045035E033B026C01B9027F02CF31
:101F520002F0022403B001060200000000B90935B4
:101F62000B3B095409460997090D0A006E616E0080
:0A1F7200696E66006F7666002E00AF
:00000001FF
