:1000000018C1000047C1000045C1000043C1000005
:1000100041C100003FC100003DC100003BC10000E4
:1000200039C1000037C1000035C1000033C10000F4
:1000300031C100002FC100002DC100002BC1000004
:1000400029C1000027C1000025C1000023C1000014
:1000500021C100001FC100001DC100000C944B090C
:1000600019C100000C94980C0C94CE0C13C1000024
:1000700011C100000FC100000DC100000BC1000044
:1000800009C1000007C1000005C1000003C1000054
:1000900001C10000FFC00000FDC00000FBC0000067
:1000A000F9C00000F7C00000F5C00000F3C0000078
:1000B000F1C00000EFC00000EDC00000EBC0000088
:1000C000E9C00000E7C00000E5C00000E3C0000098
:1000D000E1C00000DFC00000DDC00000DBC00000A8
:1000E000D9C000004902500257025E0265027C023C
:1000F0006C027C027302EC02F002F402F802FC02D1
:1001000000030403800A830A720A760A7C0ABA0A88
:10011000870A8B0A910A950A990A9F0AA30AA70AD5
:10012000BA0AAD0AB10AB50A00000A0B02090C0DA1
:100130000E0807030401000000000000000000009A
:1001400000000000000000000000000000000000AF
:10015000000000001211100000000000000000006C
:10016000000000000000000000000000000001028C
:1001700010202008081020401020408002010201B9
:100180000804020101020408102040808040201071
:1001900008040201800402018040201008040201CA
:1001A0000804020101020408102040800102040832
:1001B000102040800505050507050808080802020B
:1001C00002020A0A080804040404010101010101F1
:1001D00001010303030303030303040707070C0CD4
:1001E0000C0C0C0C0C0C020202020606060606069B
:1001F00006060B0B0B0B0B0B0B0B00002200250054
:1002000028002B002E0031003400020100000501FF
:1002100008010B0100002100240027002A002D0006
:100220003000330001010000040107010A01E70169
:10023000000D11241FBECFEFD1E2DEBFCDBF00E025
:100240000CBF13E0A0E0B2E0E0E0F3E200E00BBF9F
:1002500002C007900D92A232B107D9F724E0A2E2C2
:10026000B3E001C01D92AC34B207E1F712E0C2E383
:10027000D2E000E006C022970109FE010BBF0E94F8
:100280007A11CE32D10780E00807A9F70E94440D09
:100290000C947E11B5CE0F931F93CF93DF930091F3
:1002A000690310916A03D0916B03C0916C03809134
:1002B0006803813651F481E08093660366E072E062
:1002C0008FEA93E00E94990D4AC0823631F4109271
:1002D000660382E293E0C9D642C0833669F4B8016E
:1002E0008D2F9C2F0E94C80FAB01BC0182E293E0CE
:1002F0003DD66CE172E00EC08436D1F4B8018D2F8A
:100300009C2F0E94C80FAB01BC0182E293E0ACD5E8
:100310006EE272E08FEA93E00E948E0D2AE030E0F8
:10032000A8016D2F7C2F8FEA93E00E94530E17C017
:10033000853669F4B8018D2F9C2F0E94C80FAB0140
:10034000BC0182E293E0F0D567E472E0E3CF863649
:1003500031F420E041E061E082E293E081D663E69F
:1003600072E08FEA93E0DF91CF911F910F910C948F
:10037000990D40ED57E060E070E08FE693E0FAD62B
:1003800020E032EC41E050E06FEA73E08FE693E06A
:1003900003D78FE693E0ECD666E772E08091A00386
:1003A0009091A1030E948E0D6AE070E080E090E0E1
:1003B000EBD741E060E08FE693E053D726E040E0E2
:1003C00052EC61E070E08FEA93E00C94380CCF922D
:1003D000EF920F93CC24C39485E0E82E04E025E04F
:1003E00044E061E082E293E0D5D40F91EF90CF90AA
:1003F0000895CF93DF938FEA93E00E94290B18169C
:100400001906FCF448E050E067E673E08FEA93E0F9
:100410000E94A10E68E872E08FEA93E00E94990DB5
:10042000C7E6D3E06991772767FD70954AE050E011
:100430008FEA93E00E943D0E83E0CF36D80791F714
:100440002ADF80916603882399F08FEA93E00E9467
:10045000290B1816190664F048EC50E060E070E0D3
:1004600082E293E014D482E293E0DF91CF911FC245
:10047000DF91CF9108950F931F93DC0112960C9199
:1004800010E009301105C0F5F801EE58FF4F0C944B
:100490007411DC01ED91FC910084F185E02D29C0FF
:1004A000DC01ED91FC910284F385E02D22C0DC019A
:1004B000ED91FC910484F585E02D1BC0DC01ED91EC
:1004C000FC910684F785E02D14C0DC01ED91FC91D0
:1004D0000088F189E02D0DC0DC01ED91FC910288CE
:1004E000F389E02D06C0DC01ED91FC910488F589CB
:1004F000E02D1F910F9119941F910F910895CF93A3
:10050000DF93EC01CB01BA0126E030E040E050E09F
:100510000E945811623071058105910559F18CF4E2
:100520006115710581059105F1F061307105810555
:100530009105C1F5E881F9810480F581E02D65E040
:100540002DC0643071058105910511F1D4F065303D
:1005500071058105910531F5E881F9810480F58106
:10056000E02D66E01BC0E881F9810480F581E02D73
:1005700064E014C0E881F9810480F581E02D61E038
:100580000DC0E881F9810480F581E02D63E006C0AB
:10059000E881F9810480F581E02D62E0CE01DF91F0
:1005A000CF911994DF91CF910895CF93DF93477046
:1005B00055276627772741505109DC01CD91DC9101
:1005C0004730510528F445585F4FFA010C947411D7
:1005D000EC81FD8161E01BC0EC81FD8165E017C00D
:1005E000EC81FD8164E013C0EC81FD8166E00FC009
:1005F000EC81FD8162E00BC0EC81FD816AE007C007
:10060000EC81FD8168E003C0EC81FD8169E0DF9150
:10061000CF911994AF92BF92DF92EF92FF920F9316
:100620001F93CF93DF931F92CDB7DEB78C01FC01F0
:100630008281843041F0883031F0833031F086306F
:1006400021F022E003C024E001C023E0A12CB12C62
:10065000E62EF12CDD24D394F801EA0DFB1DC70131
:100660000A2C02C0959587950A94E2F7678180FD70
:100670006D2583812983B8D7FFEFAF1ABF0A29817F
:10068000A21650F30F90DF91CF911F910F91FF9021
:10069000EF90DF90BF90AF9008950F931F93CF938B
:1006A000DF93EC01E881F9810480F581E02D8C0174
:1006B0000D5B1F4FD8018C91882311F062E001C0BF
:1006C00060E0CE011995E881F9810480F581E02D83
:1006D000D8018C91882311F063E001C061E0CE0164
:1006E00019958BA59CA587D6E881F9810480F581B1
:1006F000E02DD8018C91882311F062E001C060E008
:10070000CE01DF91CF911F910F911994CF93DF9379
:10071000EC0120E030E0A9016B897C898D899E89FC
:100720000E94781018161CF4EFA5F8A902C0E9A9D8
:10073000FAA9DF91CF91199443705527662777273F
:10074000DC01ED91FC910480F581E02D42305105F2
:100750006105710571F0433051056105710559F06E
:10076000413051056105710511F062E005C063E09B
:1007700003C061E001C060E01994CF93DF93EC0106
:10078000CB01BA0123E030E040E050E00E94581174
:10079000613071058105910581F062307105810537
:1007A000910591F0672B682B692BC1F4E881F981E1
:1007B0000480F581E02D64E00DC0E881F9810480BA
:1007C000F581E02D61E006C0E881F9810480F581C2
:1007D000E02D62E0CE01DF91CF911994DF91CF91AE
:1007E00008954370552766277727DC01ED91FC912A
:1007F0000480F581E02D423051056105710571F0ED
:10080000433051056105710559F0413051056105CD
:10081000710511F065E005C066E003C06AE001C043
:1008200069E01994CF93DF93EC018A81882379F0F2
:10083000E881F9810480F581E02D60E0CE01199511
:100840008EA58F3F21F06DA5DF91CF91CDC6DF91B1
:10085000CF910895CF93DF93EC018A81882321F112
:1008600061E08B8188D661E08C8185D68A81843075
:1008700011F0883031F461E08D817DD661E08E81A8
:1008800006C0833011F0863019F461E08D8173D693
:100890008EA58F3F49F061E06ED66DA581E0682797
:1008A0008EA5DF91CF91A0C6DF91CF910895CF9211
:1008B000DF92EF92FF920F931F93CF93DF93EC01A0
:1008C0004BA15CA16DA17EA1452B462B472B09F4C2
:1008D0004CC037D56B017C010FA118A529A53AA5FD
:1008E0004BA15CA16DA17EA1400F511F621F731F20
:1008F000401751076207730730F0C416D506E606A5
:10090000F70658F405C0C416D506E606F70668F1E2
:10091000C016D106E206F30640F5FE01ED5BFF4F7F
:1009200080814B855C856D857E85882329F04F5FAE
:100930005F4F6F4F7F4F04C04150510961097109EA
:100940004B875C876D877E87E881F9814B855C8565
:100950006D857E850680F781E02DCE011995CFA2A9
:10096000D8A6E9A6FAA681E001C080E0DF91CF9188
:100970001F910F91FF90EF90DF90CF9008952F92ED
:100980003F924F925F926F927F928F929F92AF921F
:10099000BF92CF92DF92EF92FF920F931F93CF936C
:1009A000DF9300D01F92CDB7DEB71C01FC01878416
:1009B0009088A188B28883859485A585B685881A94
:1009C000990AAA0ABB0A63897489858996899B0159
:1009D000AC010E947C106B017C01F101638D748D70
:1009E000858D968D9B01AC010E94C50E9B01AC01CB
:1009F000C701B6010E942D0F0E94950F811491042A
:100A0000A104B104A1F462307105810591050CF0D7
:100A10007CC0F10113A214A215A216A2138A148A93
:100A2000158A168A13AA14AA15AA16AA03C1F101D7
:100A300003A914A925A936A9ED5BFF4F18141904C1
:100A40001A041B04FCF410161106120613064CF4CB
:100A5000681579058A059B054CF52081211155C043
:100A600025C0011511052105310509F44EC0681591
:100A700079058A059B050CF048C08081882309F41C
:100A800044C037C01016110612061306F4F40027EE
:100A900011279801081919092A093B0960177107DC
:100AA000820793071CF42081222379F19B01AC017A
:100AB00088279927DC01821B930BA40BB50BF1014E
:100AC00083AB94ABA5ABB6AB20C0011511052105D6
:100AD0003105D9F0CC24DD247601C818D908EA08FC
:100AE000FB086C157D058E059F057CF480818111C6
:100AF0000CC030952095109501951F4F2F4F3F4FFB
:100B0000F10103AB14AB25AB36ABF101C3A8D4A8FC
:100B1000E5A8F6A881010D5B1F4FC114D104E104C3
:100B2000F10491F487A990ADA1ADB2AD83AF94AFBC
:100B3000A5AFB6AF81E0181419041A041B040CF019
:100B400080E0F801808340C0F10183AC94ACA5AC97
:100B5000B6ACA5019401C501B4010E94C50E2B01DC
:100B60003C01C701B6010E94C80F20E030E040E818
:100B700050E40E947C1020E030E040E85FE30E94F7
:100B8000C50E9B01AC01C301B2010E942D0F9B0158
:100B9000AC01C501B4010E94C40E2B013C01F1015E
:100BA000FF9680809180A280B3809401A5010E946D
:100BB0007810181614F442015301C401D501F10153
:100BC00083AF94AFA5AFB6AFFFEFCF1ADF0AEF0A3E
:100BD000FF0AF101C3AAD4AAE5AAF6AA23AD34AD4F
:100BE00045AD56ADCA01B90129833A834B835C8375
:100BF0000E949A0FF10163A374A385A396A3298190
:100C00003A814B815C8160E074E284E799E40E9460
:100C10002D0FF101638B748B858B968BF8012081EE
:100C2000211108C0DC01CB01B058F101838B948BFA
:100C3000A58BB68B0F900F900F900F90DF91CF91F7
:100C40001F910F91FF90EF90DF90CF90BF90AF90EA
:100C50009F908F907F906F905F904F903F902F90DC
:100C600008950F931F93FC0107851089218932890C
:100C7000041715072607370739F04787508B618B14
:100C8000728B1F910F917BCE1F910F9108950F933F
:100C90001F93FC010385148525853685400F511F60
:100CA000621F731F1F910F91DCCF4F925F926F9263
:100CB0007F928F929F92AF92BF92CF92DF92EF92EC
:100CC000FF92CF93DF93EC016A017B018B8C9C8CAC
:100CD000AD8CBE8C9A01AB01C501B4010E94290FF5
:100CE000882309F448C06BA97CA98DA99EA90E94FC
:100CF000C80F2B013C01A7019601C501B4010E9458
:100D00002D0F9B01AC01C301B2010E947C100E9417
:100D1000950F6BAB7CAB8DAB9EABA701960160E0F2
:100D200070E080E090E40E942D0F0E94E31026E521
:100D30003EE04DE25FE30E947C1020E034E244E7B5
:100D400059E40E947C106FAB78AF89AF9AAFCB8E1D
:100D5000DC8EED8EFE8ECE01DF91CF91FF90EF9075
:100D6000DF90CF90BF90AF909F908F907F906F90CB
:100D70005F904F9004CEDF91CF91FF90EF90DF9086
:100D8000CF90BF90AF909F908F907F906F905F902B
:100D90004F9008958F929F92AF92BF92CF92EF9211
:100DA0000F93CF93DF93EC0185E992E099838883D9
:100DB0006A831B861C861D861E861F86188A198AD2
:100DC0001A8A1B8A1C8A1D8A1E8A812C912C80E813
:100DD000A82E8FE3B82E8F8A988EA98EBA8E1B8E7E
:100DE0001C8E1D8E1E8E8F8E98A2A9A2BAA21BA247
:100DF0001CA21DA21EA281E090E09CA78BA78FEFF2
:100E00008EA71FA218A619A61AA64B832C830D83A2
:100E1000EE821BAA1CAA1DAA1EAA1FAA18AE19AEF2
:100E20001AAE1BAE1CAE1DAE1EAEFE01FF9680823A
:100E30009182A282B382349610821F82188619860C
:100E40001A86CC2011F0CE0105DD40E050E060E8CC
:100E50007FE3CE01DF91CF910F91EF90CF90BF90C4
:100E6000AF909F908F9021CFCF92DF92EF92FF9221
:100E70000F931F93CF93DF93EC016A017B019A01DB
:100E8000AB016F89788D898D9A8DE3D7882309F41A
:100E900042C0CF8AD88EE98EFA8E8E01015C1F4F38
:100EA000A701960160E074E284E799E4D6D7F801DF
:100EB00060837183828393838BA99CA9ADA9BEA90A
:100EC000181619061A061B0634F56B897C898D895C
:100ED0009E899B01AC010E947C106B017C016B8D93
:100EE0007C8D8D8D9E8D9B01AC014FD79B01AC01FC
:100EF000C701B601B2D70E94950F6BAB7CAB8DAB2F
:100F00009EABCE01DF91CF911F910F91FF90EF909B
:100F1000DF90CF9034CDDF91CF911F910F91FF9053
:100F2000EF90DF90CF900895CF92DF92EF92FF92F3
:100F3000CF93DF93EC016A017B0120E030E0A9014F
:100F4000C701B60186D7882351F0B701A601CE01AB
:100F5000DF91CF91FF90EF90DF90CF90A6CEDF9101
:100F6000CF91FF90EF90DF90CF9008956F927F9296
:100F70008F929F92AF92BF92CF92DF92EF92FF92A9
:100F80000F931F93CF93DF93EC013A018B012B89D1
:100F90003C894D895E89B301C8015BD7882309F478
:100FA00050C0CF88D88CE98CFA8C46015701B7FA2B
:100FB000B094B7F8B094A5019401B301C80149D722
:100FC00087FD0BC0A7019601B301C8010E947810EC
:100FD00018162CF43601870102C03401850120E087
:100FE00030E0A901B301C80134D7811105C01BA2AB
:100FF0001CA21DA21EA21FC09301A80160E074E202
:1010000084E799E42AD79F7795D76BA37CA38DA318
:101010009EA37E0183E4E80EF11CDD24D39420E03E
:1010200030E0A901B301C8010E94781018160CF035
:10103000D12CF701D082C301D8018B8B9C8BAD8B57
:10104000BE8BDF91CF911F910F91FF90EF90DF90BA
:10105000CF90BF90AF909F908F907F906F900895AA
:10106000FC014783608725A708958F929F92AF92D6
:10107000BF92CF92DF92EF92FF92CF93DF93EC017A
:101080008B889C88AD88BE8820E030E0A901C5012E
:10109000B401DFD6882309F43BC0A5019401C50142
:1010A000B4010E947C106B017C016B8D7C8D8D8D59
:1010B0009E8D9B01AC0169D69B01AC01C701B601B5
:1010C000CCD633D76B017C018FEFC81AD80AE80A57
:1010D000F80A20E030E0A901C501B4010E947810AF
:1010E00018161CF4B701A60107C044275527BA01FA
:1010F0004C195D096E097F09CE01DF91CF91FF90F8
:10110000EF90DF90CF90BF90AF909F908F90BFCD2A
:10111000DF91CF91FF90EF90DF90CF90BF90AF9095
:101120009F908F9008950F931F93CF93DF93EC01BF
:10113000662351F0FAD069837A838B839C83DF9195
:10114000CF911F910F910895F0D009811A812B81C1
:101150003C81601B710B820B930B6233710581051F
:10116000910540F763E070E080E090E00DD1ECCFB6
:1011700060E0D9CFFC0113AA14AA15AA16AA1182FD
:10118000128213821482411551056105710519F00F
:10119000CB01BA01F9C00895FB01BA01A901DC0134
:1011A000D296FC93EE93D19726E0CF0161C31F93B3
:1011B000CF93DF93EC01162F6BEA72E089A99AA90D
:1011C000ADD44AE050E0612F89A99AA988D562EB95
:1011D00072E089A99AA9A2D462E370E080E090E06D
:1011E000DF91CF911F91D0C01F93CF93DF93EC017C
:1011F000162F8D81882381F189A99AA9DC01ED91AF
:10120000FC910480F581E02D1995892BA9F307C085
:101210002637310511F12835310509F41D8289A9D8
:101220009AA9DC01ED91FC910480F581E02D1995DE
:10123000181619068CF489A99AA9DC01ED91FC9184
:101240000680F781E02D19959C013327233631055F
:10125000F9F6612FCE01ABDF83E6DF91CF911F91CD
:1012600008950F931F93CF93DF931F92CDB7DEB7EF
:101270008C01662341F081E0F801858360E0C801BC
:101280004983B2DF4981F80145830F90DF91CF9107
:101290001F910F9108951F920F920FB60F92112474
:1012A0002F933F938F939F93AF93BF938091A70307
:1012B0009091A803A091A903B091AA033091A6032D
:1012C00023E0230F2D3720F40196A11DB11D05C089
:1012D00026E8230F0296A11DB11D2093A60380933B
:1012E000A7039093A803A093A903B093AA038091A6
:1012F000AB039091AC03A091AD03B091AE03019606
:10130000A11DB11D8093AB039093AC03A093AD03DB
:10131000B093AE03BF91AF919F918F913F912F9169
:101320000F900FBE0F901F9018952FB7F8946091F3
:10133000A7037091A8038091A9039091AA032FBFDE
:1013400008953FB7F8948091AB039091AC03A091BE
:10135000AD03B091AE0326B5A89B05C02F3F19F091
:101360000196A11DB11D3FBF6627782F892F9A2FA7
:10137000620F711D811D911D42E0660F771F881F4E
:10138000991F4A95D1F708958F929F92AF92BF927D
:10139000CF92DF92EF92FF926B017C01D2DF4B0183
:1013A0005C01C114D104E104F104E1F0ECD4C9DF23
:1013B000681979098A099B09683E7340810591057E
:1013C00080F321E0C21AD108E108F10888EE880E06
:1013D00083E0981EA11CB11CC114D104E104F104E6
:1013E00031F7DFCFFF90EF90DF90CF90BF90AF90BD
:1013F0009F908F9008958230910538F0880F991F43
:10140000880F991F05970197F1F70895789484B58F
:10141000826084BD84B5816084BD85B5826085BDF0
:1014200085B5816085BDEEE6F0E0808181608083D6
:10143000E1E8F0E0108280818260808380818160B9
:101440008083E0E8F0E0808181608083E1EBF0E080
:10145000808184608083E0EBF0E080818160808324
:10146000E1E9F0E080818260808380818160808317
:10147000E0E9F0E0808181608083E1EAF0E0808152
:1014800082608083808181608083E0EAF0E08081F7
:1014900081608083E1E2F1E08081826080838081ED
:1014A00081608083E0E2F1E0808181608083EAE70F
:1014B000F0E080818460808380818260808380818D
:1014C000816080838081806880831092C10008954C
:1014D00090E0FC013197E231F10508F04BC0EE5786
:1014E000FF4F02C7809180008F7703C080918000FA
:1014F0008F7D80938000089580918000877FF9CF51
:1015000084B58F7702C084B58F7D84BD08958091A6
:10151000B0008F7703C08091B0008F7D8093B000C2
:101520000895809190008F7707C0809190008F7D03
:1015300003C080919000877F8093900008958091F0
:10154000A0008F7707C08091A0008F7D03C080919D
:10155000A000877F8093A0000895809120018F775D
:1015600007C0809120018F7D03C080912001877F7B
:10157000809320010895CF93DF9390E0FC01E2591E
:10158000FE4F2491FC01EC54FE4F8491882349F1D5
:1015900090E0880F991FFC01EC5EFD4FA591B4917E
:1015A00086509E4FFC01C591D4919FB7611108C030
:1015B000F8948C91209582238C93888182230AC091
:1015C000623051F4F8948C91322F309583238C93B0
:1015D0008881822B888304C0F8948C91822B8C9311
:1015E0009FBFDF91CF9108950F931F93CF93DF9308
:1015F0001F92CDB7DEB7282F30E0F901E85DFE4F2E
:101600008491F901E259FE4F1491F901EC54FE4F17
:1016100004910023C1F0882319F0698359DF69819F
:10162000E02FF0E0EE0FFF1FE650FE4FA591B491C2
:101630009FB7F8948C91611103C01095812301C06C
:10164000812B8C939FBF0F90DF91CF911F910F91B2
:101650000895FC01818D228D90E0805C9F4F821B5C
:1016600091098F7399270895FC01918D828D9817A8
:1016700031F0828DE80FF11D858D90E008958FEF98
:101680009FEF0895FC01918D828D981761F0828DF6
:10169000DF01A80FB11D5D968C91928D9F5F9F73A6
:1016A000928F90E008958FEF9FEF089587EF9CE071
:1016B000892B39F080E090E0892B19F098D18111C5
:1016C00025C080E090E0892B41F080E090E0892BFC
:1016D00021F00E94000081111CC080E090E0892B65
:1016E00041F080E090E0892B21F00E940000811100
:1016F00013C080E090E0892BA1F080E090E0892B7E
:1017000081F00E94000081110AC008950E9400002B
:10171000D8CF0E940000E1CF0E940000EACF0C94D5
:1017200000000895FC01848DDF01A80FB11DA35AAC
:10173000BF4F2C91848D90E001968F739927848FF1
:10174000A689B7892C93A089B1898C9180648C93E8
:10175000938D848D981306C00288F389E02D8081D3
:101760008F7D80830895CF93DF93EC01888D88234C
:10177000C1F0EA89FB89808185FD05C0A889B98906
:101780008C9186FD0EC00FB607FCF5CF808185FFDA
:10179000F2CFA889B9898C9185FFEDCFCE01C2DF48
:1017A000E8CFDF91CF910895CF92DF92FF920F9310
:1017B0001F93CF93DF931F92CDB7DEB76C0181E00B
:1017C000D60158968C9358975B969C915B975C9644
:1017D0008C915C97981307C05096ED91FC915197AE
:1017E000808185FD2DC0F601038D10E00F5F1F4F36
:1017F0000F731127F02EF601848DF81210C00FB66A
:1018000007FCF9CFD6015096ED91FC91519780815C
:1018100085FFF1CFC601698385DF6981ECCF838DB8
:10182000E80FF11DE35AFF4F6083D6015B960C93DE
:101830005B975296ED91FC915397808180620CC02A
:10184000D6015696ED91FC91579760835096ED9195
:10185000FC91519780818064808381E090E00F90BB
:10186000DF91CF911F910F91FF90DF90CF9008955E
:10187000BF92CF92DF92EF92FF92CF93DF93EC0172
:101880006A017B01B22EE889F98982E080834115E3
:1018900081EE58076105710599F060E079E08DE30C
:1018A00090E0A7019601E2D4215031094109510984
:1018B0005695479537952795211580E1380790F083
:1018C000E889F989108260E874E88EE190E0A70168
:1018D0009601CCD4215031094109510956954795BB
:1018E00037952795EC85FD853083EE85FF85208330
:1018F000188EEC89FD89B082EA89FB89808180613C
:101900008083EA89FB89808188608083EA89FB89FA
:10191000808180688083EA89FB8980818F7D8083D4
:10192000DF91CF91FF90EF90DF90CF90BF9008951F
:101930001F920F920FB60F9211240BB60F922F9396
:101940008F939F93EF93FF93E091BF03F091C003B8
:101950008081E091C503F091C60382FD12C09081A1
:101960008091C8038F5F8F732091C903821751F054
:10197000E091C803F0E0E155FC4F958F8093C803D8
:1019800001C08081FF91EF919F918F912F910F90D6
:101990000BBE0F900FBE0F901F9018951F920F92C5
:1019A0000FB60F9211240BB60F922F933F934F93C4
:1019B0005F936F937F938F939F93AF93BF93EF93B7
:1019C000FF938FEA93E0AEDEFF91EF91BF91AF916D
:1019D0009F918F917F916F915F914F913F912F9147
:1019E0000F900BBE0F900FBE0F901F9018958FEAAF
:1019F00093E02FDE21E0892B09F420E0822F089567
:101A00001092B2031092B10388EE93E0A0E0B0E030
:101A10008093B3039093B403A093B503B093B6033C
:101A200087E093E09093B0038093AF0385EC90E060
:101A30009093BC038093BB0384EC90E09093BE032F
:101A40008093BD0380EC90E09093C0038093BF032C
:101A500081EC90E09093C2038093C10382EC90E00C
:101A60009093C4038093C30386EC90E09093C603E5
:101A70008093C5031092C8031092C9031092CA0341
:101A80001092CB0308950895C1DCFDDF0E94B901D7
:101A9000C6E5DBE00E94F9012097E1F307DEFACF0B
:101AA000CF92DF92EF92FF920F931F93CF93DF932A
:101AB0007C016A01EB0100E010E00C151D0571F0DE
:101AC0006991D701ED91FC910190F081E02DC70162
:101AD0001995892B19F00F5F1F4FEFCFC801DF91C8
:101AE000CF911F910F91FF90EF90DF90CF900895CD
:101AF0006115710581F0DB010D900020E9F7AD0162
:101B000041505109461B570BDC01ED91FC910280BD
:101B1000F381E02D199480E090E00895E9CFDC0195
:101B2000ED91FC910190F081E02D199468EB72E049
:101B3000DFCF0F931F93CF93DF93EC01D9DF8C019D
:101B4000CE01F4DF800F911FDF91CF911F910F9194
:101B500008958F929F92AF92BF92DF92EF92FF9281
:101B60000F931F93CF93DF93CDB7DEB7A1970FB637
:101B7000F894DEBF0FBECDBF7C01F42FD52ECB0174
:101B800019A2223008F42AE08E010F5D1F4F822E29
:101B9000912CA12CB12C6F2F7D2DA501940166D322
:101BA000F22FD32ECA01015011096A3014F4E0E378
:101BB00001C0E7E3E60FD801EC93232B242B252B60
:101BC00051F7B801C70194DFA1960FB6F894DEBFB4
:101BD0000FBECDBFDF91CF911F910F91FF90EF907E
:101BE000DF90BF90AF909F908F900895CF92DF923B
:101BF000EF92FF920F931F93CF93DF93EC016A0153
:101C00007B012115310579F4E881F9810190F0819A
:101C1000E02D642FDF91CF911F910F91FF90EF90F6
:101C2000DF90CF9019942A303105D9F477FF18C08E
:101C30006DE275DF8C0144275527BA014C195D0907
:101C40006E097F092AE0CE0184DF800F911FDF91AA
:101C5000CF911F910F91FF90EF90DF90CF9008955B
:101C60002AE0B701A601CE01DF91CF911F910F911C
:101C7000FF90EF90DF90CF906CCF0F931F93CF9397
:101C8000DF93EC019A01AB01662757FD6095762F33
:101C9000ADDF8C01CE014ADF800F911FDF91CF9124
:101CA0001F910F9108950F931F93CF93DF93EC0132
:101CB0009DDF8C01CE013ADF800F911FDF91CF9124
:101CC0001F910F9108952115310541F4DC01ED912B
:101CD000FC910190F081E02D642F19943ACF9A0184
:101CE000462F50E060E070E0EECF0F931F93CF934C
:101CF000DF93EC011ADB688779878A879B87E88105
:101D0000F9810680F781E02DCE01199597FF14C067
:101D10000CDB088519852A853B85601B710B820BBE
:101D2000930B0C811D812E813F8160177107820703
:101D3000930728F38FEF9FEFDF91CF911F910F91C2
:101D40000895CF92DF92EF92FF920F931F93CF935C
:101D5000DF937C016A01EB0100E010E00C151D052A
:101D600041F0C701C2DF97FD04C089930F5F1F4F89
:101D7000F5CFC801DF91CF911F910F91FF90EF90A8
:101D8000DF90CF90089508955058BB27AA270ED012
:101D900075C166D130F06BD120F031F49F3F11F462
:101DA0001EF45BC10EF4E095E7FB51C1E92F77D13A
:101DB00080F3BA17620773078407950718F071F468
:101DC0009EF58FC10EF4E0950B2EBA2FA02D0B01BE
:101DD000B90190010C01CA01A0011124FF27591B70
:101DE00099F0593F50F4503E68F11A16F040A22F76
:101DF000232F342F4427585FF3CF469537952795E7
:101E0000A795F0405395C9F77EF41F16BA0B620BE5
:101E1000730B840BBAF09150A1F0FF0FBB1F661F2C
:101E2000771F881FC2F70EC0BA0F621F731F841F6F
:101E300048F4879577956795B795F7959E3F08F095
:101E4000B3CF9395880F08F09927EE0F9795879554
:101E50000895D9D008F481E008950CD00FC107D1BE
:101E600040F0FED030F021F45F3F19F0F0C0511186
:101E700039C1F3C014D198F39923C9F35523B1F3B1
:101E8000951B550BBB27AA2762177307840738F0E9
:101E90009F5F5F4F220F331F441FAA1FA9F333D048
:101EA0000E2E3AF0E0E830D091505040E695001CFC
:101EB000CAF729D0FE2F27D0660F771F881FBB1FB8
:101EC000261737074807AB07B0E809F0BB0B802D92
:101ED000BF01FF2793585F4F2AF09E3F510568F0DE
:101EE000B6C000C15F3FECF3983EDCF38695779572
:101EF0006795B795F7959F5FC9F7880F911D9695E0
:101F0000879597F90895E1E0660F771F881FBB1F3B
:101F1000621773078407BA0720F0621B730B840BE8
:101F2000BA0BEE1F88F7E095089504D06894B111BC
:101F3000D9C00895BCD088F09F5790F0B92F992749
:101F4000B751A0F0D1F0660F771F881F991F1AF0C4
:101F5000BA95C9F712C0B13081F0C3D0B1E008958D
:101F6000C0C0672F782F8827B85F39F0B93FCCF30E
:101F7000869577956795B395D9F73EF490958095BA
:101F8000709561957F4F8F4F9F4F0895E89409C0DA
:101F900097FB3EF490958095709561957F4F8F4F9C
:101FA0009F4F9923A9F0F92F96E9BB279395F695B2
:101FB000879577956795B795F111F8CFFAF4BB0F30
:101FC00011F460FF1BC06F5F7F4F8F4F9F4F16C094
:101FD000882311F096E911C0772321F09EE8872F1E
:101FE000762F05C0662371F096E8862F70E060E0DA
:101FF0002AF09A95660F771F881FDAF7880F969553
:10200000879597F90895990F0008550FAA0BE0E8F6
:10201000FEEF16161706E807F907C0F012161306AA
:10202000E407F50798F0621B730B840B950B39F4EA
:102030000A2661F0232B242B252B21F408950A2650
:1020400009F4A140A6958FEF811D811D089597F990
:102050009F6780E870E060E008959FEF80EC08954E
:1020600000240A9416161706180609060895002477
:102070000A9412161306140605060895092E0394F1
:10208000000C11F4882352F0BB0F40F4BF2B11F465
:1020900060FF04C06F5F7F4F8F4F9F4F089557FDC4
:1020A0009058440F551F59F05F3F71F04795880FC6
:1020B00097FB991F61F09F3F79F08795089512165D
:1020C00013061406551FF2CF4695F1DF08C0161609
:1020D00017061806991FF1CF8695710561050894BA
:1020E0000895E894BB2766277727CB0197F90895D1
:1020F0008ADF08F48FEF08950BD0C0CFB1DF28F04E
:10210000B6DF18F0952309F0A2CFA7CF1124EACFAC
:10211000C6DFA0F3959FD1F3950F50E0551F629F46
:10212000F001729FBB27F00DB11D639FAA27F00D30
:10213000B11DAA1F649F6627B00DA11D661F829F57
:102140002227B00DA11D621F739FB00DA11D621F3C
:10215000839FA00D611D221F749F3327A00D611D59
:10216000231F849F600D211D822F762F6A2F11243B
:102170009F5750408AF0E1F088234AF0EE0FFF1F8E
:10218000BB1F661F771F881F91505040A9F79E3FC5
:10219000510570F05CCFA6CF5F3FECF3983EDCF3C7
:1021A000869577956795B795F795E7959F5FC1F702
:1021B000FE2B880F911D9695879597F9089511F438
:1021C0000EF44BCF3EC073DFD0F39923D9F3CEF397
:1021D0009F57550B87FF43D00024A0E640EA9001AB
:1021E00080585695979528F4805C660F771F881F56
:1021F00020F026173707480730F4621B730B840B57
:10220000202931294A2BA69517940794202531259A
:102210004A2758F7660F771F881F20F026173707C1
:10222000480730F4620B730B840B200D311D411DE8
:10223000A09581F7B901842F9158880F96958795BD
:1022400008959F3F31F0915020F4879577956795D9
:10225000B795880F911D9695879597F90895915098
:102260005040660F771F881FD2F70895A1E21A2EFB
:10227000AA1BBB1BFD010DC0AA1FBB1FEE1FFF1F2A
:10228000A217B307E407F50720F0A21BB30BE40B7A
:10229000F50B661F771F881F991F1A9469F76095C1
:1022A0007095809590959B01AC01BD01CF0108957B
:1022B000052E97FB16F400940FD057FD05D0D6DFFE
:1022C00007FC02D046F408C0509540953095219502
:1022D0003F4F4F4F5F4F0895909580957095619552
:1022E0007F4F8F4F9F4F0895EE0FFF1F0590F49182
:1022F000E02D19940790F691E02D1994F894FFCFF2
:1023000000004C0480004D6F746F72732061726521
:1023100020676F6F6420746F20676F0049207365BA
:1023200074207468652053706565643A2000492004
:1023300073657420746865206D61782053706565DD
:102340006420746F3A2000492073657420746865B6
:1023500020416363656C65726174696F6E20746F90
:102360003A200065786974696E6720657865632036
:10237000737461676500564D4450565F317C315F20
:10238000564D4450560D0A00436F6D6D616E643AB0
:10239000000000000012042A040A033B0286034DD9
:1023A000039C03BD03F1037F02D502564D44504305
:1023B0005F005F564D4450430D0A004572726F72C4
:1023C0003A20417474656D707420746F2073657465
:1023D000206120726561642D6F6E6C792076617268
:1023E0006961626C65206F72206461746120747928
:1023F0007065206E6F7420737570706F7274656491
:102400000D0A0000000000D40B500D290B420B34C4
:102410000BB30B6E616E00696E66006F7666002E00
:022420000000BA
:00000001FF
