:100000000C945D000C9471020C9498020C94850081
:100010000C9485000C9485000C9485000C9485004C
:100020000C9485000C9485000C9485000C9485003C
:100030000C9485000C9485000C9485000C9485002C
:100040000C9449060C9485000C94DB040C940D056B
:100050000C9485000C9485000C9485000C9485000C
:100060000C9485000C94850000000008000201003B
:100070000003040700000000000000000102040863
:100080001020408001020408102001020408102002
:10009000040404040404040402020202020203032E
:1000A0000303030300000000250028002B000000CC
:1000B0000000240027002A003D0511241FBECFEFB9
:1000C000D8E0DEBFCDBF11E0A0E0B1E0E4E4FFE0A6
:1000D00002C005900D92AE32B107D9F722E0AEE230
:1000E000B1E001C01D92A431B207E1F710E0CAEB04
:1000F000D0E004C02297FE010E942807C83BD10728
:10010000C9F70E9481050C94A0070C94000080910F
:100110005E0190915F01A0916001B0916101892B16
:100120008A2B8B2B61F080912E0190912F01A09151
:100130003001B09131010197A109B1090BC0809143
:100140002E0190912F01A0913001B09131010196C3
:10015000A11DB11D80932E0190932F01A09330011A
:10016000B0933101089540916A0130916B01209163
:100170006C0190916D0180916901813669F481E093
:1001800090E0A0E0B0E080934E0190934F01A093E7
:100190005001B09351010895823649F410924E01F6
:1001A00010924F0110925001109251010895833620
:1001B00049F440935201309353012093540190939A
:1001C00055010895843649F4409356013093570100
:1001D00020935801909359010895853649F440932E
:1001E0005A0130935B0120935C0190935D01089567
:1001F000863649F410925E0110925F011092600100
:10020000109261010895873641F4109262011092B4
:1002100063011092640110926501089540916A0192
:1002200030916B0120916C0190916D018091690179
:10023000813669F481E090E0A0E0B0E0809336017F
:1002400090933701A0933801B09339010895823615
:1002500049F4109236011092370110923801109231
:1002600039010895833649F440933A0130933B01B4
:1002700020933C0190933D010895843649F44093C6
:100280003E0130933F012093400190934101089536
:10029000853649F440934201309343012093440151
:1002A0009093450108958656823040F4109246019D
:1002B00010924701109248011092490108950F933E
:1002C0001F93CF93DF93CDB7DEB728970FB6F8947F
:1002D000DEBF0FBECDBF809169018136A1F460E021
:1002E000809114010E94210320916A0141E06091F4
:1002F0001201809116010E94570361E08091140160
:100300000E94210352C08236F9F08336D9F430912D
:1003100032012091330190913401809135018E0199
:100320000F5F1F4F48E0F80111924A95E9F740919D
:1003300018014A83409167014B833D832E839F833D
:1003400088871CC0843689F580912E0190912F01F9
:10035000A0913001B09131018E010F5F1F4F28E055
:10036000F80111922A95E9F7209118012A8320912A
:1003700067012B838D839E83AF83B8872FEF30E097
:1003800040E050E060E070E0CB010E942D06698300
:10039000E0916E01F0916F010280F381E02D48E061
:1003A00050E0B8018EE691E0099528960FB6F894D2
:1003B000DEBF0FBECDBFDF91CF911F910F9108958A
:1003C000809168018A3611F40C94B3008B3621F0C9
:1003D0008D3621F40E94B3000C940E0180916701C8
:1003E000833691F38436C1F38936A1F30895CF9310
:1003F000DF9361E0809114010E94E80261E0809146
:1004000012010E94E80261E0809116010E94E80258
:10041000CAE0D1E081E0CA31D80731F08881229664
:1004200061E00E94E802F6CF60E0809114010E9432
:1004300021032FEF40E060911201809116010E948C
:10044000570361E0809114010E94210326E040E0FF
:1004500052EC61E070E08EE691E00E94790443E0A6
:1004600050E067E870E080E0DF91CF910C9451029A
:100470008EE691E00E9496031816190684F448E06F
:1004800050E066E671E08EE691E00E94E60580911C
:100490006801853611F40C945F010C94E001089515
:1004A00008958230E8F4E82FF0E0EE0FFF1FE65EDB
:1004B000FE4F71836083813041F0809169008C7FB1
:1004C000842B80936900E89A089580916900440F15
:1004D000551F440F551F837F842B80936900E99A31
:1004E00008951F920F920FB60F9211242F933F93EE
:1004F0004F935F936F937F938F939F93AF93BF932C
:10050000EF93FF93E0911A01F0911B010995FF9180
:10051000EF91BF91AF919F918F917F916F915F917B
:100520004F913F912F910F900FBE0F901F901895F4
:100530001F920F920FB60F9211242F933F934F9358
:100540005F936F937F938F939F93AF93BF93EF933B
:10055000FF93E0911C01F0911D010995FF91EF912E
:10056000BF91AF919F918F917F916F915F914F91CB
:100570003F912F910F900FBE0F901F9018958330D1
:1005800081F028F4813099F08230A1F0089587300D
:10059000A9F08830B9F08430D1F4809180008F7D4B
:1005A00003C0809180008F7780938000089584B588
:1005B0008F7702C084B58F7D84BD08958091B0008F
:1005C0008F7703C08091B0008F7D8093B000089535
:1005D000CF93DF9390E0FC01E458FF4F2491FC019E
:1005E000E057FF4F8491882349F190E0880F991FCD
:1005F000FC01E255FF4FA591B4918C559F4FFC0132
:10060000C591D4919FB7611108C0F8948C91209541
:1006100082238C93888182230AC0623051F4F8943B
:100620008C91322F309583238C938881822B888301
:1006300004C0F8948C91822B8C939FBFDF91CF9153
:1006400008950F931F93CF93DF931F92CDB7DEB71B
:10065000282F30E0F901E859FF4F8491F901E4585F
:10066000FF4F1491F901E057FF4F04910023C9F0A7
:10067000882321F069830E94BF026981E02FF0E0A6
:10068000EE0FFF1FEC55FF4FA591B4919FB7F89463
:100690008C91611103C01095812301C0812B8C9333
:1006A0009FBF0F90DF91CF911F910F910895BF923F
:1006B000CF92DF92EF92FF920F931F93CF93DF932E
:1006C000C82ED62EB42EC7E0D0E0022F10E087E06F
:1006D000E82EF12CB1100AC0F701EC1BFD0BB8019C
:1006E00002C075956795EA95E2F707C0B8010C2E30
:1006F00002C0759567950A94E2F7617077278C2D93
:100700000E94210361E08D2D0E94210360E08D2D68
:100710000E9421032197F0F6DF91CF911F910F9155
:10072000FF90EF90DF90CF90BF900895FC01818DF6
:10073000228D90E0805C9F4F821B91098F739927D7
:100740000895FC01918D828D981731F0828DE80F0C
:10075000F11D858D90E008958FEF9FEF0895FC01C6
:10076000918D828D981761F0828DDF01A80FB11DE8
:100770005D968C91928D9F5F9F73928F90E008950C
:100780008FEF9FEF089583E395E0892B49F080E098
:1007900090E0892B29F00E94330581110C94000010
:1007A0000895FC01848DDF01A80FB11DA35ABF4F2E
:1007B0002C91848D90E001968F739927848FA68960
:1007C000B7892C93A089B1898C9180648C93938D87
:1007D000848D981306C00288F389E02D80818F7D77
:1007E00080830895CF93DF93EC01888D8823C9F02F
:1007F000EA89FB89808185FD05C0A889B9898C912A
:1008000086FD0FC00FB607FCF5CF808185FFF2CFC4
:10081000A889B9898C9185FFEDCFCE010E94D103C3
:10082000E7CFDF91CF910895CF92DF92FF920F93A0
:100830001F93CF93DF931F92CDB7DEB76C0181E09A
:10084000D60158968C9358975B969C915B975C96D3
:100850008C915C97981307C05096ED91FC9151973D
:10086000808185FD2EC0F601038D10E00F5F1F4FC4
:100870000F731127F02EF601848DF81211C00FB6F8
:1008800007FCF9CFD6015096ED91FC9151978081EC
:1008900085FFF1CFC60169830E94D1036981EBCF47
:1008A000838DE80FF11DE35AFF4F6083D6015B96FD
:1008B0000C935B975296ED91FC91539780818062E7
:1008C0000CC0D6015696ED91FC91579760835096D7
:1008D000ED91FC91519780818064808381E090E06C
:1008E0000F90DF91CF911F910F91FF90DF90CF90EC
:1008F0000895BF92CF92DF92EF92FF92CF93DF9352
:10090000EC016A017B01B22EE889F98982E08083DB
:10091000411581EE580761057105A1F060E079E0AD
:100920008DE390E0A70196010E94DA06215031097B
:10093000410951095695479537952795211580E12D
:10094000380798F0E889F989108260E874E88EE148
:1009500090E0A70196010E94DA0621503109410971
:1009600051095695479537952795EC85FD85308338
:10097000EE85FF852083188EEC89FD89B082EA8997
:10098000FB89808180618083EA89FB89808188601E
:100990008083EA89FB89808180688083EA89FB897A
:1009A00080818F7D8083DF91CF91FF90EF90DF90EA
:1009B000CF90BF9008951F920F920FB60F921124FF
:1009C0002F938F939F93EF93FF93E0917E01F0918C
:1009D0007F018081E0918401F091850182FD12C048
:1009E0009081809187018F5F8F732091880182179A
:1009F00051F0E0918701F0E0E259FE4F958F80932E
:100A0000870101C08081FF91EF919F918F912F917C
:100A10000F900FBE0F901F9018951F920F920FB658
:100A20000F9211242F933F934F935F936F937F9374
:100A30008F939F93AF93BF93EF93FF938EE691E0D5
:100A40000E94D103FF91EF91BF91AF919F918F9140
:100A50007F916F915F914F913F912F910F900FBEBA
:100A60000F901F9018958EE691E00E94960321E06A
:100A7000892B09F420E0822F0895109271011092C1
:100A8000700188EE93E0A0E0B0E080937201909353
:100A90007301A0937401B093750182E291E0909389
:100AA0006F0180936E0185EC90E090937B018093C1
:100AB0007A0184EC90E090937D0180937C0180EC3E
:100AC00090E090937F0180937E0181EC90E0909381
:100AD00081018093800182EC90E090938301809368
:100AE000820186EC90E090938501809384011092BE
:100AF0008701109288011092890110928A0108954D
:100B000008950E949F060E9480050E94F701C3EC91
:100B1000D3E00E9438022097E1F30E94C303F9CF8B
:100B2000CF92DF92EF92FF920F931F93CF93DF93B9
:100B30007C016A01EB0100E010E00C151D0571F06D
:100B40006991D701ED91FC910190F081E02DC701F1
:100B50000995892B19F00F5F1F4FEFCFC801DF9167
:100B6000CF911F910F91FF90EF90DF90CF9008955C
:100B70000F931F93CF93DF93EC010E949306688736
:100B800079878A879B87E881F9810680F781E02D44
:100B9000CE01099597FF15C00E9493060885198517
:100BA0002A853B85601B710B820B930B0C811D8189
:100BB0002E813F81601771078207930720F38FEF23
:100BC0009FEFDF91CF911F910F910895CF92DF9208
:100BD000EF92FF920F931F93CF93DF937C016A01F3
:100BE000EB0100E010E00C151D0549F0C7010E9463
:100BF000B80597FD04C089930F5F1F4FF4CFC8015C
:100C0000DF91CF911F910F91FF90EF90DF90CF90E8
:100C10000895CF93DF9300D000D0CDB7DEB79B010E
:100C2000AC01611571058105910569F069833A830D
:100C30004B835C830E948A0729813A814B815C81C6
:100C40000E94FC0603C060E070E0CB010F900F90A3
:100C50000F900F90DF91CF910895CF92DF92EF9296
:100C6000FF926B017C01621773078407950764F498
:100C7000CA01B9016C197D098E099F090E940906F4
:100C80006C0D7D1D8E1D9F1DFF90EF90DF90CF900E
:100C900008951F920F920FB60F9211242F933F9336
:100CA0008F939F93AF93BF9380910C0290910D020D
:100CB000A0910E02B0910F0230910B0223E0230F9E
:100CC0002D3720F40196A11DB11D05C026E8230F84
:100CD0000296A11DB11D20930B0280930C029093EC
:100CE0000D02A0930E02B0930F028091100290911A
:100CF0001102A0911202B09113020196A11DB11D23
:100D00008093100290931102A0931202B0931302E9
:100D1000BF91AF919F918F913F912F910F900FBEF7
:100D20000F901F9018952FB7F89460910C02709156
:100D30000D0280910E0290910F022FBF08957894BA
:100D400084B5826084BD84B5816084BD85B58260D0
:100D500085BD85B5816085BDEEE6F0E0808181606E
:100D60008083E1E8F0E0108280818260808380816E
:100D700081608083E0E8F0E0808181608083E1EB46
:100D8000F0E0808184608083E0EBF0E0808181602E
:100D90008083EAE7F0E080818460808380818260E4
:100DA00080838081816080838081806880831092CD
:100DB000C1000895A1E21A2EAA1BBB1BFD010DC0A4
:100DC000AA1FBB1FEE1FFF1FA217B307E407F507FB
:100DD00020F0A21BB30BE40BF50B661F771F881FD7
:100DE000991F1A9469F760957095809590959B016D
:100DF000AC01BD01CF010895052E97FB1EF40094B0
:100E00000E94130757FD07D00E94DA0607FC03D0A3
:100E10004EF40C94130750954095309521953F4F13
:100E20004F4F5F4F089590958095709561957F4FD6
:100E30008F4F9F4F08950E942C07A59F900DB49F40
:100E4000900DA49F800D911D11240895EE0FFF1F9A
:100E50000590F491E02D0994A29FB001B39FC001C9
:100E6000A39F700D811D1124911DB29F700D811DD6
:100E70001124911D08958F929F92AF92BF92CF92AD
:100E8000DF92EF92FF92CF93DF93EC01688179813B
:100E90008A819B81611571058105910521F464E2C8
:100EA00079ED8BE597E02DE133EF41E050E00E94D2
:100EB000FC0649015A019B01AC01A7EAB1E40E947A
:100EC0001B076B017C01ACEEB4EFA50194010E94FD
:100ED0009B07C60ED71EE81EF91EF7FE06C081E06E
:100EE000C81AD108E10880E8F80AC882D982EA82E3
:100EF000FB82C701B6019F77DF91CF91FF90EF9002
:100F0000DF90CF90BF90AF909F908F9008950E94F8
:100F10003B07089586E091E00E943B0708956093A7
:100F200006017093070180930801909309010895C9
:100F3000B7FF0C941B070E941B07821B930B08959D
:040F4000F894FFCF53
:100F440000001402800001000000070008000900EE
:100F54000A0006000500040065005002500200006B
:0E0F64000000140490059603AF03A103F203EE
:00000001FF
