:100000000C9467000C948F000C948F000C948F005C
:100010000C948F000C948F000C948F000C948F0024
:100020000C948F000C948F000C948F000C948F0014
:100030000C948F000C948F000C948F000C948F0004
:100040000C94FF050C948F000C94F2080C94240976
:100050000C948F000C948F000C948F000C948F00E4
:100060000C948F000C948F001112131415160A0BA8
:100070000C0D0E0F00010203040500000008000231
:10008000010000030407000000000000000001025E
:100090000408102040800102040810200102040816
:1000A00010200404040404040404020202020202F4
:1000B00003030303030300000000250028002B00B6
:1000C00000000000240027002A001A01540911240E
:1000D0001FBECFEFD8E0DEBFCDBF11E0A0E0B1E0A2
:1000E000E6E9F7E102C005900D92AC3AB107D9F705
:1000F00022E0ACEAB1E001C01D92AC3AB207E1F7F0
:1001000010E0CEECD0E004C02297FE010E94480B24
:10011000CA3CD107C9F70E9498090C94C90B0C94EA
:10012000000048E06CEA71E08CEB91E00E949503DE
:10013000E0910F02F09110020280F381E02D48E07F
:1001400050E06CEA71E08FE092E009948CEB91E072
:100150000E94E70248E064EB71E08CEB91E00E94C2
:100160007003882331F067E171E08FE092E00E9434
:10017000EB098CEB91E00C94290440ED57E060E032
:1001800070E08FEC91E00E94660520E032EC41E0E7
:1001900050E06FE072E08FEC91E00E9479058FEC07
:1001A00091E00E94630563E271E08091000290910A
:1001B00001020E94E5096AE070E080E090E00E94A0
:1001C000780641E060E08FEC91E00E94E40526E0D3
:1001D00040E052EC61E070E08FE092E00E94900815
:1001E0008CEB91E00E94CA0463E08CEB91E00E94EA
:1001F0006F0462E070E08CEB91E00E9488046AE09A
:1002000071E08CEB91E00E94A10340E151E061E0DC
:100210008CEB91E00E94BB038CEB91E00E942904DF
:1002200080E00E94F806BC01882777FD8095982F12
:100230000C94B10A48E067E08CEB91E00C94D50295
:100240008FE092E00E94AD0718161906ACF448E062
:1002500050E064EB71E08FE092E00E948E0A2FEF95
:1002600030E040E050E060E070E0CB010E94DD0A49
:100270006093B4010E94A6008CEB91E00E94910370
:1002800081110C9491000895CF93CFB7F894809189
:10029000CE01811127C0ECEAF0E08491E8E9F0E0BA
:1002A0009491E82FF0E0EE0FFF1FE054FF4FA5916F
:1002B000B4918C91892321F461E08AE00E94770750
:1002C00061E08AE00E943E078CB580618CBD8CB5F0
:1002D00080648CBD61E08DE00E943E0761E08BE0B0
:1002E0000E943E078091CE018F5F8093CE01CFBFE9
:1002F000CF9108958EBD00000DB407FEFDCF8EB5E1
:1003000008952CB52F7D2CBD2CB5237F2CBD2CB58D
:100310002C7F2CBD2DB521602DBDFC0181810E945B
:10032000770785E090E00C94B206FC018081918112
:1003300089130C947707089560E00C94810161E0C3
:100340000C948101EF92FF921F93CF93DF931F9242
:10035000CDB7DEB77C0169830E949C016981862F3D
:100360008F710E947A018FEF0E947A01182FC701C6
:100370000E949F01812F0F90DF91CF911F91FF90DD
:10038000EF900895CF92DF92EF92FF920F931F9319
:10039000CF93DF9300D01F92CDB7DEB78C01F22E42
:1003A0004A835B8369830E949C016981862F8F71D8
:1003B00080620E947A01E82E4A81C42E5B81D52E8C
:1003C000F40EFC1431F0F60181916F010E947A0164
:1003D000F8CFC8010E949F018E2D0F900F900F90B3
:1003E000DF91CF911F910F91FF90EF90DF90CF9011
:1003F0000895EF92FF921F93CF93DF9300D0CDB774
:10040000DEB77C014A8369830E949C016981862F43
:100410008F7180620E947A01182F4A81842F0E9476
:100420007A01C7010E949F01812F0F900F90DF91E9
:10043000CF911F91FF90EF900895AF92BF92DF92FE
:10044000EF92FF920F931F93CF93DF9300D01F92F1
:10045000CDB7DEB78C01FC01E580F42EE41608F47C
:10046000FE2CF8018681811102C0EF1801C0E12C39
:10047000C80129836A837B830E949C012981822F82
:100480000E947A01D82E6A81A62E7B81B72EF60EA5
:10049000FA1431F0F50181915F010E947A01F8CFE1
:1004A000EE2029F080E00E947A01EA94F9CFC80199
:1004B0000E949F018D2D0F900F900F90DF91CF9193
:1004C0001F910F91FF90EF90DF90BF90AF90089534
:1004D000AF92BF92DF92EF92FF920F931F93CF9351
:1004E000DF9300D0CDB7DEB78C01FC01E580F42EA0
:1004F000E41608F4FE2CF8018681811102C0EF1881
:1005000001C0E12CC80169837A830E949C0181E6C5
:100510000E947A01D82E6981A62E7A81B72EF60E16
:10052000FA1439F08FEF0E947A01F50181935F018F
:10053000F7CFEE2029F08FEF0E947A01EA94F9CFED
:10054000C8010E949F018D2D0F900F90DF91CF91D8
:100550001F910F91FF90EF90DF90BF90AF900895A3
:10056000EF92FF921F93CF93DF931F92CDB7DEB729
:100570007C0169830E949C016981862F0E947A0117
:10058000182FC7010E949F01812F0F90DF91CF91FB
:100590001F91FF90EF90089562EE0C94B00261EE0F
:1005A0000C94B0026FEF0C94B002FC0160834183A5
:1005B000148280E28583168285E0848717820895FD
:1005C000462F6E3708F04DE765E00C94F901CF93A4
:1005D000DF93EC0160E00E9495018D859E850E946D
:1005E000B2066DE1CE010E94A20181FF07C08D8598
:1005F0009E850E94B206CE010E94CF0260E0CE012D
:100600000E94A201482F4E7F60E0CE010E94F901B6
:1006100062E0CE010E94A201E4E7F0E0E49121E073
:1006200030E001C0220FEA95EAF7822B482F62E002
:10063000CE01DF91CF910C94F901CF93DF93EC01C0
:1006400060E00E94A20181FD0EC0482F426060E080
:10065000CE010E94F90165E070E080E090E0DF915A
:10066000CF910C947806DF91CF9108950F93CF939B
:10067000DF93EC01222311F020EB01C020EACE0130
:100680000E941D02002339F061E0CE01DF91CF917D
:100690000F910C949501DF91CF910F9108950F93D5
:1006A000CF93DF93EC0101E00E943603CE010E945C
:1006B000D2028073D9F360E0CE010E94950140E739
:1006C00067E0CE010E94F90184FF05C0CE010E94BF
:1006D000CF0280E001C081E0DF91CF910F910895BA
:1006E00020E00C944F030F931F93CF93DF938C0163
:1006F000EB0167E10E94A20180FD0BC0209759F039
:10070000C8010E94D20290E09595879587708883F2
:1007100002C080E001C081E0DF91CF911F910F9175
:10072000089560E070E00C947303CF93DF93EC01C5
:100730000E94680240E767E0CE01DF91CF910C9400
:10074000F9010F931F93CF93DF93EC018B012C855D
:10075000AB016AE00E94C2012C85A80160E1CE01D4
:100760000E94C2014D8161E1CE01DF91CF911F91C5
:100770000F910C94F901FF920F931F93CF93DF9386
:10078000EC01F62E8A01611107C04C8550E0B801DA
:1007900007960E94B80B07C086E0861708F437C09A
:1007A00081E0681307C0EF2DF0E0E259FF4F64913C
:1007B0002C8506C0E62FF0E0E259FF4F649121E05E
:1007C000A801CE010E94C2010F2D10E0F801E859E6
:1007D000FF4F64914D81CE010E94F90162E0CE018C
:1007E0000E94A201F801EC58FF4F049121E030E093
:1007F00001C0220F0A95EAF7822B482F62E0CE0152
:10080000DF91CF911F910F91FF900C94F901DF912F
:10081000CF911F910F91FF9008951F93CF93DF9376
:10082000EC01162F62E00E94A201E12FF0E0EC58EB
:10083000FF4FE49141E050E001C0440FEA95EAF730
:100840004095482362E0CE01DF91CF911F910C9437
:10085000F901CF93DF93EC010E941D0360E0CE010C
:100860000E94A201482F416060E0CE010E94F90180
:1008700040E767E0CE010E94F90161E0CE010E94ED
:1008800095018F81882349F02C85AE01495F5F4F28
:100890006AE0CE010E94C20104C060E0CE010E9465
:1008A0000D046DE1CE010E94A20181FF05C0CE01C1
:1008B000DF91CF910C94CF02DF91CF910895CF9328
:1008C000DF93EC010E949C0180E50E947A0183E79E
:1008D0000E947A01CE01DF91CF910C949F011F936A
:1008E000CF93DF93EC01162F66E00E94A201887F70
:1008F000143020F4612F660F6F5F01C067E0462F50
:10090000482B66E0CE01DF91CF911F910C94F90145
:10091000EF92FF920F931F93CF93DF931F92CDB768
:10092000DEB77C018B0166E00E94A201582F577D43
:100930000230110531F450620BE910E020E030E0A4
:100940000DC00130110529F005E510E020E030E090
:1009500005C0586001E410E020E030E0F7010587B1
:1009600016872787308B452F66E0C70159830E9481
:10097000F90166E0C7010E94A20191E05981851347
:1009800090E0892F0F90DF91CF911F910F91FF90F1
:10099000EF9008951F93CF93DF93EC0188819981A5
:1009A000891719F061E00E943E07898198819817A4
:1009B00019F061E00E943E070E94440160E0CE0110
:1009C0000E94950161E0CE010E94810165E070E026
:1009D00080E090E00E9478064CE060E0CE010E944A
:1009E000F9014FE564E0CE010E94F90162E070E098
:1009F000CE010E948804882311F081E08C8366E098
:100A0000CE010E94A201182F60E070E0CE010E948A
:100A10008804CE010E945F0440E06DE1CE010E9497
:100A2000F90140E06CE1CE010E94F90140E767E086
:100A3000CE010E94F9016CE4CE010E94E002CE01D9
:100A40000E94CC02CE010E94CF02CE010E941D0363
:100A500060E0CE010E94A201482F4E7F60E0CE01EF
:100A60000E94F901115081E01E3F08F080E0DF9103
:100A7000CF911F9108950F931F93CF93DF93EC01B4
:100A8000662359F00E94490669837A838B839C838D
:100A9000DF91CF911F910F9108950E94490609811E
:100AA0001A812B813C81601B710B820B930B62338B
:100AB00071058105910530F763E070E080E090E01A
:100AC0000E947806EACF60E00C943B05FC0113AA73
:100AD00014AA15AA16AA1182128213821482411531
:100AE00051056105710521F0CB01BA010C9478061E
:100AF0000895FB01BA01A901DC01D296FC93EE93A3
:100B0000D19726E0CF010C9490081F93CF93DF93E9
:100B1000EC01162F65E371E089A99AA90E94E50905
:100B20004AE050E0612F89A99AA90E94590A6CE312
:100B300071E089A99AA90E94E50962E370E080E06A
:100B400090E0DF91CF911F910C9478061F93CF9383
:100B5000DF93EC01162F8D81882389F189A99AA949
:100B6000DC01ED91FC910480F581E02D0995892B44
:100B7000A9F307C02637310519F12835310509F4E5
:100B80001D8289A99AA9DC01ED91FC910480F5816F
:100B9000E02D09951816190694F489A99AA9DC0183
:100BA000ED91FC910680F781E02D09959C0133279A
:100BB00023363105F9F6612FCE010E94850583E6C3
:100BC000DF91CF911F9108950F931F93CF93DF93E0
:100BD0001F92CDB7DEB78C01662349F081E0F801A2
:100BE000858360E0C80149830E94A6054981F80118
:100BF00045830F90DF91CF911F910F9108951F9220
:100C00000F920FB60F9211242F933F938F939F93C0
:100C1000AF93BF938091070290910802A0910902BF
:100C2000B0910A023091060223E0230F2D3720F401
:100C30000196A11DB11D05C026E8230F0296A11D36
:100C4000B11D209306028093070290930802A0939F
:100C50000902B0930A0280910B0290910C02A091BC
:100C60000D02B0910E020196A11DB11D80930B02E1
:100C700090930C02A0930D02B0930E02BF91AF911E
:100C80009F918F913F912F910F900FBE0F901F90CA
:100C900018952FB7F894609107027091080280911F
:100CA000090290910A022FBF08953FB7F8948091EE
:100CB0000B0290910C02A0910D02B0910E0226B58C
:100CC000A89B05C02F3F19F00196A11DB11D3FBF84
:100CD0006627782F892F9A2F620F711D811D911D14
:100CE00042E0660F771F881F991F4A95D1F7089534
:100CF0008F929F92AF92BF92CF92DF92EF92FF922C
:100D00006B017C010E9455064B015C01C114D104AA
:100D1000E104F104F1F00E94F90A0E9455066819F5
:100D200079098A099B09683E73408105910570F332
:100D300021E0C21AD108E108F10888EE880E83E0AC
:100D4000981EA11CB11CC114D104E104F10429F7BF
:100D5000DDCFFF90EF90DF90CF90BF90AF909F904E
:100D60008F9008958230910538F0880F991F880F71
:100D7000991F05970197F1F70895789484B58260DB
:100D800084BD84B5816084BD85B5826085BD85B52F
:100D9000816085BDEEE6F0E0808181608083E1E8DE
:100DA000F0E0108280818260808380818160808316
:100DB000E0E8F0E0808181608083E1EBF0E0808119
:100DC00084608083E0EBF0E0808181608083EAE7EB
:100DD000F0E0808184608083808182608083808174
:100DE000816080838081806880831092C100089533
:100DF0008E3008F08E5087702091160190E4299F64
:100E000090011124822B80937C0080917A00806471
:100E100080937A0080917A0086FDFCCF80917800E3
:100E20002091790090E0922B0895833081F028F48E
:100E3000813099F08230A1F008958730A9F0883090
:100E4000B9F08430D1F4809180008F7D03C080910F
:100E500080008F7780938000089584B58F7702C0DB
:100E600084B58F7D84BD08958091B0008F7703C0D5
:100E70008091B0008F7D8093B0000895CF93DF9371
:100E800090E0FC01E257FF4F2491FC01EE55FF4F2B
:100E90008491882349F190E0880F991FFC01E05468
:100EA000FF4FA591B4918A549F4FFC01C591D491F5
:100EB0009FB7611108C0F8948C91209582238C9380
:100EC000888182230AC0623051F4F8948C91322FC9
:100ED000309583238C938881822B888304C0F89477
:100EE0008C91822B8C939FBFDF91CF9108950F93AC
:100EF0001F93CF93DF931F92CDB7DEB7282F30E03B
:100F0000F901E658FF4F8491F901E257FF4F149120
:100F1000F901EE55FF4F04910023C9F0882321F019
:100F200069830E9415076981E02FF0E0EE0FFF1F33
:100F3000EA54FF4FA591B4919FB7F8948C91611139
:100F400003C01095812301C0812B8C939FBF0F900C
:100F5000DF91CF911F910F910895FC01818D228D1A
:100F600090E0805C9F4F821B91098F7399270895B1
:100F7000FC01918D828D981731F0828DE80FF11D63
:100F8000858D90E008958FEF9FEF0895FC01918D7E
:100F9000828D981761F0828DDF01A80FB11D5D96DB
:100FA0008C91928D9F5F9F73928F90E008958FEF49
:100FB0009FEF08958AE499E0892B49F080E090E062
:100FC000892B29F00E944A0981110C940000089590
:100FD000FC01848DDF01A80FB11DA35ABF4F2C91D6
:100FE000848D90E001968F739927848FA689B789A5
:100FF0002C93A089B1898C9180648C93938D848D7E
:10100000981306C00288F389E02D80818F7D80834C
:101010000895CF93DF93EC01888D8823C9F0EA8986
:10102000FB89808185FD05C0A889B9898C9186FDE1
:101030000FC00FB607FCF5CF808185FFF2CFA889DE
:10104000B9898C9185FFEDCFCE010E94E807E7CFEB
:10105000DF91CF910895CF92DF92FF920F931F936C
:10106000CF93DF931F92CDB7DEB76C0181E0D6013D
:1010700058968C9358975B969C915B975C968C9155
:101080005C97981307C05096ED91FC915197808121
:1010900085FD2EC0F601038D10E00F5F1F4F0F730B
:1010A0001127F02EF601848DF81211C00FB607FC3F
:1010B000F9CFD6015096ED91FC915197808185FF33
:1010C000F1CFC60169830E94E8076981EBCF838D68
:1010D000E80FF11DE35AFF4F6083D6015B960C9336
:1010E0005B975296ED91FC915397808180620CC082
:1010F000D6015696ED91FC91579760835096ED91ED
:10110000FC91519780818064808381E090E00F9012
:10111000DF91CF911F910F91FF90DF90CF900895B5
:10112000BF92CF92DF92EF92FF92CF93DF93EC01C9
:101130006A017B01B22EE889F98982E0808341153A
:1011400081EE580761057105A1F060E079E08DE35B
:1011500090E0A70196010E94FA0A21503109410945
:1011600051095695479537952795211580E1380700
:1011700098F0E889F989108260E874E88EE190E0DF
:10118000A70196010E94FA0A21503109410951092B
:101190005695479537952795EC85FD853083EE85E7
:1011A000FF852083188EEC89FD89B082EA89FB894E
:1011B000808180618083EA89FB8980818860808367
:1011C000EA89FB89808180688083EA89FB89808144
:1011D0008F7D8083DF91CF91FF90EF90DF90CF9054
:1011E000BF9008951F920F920FB60F9211242F9364
:1011F0008F939F93EF93FF93E0911F02F091200252
:101200008081E0912502F091260282FD12C090813A
:10121000809128028F5F8F7320912902821751F0ED
:10122000E0912802F0E0E15FFD4F958F8093280266
:1012300001C08081FF91EF919F918F912F910F902D
:101240000FBE0F901F9018951F920F920FB60F921E
:1012500011242F933F934F935F936F937F938F93BB
:101260009F93AF93BF93EF93FF938FE092E00E9421
:10127000E807FF91EF91BF91AF919F918F917F917F
:101280006F915F914F913F912F910F900FBE0F90F3
:101290001F9018958FE092E00E94AD0721E0892B06
:1012A00009F420E0822F0895109212021092110288
:1012B00088EE93E0A0E0B0E08093130290931402D4
:1012C000A0931502B093160281E991E09093100269
:1012D00080930F0285EC90E090931C0280931B0298
:1012E00084EC90E090931E0280931D0280EC90E0CD
:1012F0009093200280931F0281EC90E09093220251
:101300008093210282EC90E0909324028093230248
:1013100086EC90E09093260280932502109228029A
:101320001092290210922A0210922B020895089519
:101330000E94BD060E9497090E94BD00CAEDD7E039
:101340000E9420012097E1F30E94DA07F9CFCF92A3
:10135000DF92EF92FF920F931F93CF93DF937C0165
:101360006A01EB0100E010E00C151D0571F06991B8
:10137000D701ED91FC910190F081E02DC701099515
:10138000892B19F00F5F1F4FEFCFC801DF91CF916D
:101390001F910F91FF90EF90DF90CF90089561150E
:1013A000710581F0DB010D900020E9F7AD0141509E
:1013B0005109461B570BDC01ED91FC910280F38132
:1013C000E02D099480E090E008950C94CF0962E448
:1013D00071E00C94CF090F931F93CF93DF93EC012F
:1013E0000E94CF098C01CE010E94E709800F911F56
:1013F000DF91CF911F910F9108958F929F92AF929D
:10140000BF92DF92EF92FF920F931F93CF93DF93E0
:10141000CDB7DEB7A1970FB6F894DEBF0FBECDBF34
:101420007C01F42FD52ECB0119A2223008F42AE03A
:101430008E010F5D1F4F822E912CA12CB12C6F2F8E
:101440007D2DA50194010E94FA0AF22FD32ECA0124
:10145000015011096A3014F4E0E301C0E7E3E60F3C
:10146000D801EC93232B242B252B49F7B801C70176
:101470000E94CF09A1960FB6F894DEBF0FBECDBF74
:10148000DF91CF911F910F91FF90EF90DF90BF9070
:10149000AF909F908F9008952115310541F4DC01A4
:1014A000ED91FC910190F081E02D642F09940C9452
:1014B000FD099A01462F50E060E070E00C944C0A60
:1014C0000F931F93CF93DF93EC010E944906688727
:1014D00079878A879B87E881F9810680F781E02DEB
:1014E000CE01099597FF15C00E9449060885198508
:1014F0002A853B85601B710B820B930B0C811D8130
:101500002E813F81601771078207930720F38FEFC9
:101510009FEFDF91CF911F910F910895CF92DF92AE
:10152000EF92FF920F931F93CF93DF937C016A0199
:10153000EB0100E010E00C151D0549F0C7010E9409
:10154000600A97FD04C089930F5F1F4FF4CFC80155
:10155000DF91CF911F910F91FF90EF90DF90CF908F
:101560000895611571058105910511F00C94AF0B7B
:101570000895CF93DF9300D000D0CDB7DEB79B01A5
:10158000AC01611571058105910569F069833A83A4
:101590004B835C830E94AA0B29813A814B815C8139
:1015A0000E941C0B03C060E070E0CB010F900F9015
:1015B0000F900F90DF91CF910895CF92DF92EF922D
:1015C000FF926B017C01621773078407950764F42F
:1015D000CA01B9016C197D098E099F090E94B90AD7
:1015E0006C0D7D1D8E1D9F1DFF90EF90DF90CF90A5
:1015F00008950895A1E21A2EAA1BBB1BFD010DC080
:10160000AA1FBB1FEE1FFF1FA217B307E407F507B2
:1016100020F0A21BB30BE40BF50B661F771F881F8E
:10162000991F1A9469F760957095809590959B0124
:10163000AC01BD01CF010895052E97FB1EF4009467
:101640000E94330B57FD07D00E94FA0A07FC03D013
:101650004EF40C94330B50954095309521953F4FA7
:101660004F4F5F4F089590958095709561957F4F8E
:101670008F4F9F4F08950E944C0BA59F900DB49FD4
:10168000900DA49F800D911D11240895EE0FFF1F52
:101690000590F491E02D0994A29FB001B39FC00181
:1016A000A39F700D811D1124911DB29F700D811D8E
:1016B0001124911D08958F929F92AF92BF92CF9265
:1016C000DF92EF92FF92CF93DF93EC0168817981F3
:1016D0008A819B81611571058105910521F464E280
:1016E00079ED8BE597E02DE133EF41E050E00E948A
:1016F0001C0B49015A019B01AC01A7EAB1E40E940D
:101700003B0B6B017C01ACEEB4EFA50194010E9490
:10171000C40BC60ED71EE81EF91EF7FE06C081E0F8
:10172000C81AD108E10880E8F80AC882D982EA829A
:10173000FB82C701B6019F77DF91CF91FF90EF90B9
:10174000DF90CF90BF90AF909F908F9008950E94B0
:101750005B0B089586E091E00E945B0B0895609317
:101760000601709307018093080190930901089581
:10177000FB01DC0102C001900D9241505040D8F7AE
:101780000895B7FF0C943B0B0E943B0B821B930BFD
:061790000895F894FFCF5C
:101796000000AC02800001000000314E6F6465005D
:1017A600324E6F646500015472616E736D697474B4
:1017B600656400564D4450565F317C315F564D444A
:1017C60050560D0A00564D4450435F005F564D4437
:1017D60050430D0A004572726F723A204174746567
:1017E6006D707420746F207365742061207265615A
:1017F600642D6F6E6C79207661726961626C65200A
:101806006F7220646174612074797065206E6F74E4
:1018160020737570706F727465640D0A00000000A5
:10182600002B08A709AD07C607B80709086E616E41
:0C18360000696E66006F7666002E0000F0
:00000001FF
