:1000000013C1000042C1000040C100003EC1000019
:100010003CC100003AC1000038C1000036C10000F8
:1000200034C1000032C1000030C100002EC1000008
:100030002CC100002AC1000028C1000026C1000018
:1000400024C1000022C1000020C100001EC1000028
:100050001CC100001AC1000018C1000027C5000023
:1000600014C100000C94A3080C94D9080EC1000020
:100070000CC100000AC1000008C1000006C1000058
:1000800004C1000002C1000000C10000FEC0000069
:10009000FCC00000FAC00000F8C00000F6C000007C
:1000A000F4C00000F2C00000F0C00000EEC000008C
:1000B000ECC00000EAC00000E8C00000E6C000009C
:1000C000E4C00000E2C00000E0C00000DEC00000AC
:1000D000DCC00000DAC00000D8C00000D6C00000BC
:1000E000D4C000008B068E067D0681068706C506F5
:1000F000920696069C06A006A406AA06AE06B206BE
:10010000C506B806BC06C0065300460011121314FB
:1001100015160A0B0C0D0E0F00010203040500005A
:100120000A0B02090C0D0E08070304010000000071
:1001300000000000000000000000000000000000BF
:10014000000000000000000000001211100000007C
:10015000000000000000000000000000000000009F
:10016000000000000102102020080810204010208C
:10017000408002010201080402010102040810206B
:100180004080804020100804020180040201804069
:1001900020100804020108040201010204081020D2
:1001A0004080010204081020408005050505070570
:1001B00008080808020202020A0A080804040404E3
:1001C000010101010101010103030303030303030F
:1001D000040707070C0C0C0C0C0C0C0C020202029E
:1001E00006060606060606060B0B0B0B0B0B0B0B87
:1001F00000002200250028002B002E0031003400D2
:1002000002010000050108010B010000210024008B
:1002100027002A002D0030003300010100000401F6
:1002200007010A01BD010B0911241FBECFEFD1E266
:10023000DEBFCDBF00E00CBF12E0A0E0B2E0E6EA16
:10024000F4E100E00BBF02C007900D92A433B107A8
:10025000D9F722E0A4E3B2E001C01D92AD3FB2079E
:10026000E1F712E0C8E2D2E000E006C022970109FF
:10027000FE010BBF0E94440AC432D10780E0080788
:10028000A9F70E944F090C94510ABACECF93DF937D
:1002900084E492E095D2882339F048E064E372E088
:1002A00084E492E090D2F4CFC8E0D0E0E091600224
:1002B000F09161020280F381E02D48E050E064E3B8
:1002C00072E080E692E01995219781F7DF91CF9156
:1002D000089548E050E06CE372E080E692E00E940E
:1002E000F90984E492E06CD2811104C084E492E0C4
:1002F000D3D101C0CBDF48E06CE372E084E492E04C
:1003000041D281110FC084E492E0E5D26AE071E04D
:1003100080E692E00E94BD0964E670E080E090E033
:100320003ED4D7CF68E071E080E692E00E94BD093C
:1003300084E492E0D0C226E040E052EC61E070E05C
:1003400080E692E0A0D684E492E054D363E084E4B3
:1003500092E0FAD262E070E084E492E00CD366E0CE
:1003600072E084E492E039D24CE052E061E084E44F
:1003700092E04AD284E492E0AEC248E067E084E4CE
:1003800092E079C180E692E06FD5181619060CF458
:10039000A0DF84E492E014D2811178CF0895CF9346
:1003A000CFB7F89480915602811123C0EFEDF1E0B0
:1003B0008491E9E9F1E09491E82FF0E0EE0FFF1F5E
:1003C000E65FFD4FA591B4918C91892319F461E00A
:1003D00085E315D561E085E3D9D48CB580618CBD0A
:1003E0008CB580648CBD61E084E3D0D461E083E3AC
:1003F000CDD4809156028F5F80935602CFBFCF91AC
:1004000008958EBD00000DB407FEFDCF8EB5089592
:100410002CB52F7D2CBD2CB5237F2CBD2CB52C7F6E
:100420002CBD2DB521602DBDFC018181E8D485E076
:1004300090E0ECC3FC01808191818913E0C40895B0
:1004400060E0E6CF61E0E4CFEF92FF921F93CF939D
:10045000DF931F92CDB7DEB77C016983F1DF69813D
:10046000862F8F71CEDF8FEFCCDF182FC701EADF29
:10047000812F0F90DF91CF911F91FF90EF90089502
:10048000CF92DF92EF92FF920F931F93CF93DF9360
:1004900000D0CDB7DEB78C01F22E4A835B8369832F
:1004A000CFDF6981862F8F718062ABDFE82E4A81B2
:1004B000C42E5B81D52EF40EFC1429F0F601819137
:1004C0006F019FDFF9CFC801BDDF8E2D0F900F9018
:1004D0000F90DF91CF911F910F91FF90EF90DF90E0
:1004E000CF900895EF92FF921F93CF93DF931F92C7
:1004F0001F92CDB7DEB77C014A836983A1DF698192
:10050000862F8F7180627DDF182F4A81842F79DFDB
:10051000C70198DF812F0F900F90DF91CF911F912E
:10052000FF90EF900895AF92BF92DF92EF92FF920B
:100530000F931F93CF93DF9300D0CDB7DEB78C011D
:10054000FC01E580F42EE41608F4FE2CF801868107
:10055000811102C0EF1801C0E12CC80129836A8310
:100560007B836EDF2981822F4CDFD82E6A81A62EF5
:100570007B81B72EF60EFA1429F0F50181915F0107
:1005800040DFF9CFEE2021F080E03BDFEA94FACFA4
:10059000C80158DF8D2D0F900F900F90DF91CF91F4
:1005A0001F910F91FF90EF90DF90BF90AF90089553
:1005B000AF92BF92DF92EF92FF920F931F93CF9370
:1005C000DF931F921F92CDB7DEB78C01FC01E5804F
:1005D000F42EE41608F4FE2CF8018681811102C085
:1005E000EF1801C0E12CC80169837A8329DF81E615
:1005F00008DFD82E6981A62E7A81B72EF60EFA145E
:1006000031F08FEFFEDEF50181935F01F8CFEE2030
:1006100021F08FEFF6DEEA94FACFC80113DF8D2DBB
:100620000F900F90DF91CF911F910F91FF90EF905E
:10063000DF90BF90AF900895EF92FF921F93CF93FA
:10064000DF931F92CDB7DEB77C016983F9DE698144
:10065000862FD7DE182FC701F5DE812F0F90DF918F
:10066000CF911F91FF90EF90089562EEE5CF61EE7C
:10067000E3CF6FEFE1CFFC0160834183148280E21E
:100680008583168285E0848717820895462F6E370A
:1006900008F04DE765E026CFCF93DF93EC0160E0F3
:1006A000C9DE8D859E85B2D26DE1CE01CDDE81FFA2
:1006B00005C08D859E85AAD2CE01D9DF60E0CE012E
:1006C000C3DE482F4E7F60E0CE010CDF62E0CE013A
:1006D000BBDEE8E1F1E0E49121E030E001C0220F6F
:1006E000EA95EAF7822B482F62E0CE01DF91CF91A5
:1006F000F9CECF93DF93EC0160E0A6DE81FD0CC064
:10070000482F426060E0CE01EDDE65E070E080E001
:1007100090E0DF91CF9143C2DF91CF9108950F9385
:10072000CF93DF93EC01222311F020EB01C020EAEC
:10073000CE01F9DE002331F061E0CE01DF91CF91EF
:100740000F9178CEDF91CF910F9108950F93CF93B2
:10075000DF93EC0101E0E3DFCE018BDF8073E1F397
:1007600060E0CE0167DE40E767E0CE01BBDE84FFDC
:1007700004C0CE017CDF80E001C081E0DF91CF9139
:100780000F91089520E0E2CF0F931F93CF93DF9353
:100790008C01EB0167E158DE80FD0AC0209751F023
:1007A000C80167DF90E0959587958770888302C0C0
:1007B00080E001C081E0DF91CF911F910F910895FA
:1007C00060E070E0E1CFCF93DF93EC01F1DE40E732
:1007D00067E0CE01DF91CF9185CE0F931F93CF932A
:1007E000DF93EC018B012C85AB016AE049DE2C859F
:1007F000A80160E1CE0144DE4D8161E1CE01DF91CF
:10080000CF911F910F916ECEFF920F931F93CF93B5
:10081000DF93EC01F62E8A01611106C04C8550E091
:10082000B801079635D607C086E0861708F433C0AE
:1008300081E0681307C0EF2DF0E0EE5EFE4F64919B
:100840002C8506C0E62FF0E0EE5EFE4F649121E0BD
:10085000A801CE0115DE0F2D10E0F801E45FFE4F78
:1008600064914D81CE013EDE62E0CE01EDDDF80106
:10087000E85EFE4F049121E030E001C0220F0A95AE
:10088000EAF7822B482F62E0CE01DF91CF911F91D2
:100890000F91FF9027CEDF91CF911F910F91FF9085
:1008A00008951F93CF93DF93EC01162F62E0CCDD08
:1008B000E12FF0E0E85EFE4FE49141E050E001C03E
:1008C000440FEA95EAF74095482362E0CE01DF91B4
:1008D000CF911F9107CECF93DF93EC010ADF60E049
:1008E000CE01B2DD482F416060E0CE01FBDD40E784
:1008F00067E0CE01F7DD61E0CE019CDD8F818823CA
:1009000041F02C85AE01495F5F4F6AE0CE01B8DD52
:1009100003C060E0CE01C5DF6DE1CE0195DD81FF52
:1009200004C0CE01DF91CF91A2CEDF91CF91089587
:10093000CF93DF93EC0184DD80E563DD83E761DD48
:10094000CE01DF91CF917ECD1F93CF93DF93EC014A
:10095000162F66E079DD887F143020F4612F660F52
:100960006F5F01C067E0462F482B66E0CE01DF9144
:10097000CF911F91B7CDEF92FF920F931F93CF931B
:10098000DF931F92CDB7DEB77C018B0166E05CDDA3
:10099000582F577D0230110531F450620BE910E0F9
:1009A00020E030E00DC00130110529F005E510E030
:1009B00020E030E005C0586001E410E020E030E0C5
:1009C000F701058716872787308B452F66E0C7011B
:1009D000598388DD66E0C70137DD91E059818513D1
:1009E00090E0892F0F90DF91CF911F910F91FF9091
:1009F000EF9008951F93CF93DF93EC018881998145
:100A0000891711F061E0C2D189819881981711F09E
:100A100061E0BCD1C4DC60E0CE010CDD61E0CE0160
:100A2000F7DC65E070E080E090E0B9D04CE060E099
:100A3000CE0158DD4FE564E0CE0154DD62E070E0A8
:100A4000CE0199DF882311F081E08C8366E0CE012E
:100A5000FBDC182F60E070E0CE018DDFCE0168DF97
:100A600040E06DE1CE013EDD40E06CE1CE013ADDDB
:100A700040E767E0CE0136DD6CE4CE0107DECE0153
:100A8000F4DDCE01F4DDCE0134DE60E0CE01DCDC4D
:100A9000482F4E7F60E0CE0125DD115081E01E3FE2
:100AA00008F080E0DF91CF911F9108951F920F927F
:100AB0000FB60F9211242F933F938F939F93AF9371
:100AC000BF938091580290915902A0915A02B0911F
:100AD0005B023091570223E0230F2D3720F401965B
:100AE000A11DB11D05C026E8230F0296A11DB11D51
:100AF000209357028093580290935902A0935A0270
:100B0000B0935B0280915C0290915D02A0915E02C5
:100B1000B0915F020196A11DB11D80935C0290937C
:100B20005D02A0935E02B0935F02BF91AF919F916F
:100B30008F913F912F910F900FBE0F901F9018959E
:100B40002FB7F894609158027091590280915A021F
:100B500090915B022FBF08953FB7F89480915C029B
:100B600090915D02A0915E02B0915F0226B5A89BB4
:100B700005C02F3F19F00196A11DB11D3FBF66278B
:100B8000782F892F9A2F620F711D811D911D42E0D0
:100B9000660F771F881F991F4A95D1F708958F9286
:100BA0009F92AF92BF92CF92DF92EF92FF926B0132
:100BB0007C01D2DF4B015C01C114D104E104F104DA
:100BC000E1F039D4C9DF681979098A099B09683EBF
:100BD00073408105910580F321E0C21AD108E10834
:100BE000F10888EE880E83E0981EA11CB11CC11488
:100BF000D104E104F10431F7DFCFFF90EF90DF90F3
:100C0000CF90BF90AF909F908F90089582309105C4
:100C100038F0880F991F880F991F05970197F1F7F2
:100C20000895789484B5826084BD84B5816084BD64
:100C300085B5826085BD85B5816085BDEEE6F0E055
:100C4000808181608083E1E8F0E0108280818260B1
:100C50008083808181608083E0E8F0E08081816032
:100C60008083E1EBF0E0808184608083E0EBF0E062
:100C7000808181608083E1E9F0E08081826080830F
:100C8000808181608083E0E9F0E080818160808301
:100C9000E1EAF0E0808182608083808181608083EE
:100CA000E0EAF0E0808181608083E1E2F1E0808130
:100CB00082608083808181608083E0E2F1E08081D6
:100CC00081608083EAE7F0E08081846080838081B6
:100CD000826080838081816080838081806880835E
:100CE0001092C100089590E0FC013197E231F105C6
:100CF00008F04BC0EE58FF4FC1C3809180008F7742
:100D000003C0809180008F7D809380000895809142
:100D10008000877FF9CF84B58F7702C084B58F7D3F
:100D200084BD08958091B0008F7703C08091B0009A
:100D30008F7D8093B0000895809190008F7707C0D9
:100D4000809190008F7D03C080919000877F809379
:100D5000900008958091A0008F7707C08091A00037
:100D60008F7D03C08091A000877F8093A0000895AD
:100D7000809120018F7707C0809120018F7D03C073
:100D800080912001877F809320010895CF93DF9386
:100D900090E0FC01EC59FE4F2491FC01E655FE4F1A
:100DA0008491882349F190E0880F991FFC01E65F48
:100DB000FD4FA591B49180519E4FFC01C591D491F6
:100DC0009FB7611108C0F8948C91209582238C9371
:100DD000888182230AC0623051F4F8948C91322FBA
:100DE000309583238C938881822B888304C0F89468
:100DF0008C91822B8C939FBFDF91CF9108950F939D
:100E00001F93CF93DF931F92CDB7DEB7282F30E02B
:100E1000F901E25EFE4F8491F901EC59FE4F149105
:100E2000F901E655FE4F04910023C1F0882319F023
:100E3000698359DF6981E02FF0E0EE0FFF1FE05179
:100E4000FE4FA591B4919FB7F8948C91611103C0A6
:100E50001095812301C0812B8C939FBF0F90DF9150
:100E6000CF911F910F910895FC01818D228D90E00B
:100E7000805C9F4F821B91098F7399270895FC0115
:100E8000918D828D981731F0828DE80FF11D858D3F
:100E900090E008958FEF9FEF0895FC01918D828D72
:100EA000981761F0828DDF01A80FB11D5D968C91BE
:100EB000928D9F5F9F73928F90E008958FEF9FEFC9
:100EC000089582E099E0892B39F080E090E0892B49
:100ED00019F098D1811125C080E090E0892B41F074
:100EE00080E090E0892B21F00E94000081111CC05D
:100EF00080E090E0892B41F080E090E0892B21F0A8
:100F00000E940000811113C080E090E0892BA1F0C5
:100F100080E090E0892B81F00E94000081110AC0DE
:100F200008950E940000D8CF0E940000E1CF0E94E7
:100F30000000EACF0C9400000895FC01848DDF01CD
:100F4000A80FB11DA35ABF4F2C91848D90E001963C
:100F50008F739927848FA689B7892C93A089B1892B
:100F60008C9180648C93938D848D981306C0028835
:100F7000F389E02D80818F7D80830895CF93DF9367
:100F8000EC01888D8823C1F0EA89FB89808185FD89
:100F900005C0A889B9898C9186FD0EC00FB607FCE3
:100FA000F5CF808185FFF2CFA889B9898C9185FF23
:100FB000EDCFCE01C2DFE8CFDF91CF910895CF9280
:100FC000DF92FF920F931F93CF93DF931F92CDB7C2
:100FD000DEB76C0181E0D60158968C9358975B96EA
:100FE0009C915B975C968C915C97981307C0509688
:100FF000ED91FC915197808185FD2DC0F601038D07
:1010000010E00F5F1F4F0F731127F02EF601848D34
:10101000F81210C00FB607FCF9CFD6015096ED912B
:10102000FC915197808185FFF1CFC601698385DFEF
:101030006981ECCF838DE80FF11DE35AFF4F608388
:10104000D6015B960C935B975296ED91FC9153976A
:10105000808180620CC0D6015696ED91FC91579725
:1010600060835096ED91FC915197808180648083DC
:1010700081E090E00F90DF91CF911F910F91FF9051
:10108000DF90CF900895BF92CF92DF92EF92FF92C0
:10109000CF93DF93EC016A017B01B22EE889F989D5
:1010A00082E08083411581EE58076105710599F052
:1010B00060E079E08DE390E0A7019601BDD1215079
:1010C00031094109510956954795379527952115BD
:1010D00080E1380790F0E889F989108260E874E8C7
:1010E0008EE190E0A7019601A7D121503109410975
:1010F00051095695479537952795EC85FD853083A1
:10110000EE85FF852083188EEC89FD89B082EA89FF
:10111000FB89808180618083EA89FB898081886086
:101120008083EA89FB89808180688083EA89FB89E2
:1011300080818F7D8083DF91CF91FF90EF90DF9052
:10114000CF90BF9008951F920F920FB60F92112467
:101150000BB60F922F938F939F93EF93FF93E09192
:101160007002F09171028081E0917602F091770235
:1011700082FD12C09081809179028F5F8F732091E0
:101180007A02821751F0E0917902F0E0E05AFD4FC7
:10119000958F8093790201C08081FF91EF919F919B
:1011A0008F912F910F900BBE0F900FBE0F901F903D
:1011B00018951F920F920FB60F9211240BB60F9233
:1011C0002F933F934F935F936F937F938F939F934F
:1011D000AF93BF93EF93FF9380E692E0AEDEFF9173
:1011E000EF91BF91AF919F918F917F916F915F919F
:1011F0004F913F912F910F900BBE0F900FBE0F900C
:101200001F90189580E692E02FDE21E0892B09F4EB
:1012100020E0822F0895109263021092620288EEFD
:1012200093E0A0E0B0E08093640290936502A09305
:101230006602B093670286E192E090936102809328
:10124000600285EC90E090936D0280936C0284ECD8
:1012500090E090936F0280936E0280EC90E0909308
:1012600071028093700281EC90E0909373028093FE
:10127000720282EC90E0909375028093740286EC87
:1012800090E0909377028093760210927902109208
:101290007A0210927B0210927C0208950895C1DCBC
:1012A000FDDF49D8C1E6D7E06DD82097E9F309DE24
:1012B000FBCFCF92DF92EF92FF920F931F93CF93CA
:1012C000DF937C016A01EB0100E010E00C151D05C5
:1012D00071F06991D701ED91FC910190F081E02DC1
:1012E000C7011995892B19F00F5F1F4FEFCFC80168
:1012F000DF91CF911F910F91FF90EF90DF90CF90F2
:1013000008956115710581F0DB010D900020E9F76A
:10131000AD0141505109461B570BDC01ED91FC9189
:101320000280F381E02D199480E090E00895EF921F
:10133000FF920F931F93CF93DF938C017B01C0E04B
:10134000D0E0F701EC0FFD1F6491662359F0F8011E
:10135000A081B181ED91FC91C8011995892B11F003
:101360002196EFCFCE01DF91CF911F910F91FF908A
:10137000EF90089562E272E0C4CF0F931F93CF9372
:10138000DF93EC01D4DF8C01CE01F4DF800F911FDD
:10139000DF91CF911F910F9108950F931F93CF93DA
:1013A000DF93EC01CDDB688779878A879B87E881AB
:1013B000F9810680F781E02DCE01199597FF14C0C1
:1013C000BFDB088519852A853B85601B710B820B65
:1013D000930B0C811D812E813F816017710782075D
:1013E000930728F38FEF9FEFDF91CF911F910F911C
:1013F0000895CF92DF92EF92FF920F931F93CF93B6
:10140000DF937C016A01EB0100E010E00C151D0583
:1014100041F0C701C2DF97FD04C089930F5F1F4FE2
:10142000F5CFC801DF91CF911F910F91FF90EF9001
:10143000DF90CF9008950895A1E21A2EAA1BBB1B3E
:10144000FD010DC0AA1FBB1FEE1FFF1FA217B30790
:10145000E407F50720F0A21BB30BE40BF50B661FA6
:10146000771F881F991F1A9469F76095709580956A
:1014700090959B01AC01BD01CF010895EE0FFF1FB8
:101480000590F491E02D19940790F691E02D1994B0
:10149000FB01DC0102C001900D9241505040D8F791
:0614A0000895F894FFCF4F
:1014A6000000FD028000314E6F646500324E6F64AD
:1014B600650000000000DF07590934074D073F07A4
:1014C600BE070D0A006E616E00696E66006F766675
:0414D600002E0000E4
:00000001FF
