:100000004AC1000079C1000077C1000075C100003D
:1000100073C1000071C100006FC100006DC100001C
:100020006BC1000069C1000067C1000065C100002C
:1000300063C1000061C100005FC100005DC100003C
:100040005BC1000059C1000057C1000055C100004C
:1000500053C1000051C100004FC100000C94D91FD2
:100060004BC100000C9423230C94592345C100007C
:1000700043C1000041C100003FC100003DC100007C
:100080003BC1000039C1000037C1000035C100008C
:100090000C94CE230C9404242FC100007DC70000D3
:1000A0002BC1000029C1000027C1000025C10000AC
:1000B00023C1000021C100001FC100001DC10000BC
:1000C0001BC1000019C1000017C100000C94792465
:1000D0000C94AF2411C100000C9424250C945A25D3
:1000E0000BC10000470C5E0C5E0C5B0C5E0C450CFB
:1000F0005E0C5E0C5E0C390C5E0C5E0C4E0C590CEA
:10010000570C5E0C5E0C5E0C550C0E21112100216B
:1001100004210A214821152119211F2123212721EA
:100120002D213121352148213B213F2143214A7591
:100130006E20323220323031360030393A33333AA1
:100140003538001112131415160A0B0C0D0E0F0082
:1001500001020304057C3C3E5E2B3D3F2F5B5D3B73
:100160002C2A225C0000000A0B02090C0D0E080765
:100170000304010000000000000000000000000077
:10018000000000000000000000000000000000006F
:10019000001211100000000000000000000000002C
:1001A00000000000000000000000000102102020FC
:1001B00008081020401020408002010201080402BB
:1001C0000101020408102040808040201008040231
:1001D000018004020180402010080402010804028A
:1001E0000101020408102040800102040810204090
:1001F0008005050505070508080808020202020A2D
:100200000A080804040404010101010101010103B9
:1002100003030303030303040707070C0C0C0C0C74
:100220000C0C0C0202020206060606060606060B67
:100230000B0B0B0B0B0B0B000020002300260029DF
:10024000002C002F0032000001000003010601090C
:100250000100002200250028002B002E0031003470
:100260000002010000050108010B0100002100242B
:100270000027002A002D0030003300010100000497
:100280000107010A01003E04E30661108B233624B6
:10029000E1248C25470411241FBECFEFD1E2DEBF3D
:1002A000CDBF00E00CBF12E0A0E0B2E0E0E4F5E575
:1002B00000E00BBF02C007900D92A63FB107D9F72F
:1002C00028E0A6EFB2E001C01D92AD3CB207E1F715
:1002D00012E0C4E9D2E000E006C022970109FE0165
:1002E0000BBF0E940D28C638D10780E00807A9F788
:1002F0000E94D0250C948F2A83CECF92DF92EF926A
:10030000FF920F931F93CF93DF9300D000D0CDB710
:10031000DEB78C017B016A0167EE72E00E94002764
:10032000F60181818823A1F0F701608170E06053BC
:10033000784F4AE0CE0101960E945627BE016F5FBA
:100340007F4FC8010E94AA27CE0101960E949926DC
:10035000F6018081882329F061E272E0C8010E94E1
:10036000B027F60182818823E1F0F70161816A30CC
:1003700048F463E272E0C8010E94B0274AE0F70146
:10038000618101C04AE0CE0101960E942B27BE0187
:100390006F5F7F4FC8010E94AA27CE0101960E947D
:1003A0009926F6018081882329F061E272E0C80174
:1003B0000E94B027F60183818823E1F0F701628172
:1003C0006A3048F463E272E0C8010E94B0274AE054
:1003D000F701628101C04AE0CE0101960E942B27FD
:1003E000BE016F5F7F4FC8010E94AA27CE01019610
:1003F0000E949926F6018081882329F065E272E047
:10040000C8010E94B027F60184818823E1F0F7013A
:1004100063816A3048F463E272E0C8010E94B02749
:100420004AE0F701638101C04AE0CE0101960E94D3
:100430002B27BE016F5F7F4FC8010E94AA27CE0104
:1004400001960E949926F6018081882329F067E2AF
:1004500072E0C8010E94B027F60185818823E1F08F
:10046000F70164816A3048F463E272E0C8010E94D7
:10047000B0274AE0F701648101C04AE0CE0101964D
:100480000E942B27BE016F5F7F4FC8010E94AA27E1
:10049000CE0101960E949926F6018081882329F0D9
:1004A00067E272E0C8010E94B027F60186818823C6
:1004B000E1F0F70165816A3048F463E272E0C80157
:1004C0000E94B0274AE0F701658101C04AE0CE01F1
:1004D00001960E942B27BE016F5F7F4FC8010E94CB
:1004E000AA27CE0101960E949926C80126960FB62A
:1004F000F894DEBF0FBECDBFDF91CF911F910F915A
:10050000FF90EF90DF90CF900895CF93DF9300D0CE
:1005100000D0CDB7DEB720912603203609F458C0AD
:10052000213631F4BC01CE0101960E94F40B50C07B
:10053000223671F4E0915506F09156060280F3815F
:10054000E02D48E050E064E273E085E596E03FC0CE
:10055000233681F02436E1F4E0915506F0915606F9
:100560000280F381E02D48E050E064E273E085E52D
:1005700096E01995E091F206F091F3060280F3817E
:10058000E02D48E050E064E273E082EF96E01FC0A7
:10059000253671F4E0918F07F09190070280F38186
:1005A000E02D48E050E064E273E08FE897E00FC090
:1005B000263671F4E0912C08F0912D080280F38129
:1005C000E02D48E050E064E273E08CE298E0199599
:1005D00026960FB6F894DEBF0FBECDBFDF91CF9148
:1005E0000895CF93DF93EB012A813B81FC01338394
:1005F00022834C815D816E817F8144835583668334
:100600007783488559856A857B85408751876287CE
:1006100073872DE0FE013C96DC011C9601900D9243
:100620002A95E1F7298D3A8DFC01328F218FDF91D8
:10063000CF910895EF92FF920F931F93CF93DF9383
:10064000CDB7DEB7A1970FB6F894DEBF0FBECDBF12
:100650007C0182E193E040D7882309F462C048E03E
:1006600064E273E082E193E03AD7B701CE010196EC
:100670000E94F40B46E052E0BE016F5F7F4FCE0157
:100680004C963BDE69E272E0CE014C960E94B027A8
:1006900004E213E0F80161918F0140E1CE0101967F
:1006A0000E942B27BE016F5F7F4FCE014C960E94A8
:1006B000AA27CE0101960E94992666E672E0CE0135
:1006C0004C960E94B027F3E00C321F0719F723E184
:1006D0004BE352E06DEE73E0CE0101960E94E20F13
:1006E000BE016F5F7F4F86EF92E07BDFCE01019608
:1006F0000E94650EBE01645E7F4F86EF92E00E940D
:100700002B2686EF92E00E94B80EB701CE0101962B
:100710000E94F40BCE010196F8DECE014C960E94A9
:100720009926A1960FB6F894DEBF0FBECDBFDF911C
:10073000CF911F910F91FF90EF9008950F93CF935A
:10074000DF93CDB7DEB7A7970FB6F894DEBF0FBE25
:10075000CDBF0DE02CE04BE06AE08DEE93E00E940F
:10076000CA0E26E040E052EC61E070E085E596E0DC
:100770000E94C32226E040E052EC61E070E082EF8C
:1007800096E00E94C32226E040E052EC61E070E077
:100790008FE897E00E94C3228CE293E08DD281E142
:1007A00093E00E94880C81E193E00E94F30C811198
:1007B0000CC04AE351E06EE271E0CE0101960E9466
:1007C0000C0CCE0101960E948D0C82E193E09FD724
:1007D00063E082E193E045D765E172E082E193E076
:1007E00088D64DE052E061E082E193E099D682E163
:1007F00093E0FED623E14BE352E06DEE73E0CE01D1
:1008000001960E94E20FBE016F5F7F4F86EF92E07C
:10081000E8DECE0101960E94650ECE0182960E940E
:10082000170DBE016E5D7F4FCE010196DDD746E00C
:1008300052E0BE016F5F7F4FCE014C965EDDBE0180
:10084000645E7F4F86EF92E00E941A2663E472E0B6
:1008500086EF92E00E943B2686EF92E00E94B80E5F
:10086000CE014C960E949926A7960FB6F894DEBF4B
:100870000FBECDBFDF91CF910F91089545E064E0A9
:1008800082E193E0E5D586EF92E00C94520E86EF7C
:1008900092E00C94650EEF92FF920F931F93CF930B
:1008A000DF93CDB7DEB7A1970FB6F894DEBF0FBECA
:1008B000CDBF8C0185E596E00E94B721892B09F414
:1008C0003DC048E050E064E273E085E596E00E94B8
:1008D0007726B801CE01019687D746E052E0BE01E7
:1008E0006F5F7F4FCE014C9608DD61E572E0CE016F
:1008F0004C960E94B02734E2E32E33E0F32EF7014A
:1009000061917F0140E1CE0101960E942B27BE013B
:100910006F5F7F4FCE014C960E94AA27CE010196B1
:100920000E94992666E672E0CE014C960E94B0279E
:10093000FCE2EF16F3E0FF0611F7CBC082EF96E082
:100940000E94B721892B09F43DC048E050E064E2E1
:1009500073E085E596E00E947726B801CE01019606
:1009600043D746E052E0BE016F5F7F4FCE014C9609
:10097000C4DC68E672E0CE014C960E94B02724E207
:10098000E22E23E0F22EF70161917F0140E1CE01DA
:1009900001960E942B27BE016F5F7F4FCE014C96C0
:1009A0000E94AA27CE0101960E94992666E672E06F
:1009B000CE014C960E94B027FCE2EF16F3E0FF0652
:1009C00011F787C08FE897E00E94B721892B09F4BF
:1009D0003DC048E050E064E273E085E596E00E94A7
:1009E0007726B801CE010196FFD646E052E0BE015F
:1009F0006F5F7F4FCE014C9680DC6FE772E0CE01D7
:100A00004C960E94B02794E2E92E93E0F92EF7016C
:100A100061917F0140E1CE0101960E942B27BE012A
:100A20006F5F7F4FCE014C960E94AA27CE010196A0
:100A30000E94992666E672E0CE014C960E94B0278D
:100A4000FCE2EF16F3E0FF0611F743C08CE298E0FA
:100A50000E94B721892B09F465C048E050E064E2A8
:100A600073E085E596E00E947726B801CE010196F5
:100A7000BBD646E052E0BE016F5F7F4FCE014C9681
:100A80003CDC66E972E0CE014C960E94B02784E21D
:100A9000E82E83E0F82EF70161917F0140E1CE015D
:100AA00001960E942B27BE016F5F7F4FCE014C96AF
:100AB0000E94AA27CE0101960E94992666E672E05E
:100AC000CE014C960E94B027FCE2EF16F3E0FF0641
:100AD00011F723E14BE352E06DEE73E0CE01019696
:100AE0000E94E20FBE016F5F7F4F86EF92E079DDDB
:100AF000CE0101960E94650EBE01645E7F4F86EFB7
:100B000092E00E942B2686EF92E00E94B80EB80178
:100B1000CE01019669D6CE010196F7DCCE014C9646
:100B20000E949926A1960FB6F894DEBF0FBECDBFE6
:100B3000DF91CF911F910F91FF90EF900895CF9388
:100B4000DF93CDB7DEB72C970FB6F894DEBF0FBE9C
:100B5000CDBFCE0107966BD7BE01695F7F4FCE0137
:100B6000019642D6CE01019665DDBE01695F7F4FD9
:100B7000CE01019639D6CE0101968DDE2C960FB6A8
:100B8000F894DEBF0FBECDBFDF91CF910895809165
:100B90005C0390E020915D03821B910908952091F0
:100BA0005D0380915C03281750F4E22FF0E0E25AD5
:100BB000FC4F808190E02F5F20935D0308958FEFBD
:100BC0009FEF0895E0915D0380915C03E81730F496
:100BD000F0E0E25AFC4F808190E008958FEF9FEFA4
:100BE00008950895CF92DF92EF92FF920F931F9393
:100BF000CF93DF937C01CB018A012091380322231C
:100C000089F0EB016B01C40ED51ECC15DD0561F03A
:100C10006991D701ED91FC910190F081E02DC70120
:100C20001995F3CF642F8FD1C801DF91CF911F9118
:100C30000F91FF90EF90DF90CF900895CF93DF93C7
:100C40001F92CDB7DEB76983209138032223D1F0FC
:100C500020913903203240F021E030E0FC01338361
:100C6000228380E090E014C080913A03E82FF0E006
:100C7000E55CFC4F998190838F5F80933A0380936A
:100C8000390304C061E0CE0101965DD181E090E0BE
:100C90000F90DF91CF910895FC011382128248EEEC
:100CA00053E060E070E0448355836683778381EB93
:100CB00092E091838083089510925D0310925C030B
:100CC00010923A031092390381C081E08093380377
:100CD00060935B0310923A03109239030895F5CFA5
:100CE0000F93062F21E0409139036BE373E080916D
:100CF0005B03D2D010923A0310923903109238035A
:100D00000F9108958F929F92AF92BF92CF92DF92F0
:100D1000EF92FF920F931F93CF93DF93EC01F62E88
:100D2000D42E48015901EE2009F1CFDF1E2D1430D9
:100D300008F013E01150B8F0E881F98128E0129F23
:100D4000B0011124A501940104C05695479537952B
:100D500027956A95D2F7CA01B9010190F081E02D7B
:100D6000CE011995E7CF60E0CE01BADF4D2D4132BB
:100D700008F040E22C2D6EE573E08F2D45D01092E7
:100D80005D0380935C03DF91CF911F910F91FF90E2
:100D9000EF90DF90CF90BF90AF909F908F9008958D
:100DA000CF92EF920F931F93C22EE12C00E010E040
:100DB0009801A8DF1F910F91EF90CF90089521E047
:100DC000EFCF61E08DCF8CE293E066CF1092EB0322
:100DD00081E08093E9031092E80361E084E10E94DE
:100DE000822161E085E10E948221E9EBF0E08081CF
:100DF0008E7F808380818D7F808388E48093B8009C
:100E000085E48093BC000895413208F043C090917E
:100E1000EB039111FCCF91E09093EB032093E90356
:100E20002FEF20937E031092C303240F2093C2035D
:100E30009093EA039091EA03880F892B8093EA0349
:100E40008091E803813061F41092E8038091EA0315
:100E50008093BB008091BC0083FDF8CF85EC01C07E
:100E600085EE8093BC008091EB038130E1F38091AB
:100E7000C303841710F44091C30324EC33E0FB0157
:100E8000D9018A2F821B841718F48D918193F9CF91
:100E9000842F089580E008950F93413208F04AC0EE
:100EA0009091EB039111FCCF92E09093EB030093B0
:100EB000E9039FEF90937E031092C3034093C20314
:100EC000FB0164EC73E0DB019A2F961B941718F476
:100ED00091919D93F9CF1092EA039091EA03880FC4
:100EE000892B8093EA038091E803813061F41092AA
:100EF000E8038091EA038093BB008091BC0083FDEE
:100F0000F8CF85EC01C085EE8093BC00222321F050
:100F10008091EB038230E1F380917E038F3F61F09B
:100F200080917E03803251F080917E03803341F4C2
:100F300083E007C081E005C080E003C082E001C01B
:100F400084E00F910895613298F42091EB032430EE
:100F500089F46093A003FC0182EA93E0DC012A2F6C
:100F6000281B261718F421912D93F9CF80E00895BE
:100F700081E0089582E0089585ED8093BC00809122
:100F8000BC0084FDFCCF1092EB03089585EC8093A8
:100F9000BC001092EB0308951F920F920FB60F92B0
:100FA00011240BB60F922F933F934F935F936F9340
:100FB0007F938F939F93AF93BF93EF93FF93809112
:100FC000B900887F803609F49DC070F5883209F435
:100FD0005CC090F4803109F455C038F4882309F4DA
:100FE000F3C0883009F44EC0F2C0883109F44DC016
:100FF000803209F45EC0EBC0803409F469C050F45B
:10100000803309F456C0883309F0E1C080937E0331
:10101000BDDFDDC0803509F44FC0883509F45DC0FF
:10102000883409F0D4C0D2C0883909F4C3C0A8F408
:10103000883709F467C038F4883609F463C080370C
:1010400009F460C0C4C0883809F4B4C0803909F418
:101050005FC0803809F0BBC05BC0803B09F482C030
:1010600038F4803A09F466C0883A09F47BC0AFC00E
:10107000803C09F4A3C0883C09F4A0C0883B09F473
:1010800086C0A5C08091EA0310C09091C3038091EF
:10109000C203981770F5E091C30381E08E0F80932F
:1010A000C303F0E0EC53FC4F80818093BB0085ECE0
:1010B00082C080937E038AC0E091C30381E08E0FDB
:1010C0008093C3038091BB00F0E0EC53FC4F80831E
:1010D0009091C3038091C2036AC0E091C30381E091
:1010E0008E0F8093C3038091BB00F0E0EC53FC4F64
:1010F00080838091E903811169C081E08093E803D6
:1011000084EA5DC083E08093EB0310927F03CFCF2E
:1011100080917F03803208F04DC0E0917F0381E031
:101120008E0F80937F038091BB00F0E0E058FC4F6E
:101130008083BDCF2BDF80917F03803230F4E0913C
:101140007F03F0E0E058FC4F108260917F0370E075
:10115000E091E403F091E50380E893E019951092A3
:101160007F0335C084E08093EB031092A1031092BB
:10117000A003E091E603F091E70319958091A003A5
:10118000811105C081E08093A0031092A203E09139
:10119000A10381E08E0F8093A103F0E0EE55FC4F98
:1011A00080818093BB009091A1038091A003981748
:1011B00008F47DCF85E88093BC0009C085EC80935E
:1011C000BC001092EB0303C010927E03D5DEFF91AA
:1011D000EF91BF91AF919F918F917F916F915F91AF
:1011E0004F913F912F910F900BBE0F900FBE0F901C
:1011F0001F901895CF93CFB7F8948091EC0381118D
:1012000027C0E6E2F2E08491E0EEF1E09491E82F6D
:10121000F0E0EE0FFF1FE559FD4FA591B4918C91C1
:10122000892321F461E085E30E94822161E085E366
:101230000E9449218CB580618CBD8CB580648CBDC9
:1012400061E084E30E94492161E083E30E94492137
:101250008091EC038F5F8093EC03CFBFCF91089513
:101260008EBD00000DB407FEFDCF8EB508952CB5E0
:101270002F7D2CBD2CB5237F2CBD2CB52C7F2CBDF8
:101280002DB521602DBDFC0181810E94822185E068
:1012900090E00C948920FC018081918189130C9449
:1012A0008221089560E0E3CF61E0E1CFEF92FF9209
:1012B0001F93CF93DF931F92CDB7DEB77C01698375
:1012C000F1DF6981862F8F71CBDF8FEFC9DF182F98
:1012D000C701EADF812F0F90DF91CF911F91FF901F
:1012E000EF900895CF92DF92EF92FF920F931F93AA
:1012F000CF93DF9300D0CDB7DEB78C01F22E4A83B7
:101300005B836983CFDF6981862F8F718062A8DF5D
:10131000E82E4A81C42E5B81D52EF40EFC1429F0F0
:10132000F60181916F019CDFF9CFC801BDDF8E2DE1
:101330000F900F900F90DF91CF911F910F91FF9021
:10134000EF90DF90CF900895EF92FF921F93CF938D
:10135000DF931F921F92CDB7DEB77C014A8369836A
:10136000A1DF6981862F8F7180627ADF182F4A8111
:10137000842F76DFC70198DF812F0F900F90DF91C8
:10138000CF911F91FF90EF900895AF92BF92DF929F
:10139000EF92FF920F931F93CF93DF931F921F92B1
:1013A000CDB7DEB78C01FC01E580F42EE41608F41D
:1013B000FE2CF8018681811102C0EF1801C0E12CDA
:1013C000C80169837A836EDF81E64ADFD82E69819E
:1013D000A62E7A81B72EF60EFA1431F08FEF40DF89
:1013E000F50181935F01F8CFEE2021F08FEF38DF18
:1013F000EA94FACFC80158DF8D2D0F900F90DF913E
:10140000CF911F910F91FF90EF90DF90BF90AF9021
:101410000895EF92FF921F93CF93DF931F92CDB762
:10142000DEB77C0169833EDF6981862F19DF182FC3
:10143000C7013ADF812F0F90DF91CF911F91FF906D
:10144000EF90089562EEE5CF61EEE3CF6FEFE1CF6D
:10145000FC0160834183148280E28583168285E0EB
:10146000848717820895462F6E3708F04DE765E0B0
:101470006BCFCF93DF93EC0160E018DF81FD0DC0EF
:10148000482F426060E0CE015FDF65E070E080E001
:1014900090E0DF91CF910C945220DF91CF9108958D
:1014A0000F931F93CF93DF938C01EB0167E1FEDE77
:1014B00080FD0AC0209751F0C801C8DF90E09595E3
:1014C00087958770888302C080E001C081E0DF914A
:1014D000CF911F910F91089560E070E0E1CFCF931D
:1014E000DF93EC0152DF40E767E0CE01DF91CF915F
:1014F0002BCF0F931F93CF93DF93EC018B012C85A0
:10150000AB016AE0EFDE2C85A80160E1CE01EADEE6
:101510004D8161E1CE01DF91CF911F910F9114CFE9
:10152000FF920F931F93CF93DF93EC01F62E8A0166
:10153000611107C04C8550E0B80107960E94322A1D
:1015400007C086E0861708F433C081E0681307C03F
:10155000EF2DF0E0E75BFE4F64912C8506C0E62F8F
:10156000F0E0E75BFE4F649121E0A801CE01BADE16
:101570000F2D10E0F801ED5BFE4F64914D81CE011F
:10158000E3DE62E0CE0192DEF801E15BFE4F049102
:1015900021E030E001C0220F0A95EAF7822B482FA4
:1015A00062E0CE01DF91CF911F910F91FF90CCCEE1
:1015B000DF91CF911F910F91FF9008951F93CF93CB
:1015C000DF93EC01162F62E071DEE12FF0E0E15BCA
:1015D000FE4FE49141E050E001C0440FEA95EAF784
:1015E0004095482362E0CE01DF91CF911F91ACCEB0
:1015F000CF93DF93EC013DDF60E0CE0157DE482F53
:10160000416060E0CE01A0DE40E767E0CE019CDEF5
:1016100061E0CE0140DE8F81882341F02C85AE0150
:10162000495F5F4F6AE0CE015DDE03C060E0CE013E
:10163000C5DF6DE1CE013ADE81FF04C0CE01DF914E
:10164000CF9102CFDF91CF910895CF93DF93EC013B
:1016500029DE80E505DE83E703DECE01DF91CF9151
:1016600023CE1F93CF93DF93EC01162F66E01EDE8F
:10167000887F143020F4612F660F6F5F01C067E030
:10168000462F482B66E0CE01DF91CF911F915CCEB3
:10169000EF92FF920F931F93CF93DF931F92CDB7DB
:1016A000DEB77C018B0166E001DE582F577D0230EA
:1016B000110531F450620BE910E020E030E00DC07C
:1016C0000130110529F005E510E020E030E005C00B
:1016D000586001E410E020E030E0F701058716874C
:1016E0002787308B452F66E0C70159832DDE66E0E2
:1016F000C701DCDD91E05981851390E0892F0F90BF
:10170000DF91CF911F910F91FF90EF9008951F935C
:10171000CF93DF93EC0188819981891719F061E0FB
:101720000E94492189819881981719F061E00E94EF
:10173000492160DD60E0CE01AEDD61E0CE0197DDE4
:1017400065E070E080E090E00E9452204CE060E0B4
:10175000CE01FADD4FE564E0CE01F6DD62E070E037
:10176000CE0196DF882311F081E08C8366E0CE0104
:101770009DDD182F60E070E0CE018ADFCE0165DFCD
:1017800040E06DE1CE01E0DD40E06CE1CE01DCDD6A
:1017900040E767E0CE01D8DD6CE4CE0164DECE0127
:1017A00051DECE0151DECE0164DE60E0CE017EDD91
:1017B000482F4E7F60E0CE01C7DD115081E01E3F13
:1017C00008F080E0DF91CF911F910895FC01208106
:1017D00020532A3008F020E0FC0181818053FAE098
:1017E0002F9F800D11240895FC01DB018C918083D3
:1017F00011968C911197818312968C911297828306
:1018000013968C911397838314968C9114978483E9
:1018100015968C9185830895CF92DF92EF92FF9277
:101820000F931F93CF93DF93CDB7DEB72B970FB6F0
:10183000F894DEBF0FBECDBF7C016A014BE050E0E3
:10184000CE0101960E941C2ACE010A96BFDFF70145
:1018500080830981112707FD1095212F312FF80171
:10186000E154F109E331F10548F5EE58FF4F0C94CE
:10187000EE278A81813639F08B818E3611F486E02D
:101880001BC087E019C081E017C082E015C08B81C2
:10189000823711F484E010C088E00EC08B8182375B
:1018A00011F483E009C085E007C089E005C08AE043
:1018B00003C08BE001C08CE0F7018183CE01059667
:1018C00085DFF701828348E050E0B601CE01019642
:1018D0000E941C2ACE01019679DFF7018383CE0195
:1018E000049674DFF7018483CE0107966FDFF7015A
:1018F00085832B960FB6F894DEBF0FBECDBFDF9168
:10190000CF911F910F91FF90EF90DF90CF900895AE
:101910008CE293E0D1D981E008951F93CF93DF93B8
:10192000EC0168E670E08CE293E0D9D960E08CE2EB
:1019300093E084D92D811AE0822F612F0E94C02765
:10194000682F660F680F660F620F8CE293E076D9FE
:101950002C81822F612F0E94C027682F660F680F8D
:10196000660F620F8CE293E069D92B81822F612F81
:101970000E94C027682F660F680F660F620F8CE207
:1019800093E05CD960E08CE293E058D92A81822F01
:10199000612F0E94C027682F660F680F660F620FC5
:1019A0008CE293E04BD92981822F612F0E94C027BE
:1019B000682F660F680F660F620F8CE293E03ED9C6
:1019C0002881822F612F0E94C027682F660F680F21
:1019D000660F620F8CE293E031D98CE293E0DF91E5
:1019E000CF911F91EEC9CF93DF9368E670E08CE250
:1019F00093E075D960E08CE293E020D98CE293E02B
:101A0000E0D941E050E068E670E08CE293E0D7D99D
:101A10008CE293E0C4D887FB882780F9C82F80E048
:101A2000D82F81E0C8278C2FDF91CF910895CF92D6
:101A3000DF92EF92FF920F931F93CF93DF93EC010E
:101A400068E670E08CE293E04AD960E08CE293E0D3
:101A5000F5D88CE293E0B5D947E050E068E670E055
:101A60008CE293E0ACD98CE293E099D88F77982FF1
:101A700092959F701AEF082F919F000D11248CE210
:101A800093E08DD89C013327A4E035952795AA953E
:101A9000E1F7F82E129FF00C11248CE293E07FD82E
:101AA0009C013327B4E035952795BA95E1F7E82EE8
:101AB000129FE00C11248CE293E071D88CE293E049
:101AC0006ED89C01332794E0359527959A95E1F7D8
:101AD000D82E129FD00C11248CE293E060D89C0188
:101AE000332744E0359527954A95E1F7C82E129F94
:101AF000C00C11248CE293E052D89C01332754E0AF
:101B0000359527955A95E1F7129F800D112488830A
:101B1000C982DA82EB82FC820D83CE01DF91CF9104
:101B20001F910F91FF90EF90DF90CF900895CF938A
:101B3000DF931F92CDB7DEB76983DC01ED91FC9195
:101B40000280F381E02D41E050E0BE016F5F7F4FE6
:101B500019950F90DF91CF910895CF93DF93EC010A
:101B6000898D9A8D009759F0FC01138212820E9490
:101B70009519E98DFA8D22813381232B31F081E093
:101B800090E09B838A8380E090E0DF91CF9108957D
:101B9000FC01818D928D009711F00C9447170895E8
:101BA000CF93DF931F92CDB7DEB741E050E0BE0187
:101BB0006F5F7F4F82D7019719F4898190E002C04F
:101BC0008FEF9FEF0F90DF91CF910895FC01818DF2
:101BD000928D009709F0E4CF8FEF9FEF08950F9358
:101BE0001F93CF93DF938C01FC01818D928D009721
:101BF000B1F0D6DFEC018F3FFFEF9F0799F0F801BE
:101C0000818D928DFC014285538564857585415097
:101C10005109610971090E94AC16CE0105C080E02E
:101C200090E002C08FEF9FEFDF91CF911F910F9156
:101C30000895CF92DF92EF92FF920F931F93CF936D
:101C4000DF93EC017B016A011B821A8208EE13E02C
:101C500020E030E00C831D832E833F8381EC92E0F3
:101C6000998388838DE190E00E9411289A8F898F53
:101C7000009779F02DE1F701DC0101900D922A9592
:101C8000E1F74CE050E0B601CE010C960E944D2ADF
:101C9000188EDF91CF911F910F91FF90EF90DF9001
:101CA000CF900895FC011382128248EE53E060E069
:101CB00070E0448355836683778381EC92E091835F
:101CC0008083128E118E1486089521EC32E0FC017F
:101CD000318320830895DC015996ED91FC915A9748
:101CE000309729F0628573858485958508956FEF17
:101CF0007FEFCB010895DC015996ED91FC915A9745
:101D0000309729F06389748985899689089560E000
:101D100070E0CB010895CF92DF92EF92FF92CF93C4
:101D2000DF93EC01898D9A8D892BC9F0CE01E3DF19
:101D30006B017C01CE01CFDFA7019601261B370B7B
:101D4000480B590BDA01C901811530E89307A10549
:101D5000B10538F08FEF9FE7A0E0B0E002C080E06F
:101D600090E0DF91CF91FF90EF90DF90CF900895BA
:101D7000CF93DF93EC01898D9A8D009741F00E94FB
:101D80008C17898D9A8D0E94A9281A8E198EDF9141
:101D9000CF910895EF920F931F93CF93DF93EC01B0
:101DA000E02E022F242F462F61E0E3D2811102C0E2
:101DB00080E01CC08E01035F1F4F41E0BE01C801DF
:101DC0000E94C71E882351F0B801CE018B9626D6FB
:101DD00091E0811101C090E0892F08C040E0BE0170
:101DE000C8010E94C71E882319F3EECFDF91CF915F
:101DF0001F910F91EF900895FC01DB0112968D91D8
:101E00009C9113979383828381ED92E091838083E9
:101E100014968C911497848315968C9115978583CD
:101E200016964D915D916D917C91199746835783DC
:101E3000608771871A964D915D916D917C911D9788
:101E400042875387648775871E964D915D916D918A
:101E50007C91519746875787608B718B52968C91F6
:101E60005297828B53964D915D916D917C915697CF
:101E7000438B548B658B768B57964D915D916D910D
:101E80007C915A97478B508F618F728F5B968D91A3
:101E90009C915C97948F838F08954F925F926F927D
:101EA0007F928F929F92AF92BF92CF92DF92EF92EA
:101EB000FF920F931F93CF93DF93CDB7DEB7C75435
:101EC000D1090FB6F894DEBF0FBECDBF6C014A0139
:101ED0003901655D7F4F5E018EE1A80EB11CC50121
:101EE0008BDF1C821B8281ED92E09A8389831E82A4
:101EF0008401FE0131967F015A2C4B2C6FE270E079
:101F0000C8010E943B2A0097D9F1F80120812F32A5
:101F100019F40F5F1F4FF2CF801B8D3008F08CE05B
:101F2000A82EB12CA501B801CE01CB960E944D2A56
:101F3000EBE3F0E0EC0FFD1FEA0DFB1D1082C70183
:101F4000EBD721E0AE01455C5F4F652D742DC701D5
:101F50000E94B618811109C0F6011382128281ED28
:101F600092E091838083158214C00A0D1B1D852D7C
:101F7000942DD2D7C2015E2C4F2CE92EF82EBECF65
:101F800008191909F30111830083652D742DC60109
:101F900033DFC601C95BDF4F0FB6F894DEBF0FBE5B
:101FA000CDBFDF91CF911F910F91FF90EF90DF9008
:101FB000CF90BF90AF909F908F907F906F905F90E9
:101FC0004F900895BF92CF92DF92EF92FF920F93BE
:101FD0001F93CF93DF93CDB7DEB7C955D1090FB6A5
:101FE000F894DEBF0FBECDBF7C016A01B22E9E0108
:101FF000285A3F4FCE01CB9650DF6A960EAD1FADEB
:102000006A970C0D1D1DF8018081811109C0BE0168
:10201000655C7F4FCE010196EFDE41E252E03AC0AF
:1020200019A218A281ED92E09F8F8E8F1BA221969C
:102030008FAD2197811103C0C70134DE30C08250BB
:102040002B2DA801823048F468E174E0CE014E9651
:102050000E94B61881110DC0EFCFBE01655C7F4FA5
:10206000CE014E960E94B618882331F3CE01CB964E
:1020700053D78B2D867039F049A95AA96BA97CA931
:10208000CE014E9669D6BE01625E7F4FCE010196AB
:10209000B3DEA801BE016F5F7F4FC701CADDC70174
:1020A000C75ADF4F0FB6F894DEBF0FBECDBFDF912A
:1020B000CF911F910F91FF90EF90DF90CF90BF9045
:1020C00008951092F2031092F3031092F603109207
:1020D000F80382E090E0A0E0B0E08093FA039093F0
:1020E000FB03A093FC03B093FD0310921104109224
:1020F0001B0410921A0481ED92E0909319048093CE
:10210000180410921D040895909140049F3F39F4E3
:102110008EBD00000DB407FEFDCF8EB50895F89476
:10212000E0913C04F0913D0440913804342F309507
:10213000A0913E04B0913F0450913904652F609501
:1021400098E02081232320832C9187FF02C0252B38
:1021500001C026232C932081242B2083880F9150AB
:1021600081F700000000000000008081832380834D
:1021700078940895809140048F3F39F48EBD00001B
:102180000DB407FEFDCF8EB50895F894E0913E049E
:10219000F0913F04808190913904892B8083E091F4
:1021A0003C04F0913D0430913804A0913A04B09180
:1021B0003B0450913704432F409598E080E0208104
:1021C000232B2083880F2C91252309F08160208107
:1021D0002423208300000000915089F7789408950B
:1021E0002CB5982F93702C7F922B9CBD9DB582FBB4
:1021F000882780F99E7F982B9DBD089561E0FC01A2
:1022000084810C94822160E0FC0184810C94822101
:10221000CF93DF93EC018E81882379F08F819885AD
:102220009C012F5F3F4F38872F838230924010F4FC
:10223000A1DFF4CFCE01E2DF1E82DF91CF910895BE
:10224000673028F026E1FC01258380E008956330A3
:1022500079F028F46130A1F0623041F005C06530BA
:1022600059F040F0663051F084E00BC085E009C0C1
:1022700081E007C086E005C082E003C083E001C0C2
:1022800080E0AEDF81E008950F931F93CF93DF933B
:10229000EB010E9423208B016DDF8F3F49F00E94EC
:1022A0002320601B710B6C177D07B0F380E001C029
:1022B00081E0DF91CF911F910F910895CF92DF922E
:1022C000FF920F931F93CF93DF9300D01F92CDB750
:1022D000DEB76C01F62E29833A834B835C8398DF4B
:1022E000C60191DF6CE271E0C601CEDF8F2D806404
:1022F0000BDF08E110E05C814B813A812981DA0132
:10230000C901002E04C0B695A795979587950A94A4
:10231000D2F729833A834B835C83F6DE0850110998
:1023200029813A814B815C81083F8FEF180739F78B
:10233000FF2029F0E8E0FE1621F08FEF03C085E9C9
:1023400001C087E8E1DE10E015DFF601828787FF34
:1023500004C01F3F11F01F5FF7CF0F900F900F9039
:102360000F90DF91CF911F910F91FF90DF90CF9051
:102370000895AF92BF92CF92DF92EF92FF920F93A8
:102380001F93CF93DF93EC01B62E1B8619861E8216
:102390001D821C864C832093420400934104E092EA
:1023A00040040E9423208B0161E08C810E9449211E
:1023B000CE0124DF8FEFE81609F45EC060E0809163
:1023C00041040E94492161E0809142040E94492118
:1023D00061E0809140040E94492180914004992746
:1023E00087FD9095FC01EF50FE4FE491F0E0EE0F79
:1023F000FF1FEF5AFD4F2591349130933D042093F8
:102400003C04FC01E555FE4F849180933804809193
:102410004204992787FD9095FC01EF50FE4FE4910F
:10242000F0E0EE0FFF1FEF5AFD4F259134913093EE
:102430003F0420933E04FC01E555FE4F84918093B8
:10244000390480914104992787FD9095FC01EF5054
:10245000FE4FE491F0E0EE0FFF1FE95CFD4F259188
:10246000349130933B0420933A04FC01E555FE4F30
:1024700084918093370404C00E94FA0883E0B0DEA0
:102480002AE0A22E8FEF40DEAA94E1F7CE01BBDE58
:1024900020E030E0A90160E0CE0110DFF82E8A874D
:1024A00081E0F81649F00E942320601B710B613D0A
:1024B000774070F381E046C02AEA31E040E050E026
:1024C00068E0CE01FBDE82FF02C0FB860CC094E018
:1024D000F92E50DE8A87FA94E1F78A3A11F082E009
:1024E00031C082E08B878B85823031F4C12CD12CB6
:1024F000E12C80E4F82E03C0C12CD12C760120E021
:1025000030E0A90167E3CE01D9DEA701960169E2B7
:10251000CE01D4DE8A87882349F00E942320601BE5
:10252000710B613D774058F388E00CC08B85823099
:10253000B1F420E030E0A9016AE3CE01BFDE8823D8
:1025400029F086E08D83CE0159DE1EC013DE807C2B
:10255000803C11F483E08B870DDE0CDE0BDECE01B8
:102560004DDE809140048F3F69F46B2DCE01DF91E9
:10257000CF911F910F91FF90EF90DF90CF90BF9080
:10258000AF905ECEAA24A3948A2DDF91CF911F91A4
:102590000F91FF90EF90DF90CF90BF90AF90089594
:1025A0000F931F93CF93DF93EC010E9423208B01A5
:1025B000E1DD8A878F3F49F40E942320601B710B65
:1025C0006D327140A8F38FE003C08E3F31F08DE093
:1025D0008D83CE0113DE80E001C081E0DF91CF91D9
:1025E0001F910F910895CF92DF92EF92FF920F9378
:1025F0001F93CF93DF93EC0169010115110509F4D5
:102600005DC0C801820F931F8130924008F058C00E
:102610008E81882371F088819981AA81BB814817B6
:1026200059076A077B0729F48F819885C816D90650
:1026300000F5488359836A837B838B85833039F027
:10264000E9E0440F551F661F771FEA95D1F79A01FD
:10265000AB0161E1CE0132DE882319F083E08D8386
:102660002FC0CE019DDF882359F118861F8281E09B
:102670008E838F8198858C159D0538F47BDD8F8145
:102680009885019698878F83F4CF6701E00EF11E3D
:10269000CE14DF0429F06EDDF60181936F01F8CFCF
:1026A0008F819885800F911F98878F83298522239A
:1026B00019F08115924010F0CE01AADD81E003C02F
:1026C000CE019CDD80E0DF91CF911F910F91FF90B3
:1026D000EF90DF90CF900895EF92FF920F931F93AA
:1026E000790100E012E020E030E07DDF1F910F91E2
:1026F000FF90EF900895AF92BF92CF92DF92EF924A
:10270000FF920F931F93CF93DF931F921F92CDB72A
:10271000DEB78C01862FF8019485992351F1DA01F7
:10272000E12CF12CA12CB12CED91F0E0EB259F01D7
:1027300064E0359527956A95E1F72E273F27BA2C57
:10274000AA24A226B326F901FE2FEE27F295F07FE8
:10275000AE26BF2665E0220F331F6A95E1F7A22659
:10276000B326FFEFEF1AFF0AE11492E0F906E1F653
:1027700003C0AA24AA94BA2C49835A83C5DC498190
:10278000E42E5A81F52EC12CD12CF70181917F01C5
:10279000BBDCFFEFCF1ADF0AC11482E0D806A9F72D
:1027A0008B2DB2DC8A2DB0DCE5DCF80182878F71DD
:1027B000853031F081E18583C80120DD80E001C0F2
:1027C00081E00F900F90DF91CF911F910F91FF90BB
:1027D000EF90DF90CF90BF90AF9008950F931F932D
:1027E000CF93DF93EC018901411551056105710516
:1027F00011F482E12DC08B85833039F0E9E0440F7C
:10280000551F661F771FEA95D1F79A01AB0168E162
:10281000CE0154DD882311F084E01AC0A8016EEFC8
:10282000CE0169DF8823A9F068E572E0CE012CDDD6
:10283000811102C085E10CC020E030E0A9016DE00B
:10284000CE013CDD811103C095DC882331F084E1A9
:102850008D83CE01D3DC80E003C0CE01CFDC81E0EC
:10286000DF91CF911F910F910895CF93DF93EC01EA
:102870009C012A5F3F4F41E050E060E070E08B8DAB
:102880009C8D0E94621D8823A1F04F89588D698D0F
:102890007A8D452B462B472B71F44E815F816885DD
:1028A00079854F8B588F698F7A8F8C8180688C8364
:1028B00002C080E001C081E0DF91CF910895CF9206
:1028C000DF92EF92FF921F93CF93DF93EC01CDDF66
:1028D000811102C080E04AC0EB8DFC8DCE80DF808C
:1028E000E884F98482E0C81AD108E108F108058477
:1028F00004C0CC0CDD1CEE1CFF1C0A94D2F74685EC
:10290000578560897189C40ED51EE61EF71E148195
:1029100081E0C81AD108E108F108112359F0C70174
:10292000B601610F711D811D911D1AD7882391F287
:102930001150F3CFEB8DFC8DC12C82E0D82EE12C11
:10294000F12C058404C0CC0CDD1CEE1CFF1C0A9489
:10295000D2F74B895C896D897E894C0D5D1D6E1D9A
:102960007F1D4B8B5C8B6D8B7E8B81E0DF91CF91DC
:102970001F91FF90EF90DF90CF900895CF93DF935A
:10298000EC01462F6E857F8588899989AFD688238B
:1029900041F08A8920E2829FC0011124845B9B4F11
:1029A00002C080E090E0DF91CF910895282FFB01D5
:1029B0008BE030E231938150E9F7A22FB92F20E06C
:1029C00037E09D91992319F19E3219F0E5E5F1E088
:1029D00008C03A3011F128E03AE0F3CF31964917B8
:1029E000E1F044914111FACF3217B8F04FED490FA1
:1029F0004E3598F441E0420FFB01E20FF11D2FE943
:102A0000290F2A3108F490529083242FDACF81E0E5
:102A1000FB019081903209F480E008950F931F9399
:102A2000CF93DF93EC018B018D81882311F080E03F
:102A30003FC0FB0187898031B1F482E08D831F8A1A
:102A4000188E198E1A8E408D518D60E070E095E0E1
:102A5000440F551F661F771F9A95D1F74B8B5C8BE0
:102A60006D8B7E8B14C0803211F783E08D83FB0168
:102A7000428D538D648D758D4F8B588F698F7A8FF2
:102A80009E012D5E3F4FC80113D7882381F21C8F12
:102A90000B8F81E08C831E821F82188619861A860E
:102AA0001B861C861D861E861F86188A198A1A8A0E
:102AB000DF91CF911F910F9108952F923F924F92E6
:102AC0005F926F927F928F929F92AF92BF92CF92BE
:102AD000DF92EF92FF920F931F93CF93DF93EC015E
:102AE0006B015A018D81811103C08FEF9FEFD7C019
:102AF0008C8180FFFACF4B895C896D897E898A85BC
:102B00009B85AC85BD852501612C712C8A019B01BB
:102B1000081B190B2A0B3B0B041515052605370559
:102B200018F45A01A81AB90A25011E0126E0220E3E
:102B3000311C4114510409F47AC04A855B856C85C7
:102B40007D854A0181E09822ED818A019B01F9E0AF
:102B50003695279517950795FA95D1F78B8D9C8D0E
:102B6000E23051F4FC01628D738D848D958D600F80
:102B7000711F821F931F3DC0FC0174807A947022E4
:102B800081149104C1F4711016C0452B462B472BBC
:102B900049F48F89988DA98DBA8D8E839F83A887DC
:102BA000B98709C04E815F81688579859101FDD51E
:102BB000882309F49ACFEB8DFC8D6E817F81888507
:102BC00099856250710981099109058404C0660FD5
:102BD000771F881F991F0A94D2F7068517852089C9
:102BE0003189600F711F821F931F670D711D811D39
:102BF000911D20E032E028193909320124153505EC
:102C000008F439012C8126FD04C06114F2E07F062E
:102C100099F500911D0210911E0220911F02309122
:102C20002002601771078207930719F425C0C501B8
:102C300036C0760183019401AB01BC0180914A0446
:102C400090914B04D0DC882309F44FCFC60CD71CDD
:102C500004C0E81BF90BCE0EDF1E8A859B85AC8570
:102C6000BD85860D971DA11DB11D8A879B87AC87E9
:102C7000BD87461857085DCF40E038D5882309F452
:102C800034CFC401845B9B4FD6019C01260D371DB8
:102C9000FC01E217F307E9F241914D93FACFDF917E
:102CA000CF911F910F91FF90EF90DF90CF90BF9049
:102CB000AF909F908F907F906F905F904F903F90DC
:102CC0002F900895FF920F931F93CF93DF931F923E
:102CD000CDB7DEB78C01FC018581823018F480E02D
:102CE00090E033C0F8014285538564857585A5E081
:102CF0007695679557954795AA95D1F7F42FFF706C
:102D0000FF2E41E050E0BE016F5F7F4FC801D5DE6E
:102D1000019719F4298130E002C02FEF3FEF2F3FD8
:102D20003F4FE9F2F8014285538564857585415E20
:102D30005F4F6F4F7F4F4287538764877587F0E2FD
:102D4000FF9EC0011124845B9B4F0F90DF91CF91B8
:102D50001F910F91FF9008954F925F926F927F9213
:102D6000AF92BF92CF92DF92EF92FF920F931F9399
:102D7000CF93DF93EC016A017B012D81222309F4BB
:102D800056C08B899C89AD89BE8984179507A60793
:102D9000B70708F44CC04DC08A859B85AC85BD85BE
:102DA000EB8DFC8DE585F0E03996AC01BD0141501D
:102DB0005109610971090E2E04C0769567955795E2
:102DC00047950A94D2F7970186010150110921090C
:102DD000310904C03695279517950795EA95D2F7DE
:102DE0000417150726073707A8F58F89988DA98D31
:102DF000BA8D8E839F83A887B987280139015E0128
:102E000086E0A80EB11C411451046104710459F10B
:102E10004E815F816885798595018B8D9C8DC5D4A8
:102E200091E0491A5108610871088111ECCF80E0E6
:102E30001FC02230C1F0C114D104E104F10409F033
:102E4000ABCF1E821F82188619861A861B861C86A7
:102E50001D860DC0892B8A2B8B2B39F2041B150B79
:102E6000260B370BCACFCA86DB86EC86FD8681E04F
:102E7000DF91CF911F910F91FF90EF90DF90CF9056
:102E8000BF90AF907F906F905F904F9008950F9399
:102E90001F93CF93DF93EC018D818823B9F18C814F
:102EA00087FF2FC061E0CE0169DD8C01009771F1D1
:102EB0008D81823048F44B895C896D897E89F80167
:102EC000448F558F668F778F4F89588D698D7A8D96
:102ED000F801538F428F758B648BE0914304F0911E
:102EE0004404309759F0B8016A5E7F4FC801489694
:102EF0001995F801808D918D938B828B8C818F77C2
:102F00008C83DF91CF911F910F91B7C380E0DF9148
:102F1000CF911F910F910895CF93DF93EC01B7DF0D
:102F2000882319F01D8281E001C080E0DF91CF91FC
:102F300008954F925F926F927F92AF92BF92CF921D
:102F4000DF92EF92FF920F931F93CF93DF9300D006
:102F50001F92CDB7DEB75C016A017B01FC01858160
:102F60008130E9F4848181FF1AC0F5018389948955
:102F7000A589B68984179507A607B70780F0892B1E
:102F80008A2B8B2B09F472C0F5014284538464842C
:102F90007584B701A601C501DFDE811102C080E0A2
:102FA00066C0F501838D948DC114D104E104F10450
:102FB00069F44789508D618D728D95D6882379F398
:102FC000F501178A108E118E128E37C0F5014681D9
:102FD0005781608571859E012F5F3F4FE6D388231F
:102FE000F1F249815A816B817C81F501838D948D49
:102FF000FC012789203129F408EF1FEF20E030E0A1
:1030000004C008EF1FEF2FEF3FE0401751076207A2
:10301000730798F468D6882309F4C1CFF501468177
:103020005781608571850FEF1FEF2FEF3FE0838D94
:10303000948DA8D4882309F4B2CFF501C38AD48A29
:10304000E58AF68A848180688483C50120DF88232D
:1030500009F4A5CFB701A6014C145D046E047F04EA
:1030600010F4B301A201C50177DE01C081E00F9029
:103070000F900F900F90DF91CF911F910F91FF90C4
:10308000EF90DF90CF90BF90AF907F906F905F9068
:103090004F900895FF920F931F93CF93DF93EC010E
:1030A000F42E80E2689FF0011124E45BFB4F8385DE
:1030B000817129F0842F827411F080E051C06A8BF5
:1030C00080911D0290911E02A0911F02B0912002DA
:1030D0008E879F87A88BB98B4489558960E070E003
:1030E000BA0155274427028D138D20E030E0402B94
:1030F000512B622B732B4F8B588F698F7A8F83855F
:10310000887151F4048D158D268D378D0B8B1C8B9A
:103110002D8B3E8B81E00BC0803179F69E012D5EB8
:103120003F4F8B8D9C8DC4D3882339F284E08D83EF
:103130008F2D8F708C831E821F82188619861A86A7
:103140001B861C861D86F6FE0AC040E050E0BA01D0
:10315000CE01DF91CF911F910F91FF90EACE81E0D8
:10316000DF91CF911F910F91FF900895AF92BF9281
:10317000CF92DF92EF92FF920F931F93CF93DF9343
:10318000CDB7DEB72B970FB6F894DEBF0FBECDBF1D
:103190007C016B01CA01B22EF70125812111B3C058
:1031A000BE016F5F7F4F02DC882309F4ACC0F601DB
:1031B000838D948DF701948F838FF6011682178289
:1031C000108611861286138614861586A12CF601A8
:1031D000028513852485358583899489A589B689D7
:1031E000081719072A073B07E0F545E036952795AC
:1031F000179507954A95D1F70F70C60163DD0097C3
:1032000009F481C0FC012081222311F0253EB9F48C
:10321000A1100EC0F701028B40911D0250911E02B9
:1032200060911F027091200246875787608B718BD7
:10323000FC018081AA24A3948111C9CF12C04BE064
:1032400050E0BC01CE0101960E94252A892B09F08D
:10325000BECF8B2D8073803309F455C04B2D602F6A
:103260004FC08B2D8271823109F04DC0AA2039F0F8
:1032700061E0C70183DB8C01009771F444C0F60163
:103280008581823009F43FC0C60119DB8823D9F15A
:10329000F701128A0CE414E080E2F80111928A9599
:1032A000E9F78BE0FE013196D80101900D928A95E5
:1032B000E1F7E0914304F0914404309739F0B8010C
:1032C000625F7F4FC8014096199509C081E298E27C
:1032D000F801918B808B80E098E097878687F801D2
:1032E00080899189938B828B918F808F868597853A
:1032F000978B868BC2D1882331F04B2DF7016289E1
:10330000C701C8DE01C080E02B960FB6F894DEBF7F
:103310000FBECDBFDF91CF911F910F91FF90EF9026
:10332000DF90CF90BF90AF9008952F923F924F9231
:103330005F926F927F928F929F92AF92BF92CF9245
:10334000DF92EF92FF920F931F93CF93DF9300D002
:103350001F921F92CDB7DEB78C017B013A01DC01D1
:1033600015968C9115978130C1F414968C9181FF3C
:1033700014C082FF1AC0F80143895489658976898F
:1033800082859385A485B58584179507A607B70719
:1033900061F0C801E1DC811108C081E090E0F80132
:1033A0009383828380E090E040C163017FC0D801B5
:1033B0005B968D919C915C97FC01F481F150B50175
:1033C000A40129E076956795579547952A95D1F7F9
:1033D000F423FD8321E09222FF2309F473C080E0EF
:1033E00092E08819990956018C159D0508F45C0135
:1033F000D8015B96ED91FC915C9716962D903D90CF
:103400004D905C901997B2E02B1A31084108510891
:10341000058404C0220C331C441C551C0A94D2F7AA
:1034200086859785A089B189280E391E4A1E5B1EA4
:10343000ED812E0E311C411C511CA114F2E0BF067F
:1034400009F085C080911D0290911E02A0911F027B
:10345000B091200282159305A405B50559F48FEFAC
:103460009FEFDC0180931D0290931E02A0931F0228
:10347000B09320029701B201A10180914A0490917A
:103480004B04ACD9882309F488CF9EEFF91ACA18E7
:10349000DB08F80182859385A485B5858A0D9B1D7F
:1034A000A11DB11D82879387A487B587D8011A967D
:1034B0008D909D90AD90BC901D97C114D10409F0E2
:1034C00076CF86C08114910409F089CF16964D916C
:1034D0005D916D917C9119974115510561057105BB
:1034E00059F457968D919D910D90BC91A02D009708
:1034F000A105B10531F520C09E012F5F3F4F55D189
:10350000882309F450CF89819A81AB81BC81F8016D
:10351000238D348DF9012789203129F448EF5FEF9D
:1035200060E070E004C048EF5FEF6FEF7FE084176A
:103530009507A607B70728F0C80197D981114FCF83
:103540002CCFF80186839783A087B18748CF811459
:10355000910421F5D8011A964D915D916D917C9160
:103560001D9753968D919D910D90BC91A02D48175C
:1035700059076A077B0790F080D0882309F40DCFA4
:1035800020921D0230921E0240921F025092200291
:103590008091490481608093490407C041E0C201E1
:1035A000B101A4D0882309F4F8CEC401845B9B4FF9
:1035B000D7019C012A0D3B1DFC01E217F30719F00E
:1035C0004D914193FACFE81BF90BEE0EFF1E5FCF32
:1035D00053968D919D910D90BC91A02DF801248161
:1035E00088159905AA05BB0538F4838A948AA58AAB
:1035F000B68A206824830CC08091430490914404CF
:10360000892B31F06114710419F02068F8012483CA
:10361000D80114968C9183FD02C0C30106C0C80175
:1036200036DC882309F4B9CEF8CF0F900F900F90B5
:103630000F900F90DF91CF911F910F91FF90EF901E
:10364000DF90CF90BF90AF909F908F907F906F90C2
:103650005F904F903F902F900895CF93DF931F92EC
:10366000CDB7DEB7698341E050E0BE016F5F7F4FA9
:103670005CDE0F90DF91CF910895809149048823FB
:1036800089F140911D0250911E0260911F027091BC
:1036900020022CE434E080914A0490914B049ED89F
:1036A000882311F1409145045091460460914704EC
:1036B00070914804411551056105710589F02CE4AC
:1036C00034E080914A0490914B0488D8882361F0BB
:1036D0001092450410924604109247041092480438
:1036E0001092490481E0089580E00895CF92DF921E
:1036F000EF92FF92CF936B017C01C42F80911D024A
:1037000090911E02A0911F02B09120028C159D0580
:10371000AE05BF05C9F0B1DF811102C080E01AC05B
:103720002CE434E0B701A60180914A0490914B0447
:103730000E946C13882391F3C0921D02D0921E0246
:10374000E0921F02F0922002809149048C2B80931A
:10375000490481E0CF91FF90EF90DF90CF900895E2
:10376000CF92DF92EF92FF926B017C0186DF88237C
:10377000B1F0ECE4F4E0119286E0EC34F807D9F70C
:10378000C0921D02D0921E02E0921F02F09220020F
:103790008091490481608093490481E001C080E008
:1037A000FF90EF90DF90CF9008958F929F92AF920D
:1037B000BF92CF92DF92EF92FF920F931F93CF931E
:1037C000DF938C016A017B01E901FC01818592850F
:1037D000A385B4850196A11DB11D84179507A60781
:1037E000B70710F480E057C0F80143895489658910
:1037F00076898789803129F4BB27AF2D9E2D8D2DA9
:1038000009C0D701C60127E0B695A795979587957A
:103810002A95D1F74C015D01840E951EA61EB71E98
:10382000C501B40180901D0290901E02A0901F025D
:10383000B0902002681579058A059B0589F4F80186
:103840008789803191F4DD24EE24FF24F601EE0F08
:10385000FF1FE45BFB4F80819181A0E0B0E016C0C8
:1038600040E044DF8111EBCFBDCFE894C7F8DD2401
:10387000EE24FF24F601EE0FFF1FEE0FFF1FE45BA7
:10388000FB4F80819181A281B381BF70888399832E
:10389000AA83BB8381E0DF91CF911F910F91FF90AD
:1038A000EF90DF90CF90BF90AF909F908F90089552
:1038B0004F925F926F927F92AF92BF92CF92DF92C0
:1038C000EF92FF920F931F93CF93DF9300D01F923D
:1038D000CDB7DEB78C0149835A836B837C83590152
:1038E000C12CD12C7601412C42E0542E612C712C3C
:1038F00049815A816B817C819E012F5F3F4FC801B6
:1039000054DF882359F1D301C201F801058404C0B2
:10391000880F991FAA1FBB1F0A94D2F7C80ED91E81
:10392000EA1EFB1E49815A816B817C818789803127
:1039300029F488EF9FEFA0E0B0E004C088EF9FEF8C
:10394000AFEFBFE0481759076A077B0788F2F50118
:10395000C082D182E282F38281E001C080E00F90D8
:103960000F900F900F90DF91CF911F910F91FF90CB
:10397000EF90DF90CF90BF90AF907F906F905F906F
:103980004F9008954F925F926F927F928F929F9285
:10399000AF92BF92CF92DF92EF92FF920F931F935D
:1039A000CF93DF93EC016A017B012801390142309A
:1039B00051056105710508F473C049855A856B8509
:1039C0007C854F5F5F4F6F4F7F4F4C155D056E05D8
:1039D0007F0508F465C08B889C88AD88BE888F8978
:1039E000803129F477276F2D5E2D4D2D09C0B70149
:1039F000A601E7E07695679557954795EA95D1F743
:103A0000840E951EA61EB71E40911D0250911E02E7
:103A100060911F027091200284169506A606B706D3
:103A200071F48F89803191F4DD24EE24FF24F601B6
:103A3000EE0FFF1FE45BFB4F5182408217C040E056
:103A4000C501B40153DE8111ECCF2AC0E894C7F858
:103A5000DD24EE24FF24F601EE0FFF1FEE0FFF1F03
:103A6000E45BFB4F40825182628273828091490401
:103A70008160809349048A89823080F08D819E81A3
:103A8000AF81B885880D991DAA1DBB1D8093450483
:103A900090934604A0934704B093480481E001C08A
:103AA00080E0DF91CF911F910F91FF90EF90DF9019
:103AB000CF90BF90AF909F908F907F906F905F90CE
:103AC0004F9008952F923F924F925F926F927F9204
:103AD0009F92AF92BF92CF92DF92EF92FF920F939D
:103AE0001F93CF93DF93CDB7DEB760970FB6F894EF
:103AF000DEBF0FBECDBF5C014D875E876F87788BC1
:103B00001901D9014D905D906D907C904114510444
:103B10006104710431F0BFEF4B1A5B0A6B0A7B0A38
:103B200010C0FC014080518062807380992493947E
:103B30000D851E852F853889013011052105310538
:103B400009F0912CD50119962D913D914D915C91E3
:103B50001C972F5F3F4F4F4F5F4F29873A874B8707
:103B60005C87730162011D821E821F821886F50127
:103B700081859285A385B4850D811E812F8138852D
:103B8000081719072A073B0708F054C029853A850A
:103B90004B855C852C153D054E055F0550F4A2E074
:103BA000CA2ED12CE12CF12CB2E04B2E512C612CE1
:103BB000712C9E012F5F3F4FB701A601C501F5DDB6
:103BC0008823C1F149815A816B817C81D701C6016B
:103BD0000196A11DB11D452B462B472B19F02C0139
:103BE0003D010FC0AC01BD014419550966097709B3
:103BF0000D851E852F853889401751076207730789
:103C000079F02D813E814F8158852F5F3F4F4F4F77
:103C10005F4F2D833E834F8358876C017D01A7CF73
:103C20000FEF1FEF2FEF3FE0B701A601C501AADE9E
:103C3000811117C080E03FC0D701C6010197A109DB
:103C4000B1098D839E83AF83B88797018601AC014C
:103C5000BD01C50197DE882369F3CD80DE80EF804A
:103C6000F8844C145D046E047F0430F3D1014D914F
:103C70005D916D917C91411551056105710599F436
:103C8000F1014082518262827382992099F0FFEFA4
:103C90004F1A5F0A6F0A7F0AD5014D925D926D92AD
:103CA0007C92139707C093018201C5016BDE8111DD
:103CB000E7CFC0CF81E060960FB6F894DEBF0FBEAD
:103CC000CDBFDF91CF911F910F91FF90EF90DF90CB
:103CD000CF90BF90AF909F907F906F905F904F90EC
:103CE0003F902F900895AF92BF92CF92DF92EF92C4
:103CF000FF920F931F93CF93DF9300D01F92CDB706
:103D0000DEB75C016A017B0182E090E0A0E0B0E0F8
:103D1000F50180839183A283B3839E012F5F3F4F80
:103D2000B701A601C50141DD882309F100E010E0DB
:103D30009801B701A601C50125DE8823C1F0C9801D
:103D4000DA80EB80FC80F5018789803129F488EFE7
:103D50009FEFA0E0B0E004C088EF9FEFAFEFBFE0BF
:103D6000C816D906EA06FB06C0F281E001C080E071
:103D70000F900F900F900F90DF91CF911F910F91A7
:103D8000FF90EF90DF90CF90BF90AF9008958F920B
:103D90009F92AF92BF92CF92DF92EF92FF920F93DA
:103DA0001F93CF93DF93EC01142F70934B04609318
:103DB0004A04442339F1453010F080E0EDC040E082
:103DC00060E070E0CB0192DC8823B9F320E1129F20
:103DD000F0011124E650FA4F80818F7771F78485C6
:103DE0009585A685B78584369105A105B10528F38B
:103DF000C084D184E284F384C114D104E104F104C9
:103E000021F4DBCFC12CD12C760140E0C701B601F3
:103E10006DDC882391F280915704909158048115AC
:103E2000924059F630915C04332339F280915A0460
:103E300090915B04892B09F4C0CF2091590422236F
:103E400009F4BBCF3A8B2C831D8630E041E050E073
:103E50006D85062FCA01062E02C0880F991F0A948D
:103E6000E2F72817390731F081E0860F8D87683037
:103E700078F3A3CF209162043091630421153105BA
:103E800019F040E050E008C02091700430917104B6
:103E900040917204509173042D833E834F83588761
:103EA00080915A0490915B0446015701880E991E37
:103EB000A11CB11C8B8A9C8AAD8ABE8AE0915D04EC
:103EC000F0915E04F98FE88FA0915C04B0E00E944D
:103ED0000328680D791D8A1D9B1D6A8F7B8F8C8F2F
:103EE0009D8F15E0EE0FFF1F1A95E1F7E150FE4F91
:103EF000EF2FFF27E695DC01CB018E0F9F1FA11D41
:103F0000B11D8E879F87A88BB98B80905F0490909E
:103F100060048114910419F0A12CB12C08C0809088
:103F20006C0490906D04A0906E04B0906F04A70193
:103F30009601281B390B4A0B5B0BDA01C901880D6E
:103F4000991DAA1DBB1D04C0B695A7959795879589
:103F50000A95D2F789879A87AB87BC87853F3FE070
:103F60009307A105B10510F48CE014C0853F9F4F65
:103F7000A105B10510F480E10DC080917804909105
:103F80007904A0917A04B0917B048A8F9B8FAC8FC7
:103F9000BD8F80E28F8B81E0DF91CF911F910F91D8
:103FA000FF90EF90DF90CF90BF90AF909F908F9059
:103FB00008951F920F920FB60F9211242F933F93E3
:103FC0008F939F93AF93BF9380914D0690914E0630
:103FD000A0914F06B091500630914C0623E0230F7C
:103FE0002D3720F40196A11DB11D05C026E8230F31
:103FF0000296A11DB11D20934C0680934D0690930F
:104000004E06A0934F06B0935006809151069091B2
:104010005206A0915306B09154060196A11DB11D00
:104020008093510690935206A0935306B093540682
:10403000BF91AF919F918F913F912F910F900FBEA4
:104040000F901F9018952FB7F89460914D067091BE
:104050004E0680914F06909150062FBF08953FB7AE
:10406000F8948091510690915206A0915306B09118
:10407000540626B5A89B05C02F3F19F00196A11D37
:10408000B11D3FBF6627782F892F9A2F620F711DB0
:10409000811D911D42E0660F771F881F991F4A9569
:1040A000D1F708958F929F92AF92BF92CF92DF92F5
:1040B000EF92FF926B017C01D2DF4B015C01C114D6
:1040C000D104E104F104E1F05AD7C9DF6819790994
:1040D0008A099B09683E73408105910580F321E0C0
:1040E000C21AD108E108F10888EE880E83E0981E14
:1040F000A11CB11CC114D104E104F10431F7DFCFDC
:10410000FF90EF90DF90CF90BF90AF909F908F90F7
:1041100008958230910538F0880F991F880F991FF4
:1041200005970197F1F70895789484B5826084BD6E
:1041300084B5816084BD85B5826085BD85B58160AB
:1041400085BDEEE6F0E0808181608083E1E8F0E00B
:104150001082808182608083808181608083E0E83A
:10416000F0E0808181608083E1EBF0E08081846019
:104170008083E0EBF0E0808181608083E1E9F0E022
:10418000808182608083808181608083E0E9F0E0CB
:10419000808181608083E1EAF0E0808182608083B9
:1041A000808181608083E0EAF0E0808181608083AB
:1041B000E1E2F1E0808182608083808181608083A0
:1041C000E0E2F1E0808181608083EAE7F0E08081D5
:1041D000846080838081826080838081816080832D
:1041E0008081806880831092C100089590E0FC0176
:1041F0003197E231F10508F04BC0EB57FF4FEEC6A7
:10420000809180008F7703C0809180008F7D8093A4
:104210008000089580918000877FF9CF84B58F77E3
:1042200002C084B58F7D84BD08958091B0008F77E2
:1042300003C08091B0008F7D8093B000089580917D
:1042400090008F7707C0809190008F7D03C0809190
:104250009000877F8093900008958091A0008F77D1
:1042600007C08091A0008F7D03C08091A000877F50
:104270008093A0000895809120018F7707C08091DE
:1042800020018F7D03C080912001877F80932001D2
:104290000895CF93DF9390E0FC01E555FE4F249104
:1042A000FC01EF50FE4F8491882349F190E0880F84
:1042B000991FFC01E559FD4FA591B4918F5A9D4F6F
:1042C000FC01C591D4919FB7611108C0F8948C91FD
:1042D000209582238C93888182230AC0623051F416
:1042E000F8948C91322F309583238C938881822B84
:1042F000888304C0F8948C91822B8C939FBFDF91AC
:10430000CF9108950F931F93CF93DF931F92CDB753
:10431000DEB7282F30E0F901EB59FE4F8491F90107
:10432000E555FE4F1491F901EF50FE4F0491002323
:10433000C1F0882319F0698359DF6981E02FF0E02B
:10434000EE0FFF1FEF5AFD4FA591B4919FB7F89460
:104350008C91611103C01095812301C0812B8C9336
:104360009FBF0F90DF91CF911F910F910895FC0196
:10437000818D228D90E0805C9F4F821B91098F730D
:1043800099270895FC01918D828D981731F0828DC7
:10439000E80FF11D858D90E008958FEF9FEF089550
:1043A000FC01918D828D981761F0828DDF01A80F3D
:1043B000B11D5D968C91928D9F5F9F73928F90E05F
:1043C00008958FEF9FEF089582E893E2892B39F0EB
:1043D00080E090E0892B19F095D1811122C08DE207
:1043E00094E2892B39F080E090E0892B19F035D2E6
:1043F00081111AC088ED94E2892B39F080E090E0B9
:10440000892B19F0D5D2811112C083E895E2892B4E
:1044100099F080E090E0892B79F075D381110AC082
:1044200008950E940000DBCF0E940000E3CF0E94AD
:104430000000EBCF0C9400000895FC01848DDF0197
:10444000A80FB11DA35ABF4F2C91848D90E0019607
:104450008F739927848FA689B7892C93A089B189F6
:104460008C9180648C93938D848D981306C0028800
:10447000F389E02D80818F7D80830895CF93DF9332
:10448000EC01888D8823C1F0EA89FB89808185FD54
:1044900005C0A889B9898C9186FD0EC00FB607FCAE
:1044A000F5CF808185FFF2CFA889B9898C9185FFEE
:1044B000EDCFCE01C2DFE8CFDF91CF910895CF924B
:1044C000DF92FF920F931F93CF93DF931F92CDB78D
:1044D000DEB76C0181E0D60158968C9358975B96B5
:1044E0009C915B975C968C915C97981307C0509653
:1044F000ED91FC915197808185FD2DC0F601038DD2
:1045000010E00F5F1F4F0F731127F02EF601848DFF
:10451000F81210C00FB607FCF9CFD6015096ED91F6
:10452000FC915197808185FFF1CFC601698385DFBA
:104530006981ECCF838DE80FF11DE35AFF4F608353
:10454000D6015B960C935B975296ED91FC91539735
:10455000808180620CC0D6015696ED91FC915797F0
:1045600060835096ED91FC915197808180648083A7
:1045700081E090E00F90DF91CF911F910F91FF901C
:10458000DF90CF900895BF92CF92DF92EF92FF928B
:10459000CF93DF93EC016A017B01B22EE889F989A0
:1045A00082E08083411581EE58076105710599F01D
:1045B00060E079E08DE390E0A7019601EDD4215011
:1045C0003109410951095695479537952795211588
:1045D00080E1380790F0E889F989108260E874E892
:1045E0008EE190E0A7019601D7D42150310941090D
:1045F00051095695479537952795EC85FD8530836C
:10460000EE85FF852083188EEC89FD89B082EA89CA
:10461000FB89808180618083EA89FB898081886051
:104620008083EA89FB89808180688083EA89FB89AD
:1046300080818F7D8083DF91CF91FF90EF90DF901D
:10464000CF90BF9008951F920F920FB60F92112432
:104650000BB60F922F938F939F93EF93FF93E0915D
:104660006506F09166068081E0916B06F0916C061C
:1046700082FD12C0908180916E068F5F8F732091B2
:104680006F06821751F0E0916E06F0E0EB5AF94F99
:10469000958F80936E0601C08081FF91EF919F916D
:1046A0008F912F910F900BBE0F900FBE0F901F9008
:1046B00018951F920F920FB60F9211240BB60F92FE
:1046C0002F933F934F935F936F937F938F939F931A
:1046D000AF93BF93EF93FF9385E596E0AEDEFF9136
:1046E000EF91BF91AF919F918F917F916F915F916A
:1046F0004F913F912F910F900BBE0F900FBE0F90D7
:104700001F90189585E596E032DE21E0892B09F4AB
:1047100020E0822F0895109258061092570688EED6
:1047200093E0A0E0B0E08093590690935A06A093DE
:104730005B06B0935C0689ED92E0909356068093F9
:10474000550685EC90E0909362068093610684ECB8
:1047500090E0909364068093630680EC90E09093E1
:1047600066068093650681EC90E0909368068093DE
:10477000670682EC90E090936A068093690686EC67
:1047800090E090936C0680936B0610926E061092E8
:104790006F06109270061092710608951F920F9284
:1047A0000FB60F9211240BB60F922F938F939F93F6
:1047B000EF93FF93E0910207F09103078081E0916E
:1047C0000807F091090782FD12C0908180910B07C4
:1047D0008F5F8F7320910C07821751F0E0910B07C8
:1047E000F0E0EE50F94F958F80930B0701C0808168
:1047F000FF91EF919F918F912F910F900BBE0F9092
:104800000FBE0F901F9018951F920F920FB60F9228
:1048100011240BB60F922F933F934F935F936F9397
:104820007F938F939F93AF93BF93EF93FF9382EF09
:1048300096E003DEFF91EF91BF91AF919F918F9131
:104840007F916F915F914F913F912F910F900BBE90
:104850000F900FBE0F901F90189582EF96E087DDA6
:1048600021E0892B09F420E0822F08951092F506AB
:104870001092F40688EE93E0A0E0B0E08093F60694
:104880009093F706A093F806B093F90689ED92E0AD
:104890009093F3068093F2068DEC90E09093FF06E0
:1048A0008093FE068CEC90E09093010780930007C4
:1048B00088EC90E0909303078093020789EC90E0E6
:1048C00090930507809304078AEC90E09093070784
:1048D000809306078EEC90E0909309078093080779
:1048E00010920B0710920C0710920D0710920E07F2
:1048F00008951F920F920FB60F9211240BB60F92CC
:104900002F938F939F93EF93FF93E0919F07F091E5
:10491000A0078081E091A507F091A60782FD12C053
:1049200090818091A8078F5F8F732091A9078217CC
:1049300051F0E091A807F0E0E157F84F958F809390
:10494000A80701C08081FF91EF919F918F912F91D6
:104950000F900BBE0F900FBE0F901F9018951F92D7
:104960000F920FB60F9211240BB60F922F933F9315
:104970004F935F936F937F938F939F93AF93BF9367
:10498000EF93FF938FE897E058DDFF91EF91BF9190
:10499000AF919F918F917F916F915F914F913F91D7
:1049A0002F910F900BBE0F900FBE0F901F90189578
:1049B0008FE897E0DCDC21E0892B09F420E0822FEE
:1049C0000895109292071092910788EE93E0A0E06C
:1049D000B0E08093930790939407A0939507B093CA
:1049E000960789ED92E09093900780938F0785ED6D
:1049F00090E090939C0780939B0784ED90E09093C8
:104A00009E0780939D0780ED90E09093A007809390
:104A10009F0781ED90E09093A2078093A10782ED1C
:104A200090E09093A4078093A30786ED90E0909385
:104A3000A6078093A5071092A8071092A9071092C5
:104A4000AA071092AB0708951F920F920FB60F920C
:104A500011240BB60F922F938F939F93EF93FF9395
:104A6000E0913C08F0913D088081E0914208F0918E
:104A7000430882FD12C09081809145088F5F8F733B
:104A800020914608821751F0E0914508F0E0E45D7E
:104A9000F74F958F8093450801C08081FF91EF917A
:104AA0009F918F912F910F900BBE0F900FBE0F9083
:104AB0001F9018951F920F920FB60F9211240BB6EC
:104AC0000F922F933F934F935F936F937F938F93A7
:104AD0009F93AF93BF93EF93FF938CE298E0ADDC8D
:104AE000FF91EF91BF91AF919F918F917F916F91C6
:104AF0005F914F913F912F910F900BBE0F900FBE82
:104B00000F901F9018958CE298E031DC21E0892B02
:104B100009F420E0822F089510922F0810922E0899
:104B200088EE93E0A0E0B0E08093300890933108E5
:104B3000A0933208B093330889ED92E090932D084A
:104B400080932C0885E391E090933908809338088E
:104B500084E391E090933B0880933A0880E391E0EE
:104B600090933D0880933C0881E391E090933F0847
:104B700080933E0882E391E090934108809340083F
:104B800086E391E090934308809342081092450891
:104B90001092460810924708109248080895089508
:104BA000C3DAFDDF0E949E03C4EED1E20E949F059E
:104BB0002097E1F309DCFACFCF92DF92EF92FF92D8
:104BC0000F931F93CF93DF937C016A01EB0100E009
:104BD00010E00C151D0571F06991D701ED91FC9164
:104BE0000190F081E02DC7011995892B19F00F5F15
:104BF0001F4FEFCFC801DF91CF911F910F91FF9011
:104C0000EF90DF90CF9008956115710581F0DB0181
:104C10000D900020E9F7AD0141505109461B570B9B
:104C2000DC01ED91FC910280F381E02D199480E08C
:104C300090E00895DC01ED91FC91DB0114964D911B
:104C40005C9115976D917C910280F381E02D199410
:104C500065EE72E0D9CF0F931F93CF93DF93EC01F2
:104C6000E9DF8C01CE01F4DF800F911FDF91CF913E
:104C70001F910F9108950F931F93CF93DF93EC0132
:104C8000C3DF8C01CE01E4DF800F911FDF91CF9154
:104C90001F910F9108950F931F93CF93DF93EC0112
:104CA000D2D9688779878A879B87E881F9810680CE
:104CB000F781E02DCE01199597FF14C0C4D908855E
:104CC00019852A853B85601B710B820B930B0C8128
:104CD0001D812E813F81601771078207930728F39A
:104CE0008FEF9FEFDF91CF911F910F910895CF929A
:104CF000DF92EF92FF920F931F93CF93DF937C018C
:104D00006A01EB0100E010E00C151D0541F0C70140
:104D1000C2DF97FD04C089930F5F1F4FF5CFC80115
:104D2000DF91CF911F910F91FF90EF90DF90CF9087
:104D30000895FC01808191810CC2CF93DF93EC0137
:104D400088819981009709F004D2198218821D8206
:104D50001C821B821A82DF91CF9108950F931F93BB
:104D6000CF93DF93EC018B016F5F7F4F8881998137
:104D70007FD2009731F0998388831B830A8381E077
:104D800001C080E0DF91CF911F910F910895CF93E3
:104D9000DF93EC0188819981892B29F08A819B819D
:104DA0008617970758F4CE01D9DF882341F08C810C
:104DB0009D81892B19F4E881F981108281E0DF91CE
:104DC000CF910895EF92FF920F931F93CF93DF93AC
:104DD000EC017B018A01BA01DADF811103C0CE0147
:104DE000ACDF06C01D830C83B701888199814ED347
:104DF000CE01DF91CF911F910F91FF90EF90089519
:104E0000FC011182108213821282158214826115B4
:104E1000710551F0FB0101900020E9F7AF0141500D
:104E20005109461B570BCECF0895CF93DF93EC016A
:104E30006115710559F0FB0101900020E9F7AF0100
:104E400041505109461B570BBDDF01C076DFCE0133
:104E5000DF91CF9108950F931F93CF93DF93CDB739
:104E6000DEB729970FB6F894DEBF0FBECDBF8C0119
:104E7000862FF80111821082138212821582148209
:104E800050E0BE016F5F7F4F90E016D3BE016F5FB1
:104E90007F4FC801CADF29960FB6F894DEBF0FBE58
:104EA000CDBFDF91CF911F910F9108950F931F9365
:104EB000CF93DF93CDB7DEB761970FB6F894DEBF1F
:104EC0000FBECDBF8C01CB01F8011182108213827D
:104ED00012821582148250E0BE016F5F7F4FECD2C8
:104EE000BE016F5F7F4FC801A0DF61960FB6F894D7
:104EF000DEBF0FBECDBFDF91CF911F910F910895FF
:104F0000EF92FF920F931F93CF93DF93EC017B01FE
:104F10000C811D816115710511F480E014C04115EB
:104F2000510581F0040F151FB80131DF8823A9F363
:104F3000288139818C819D81B701820F931FA6D270
:104F40001D830C8381E0DF91CF911F910F91FF9022
:104F5000EF900895FB014481558160817181D0CF2C
:104F60006115710551F0FB0101900020E9F7AF01D7
:104F700041505109461B570BC3CF80E00895089557
:104F8000991B79E004C0991F961708F0961B881F9B
:104F90007A95C9F780950895A1E21A2EAA1BBB1B2A
:104FA000FD010DC0AA1FBB1FEE1FFF1FA217B307F5
:104FB000E407F50720F0A21BB30BE40BF50B661F0B
:104FC000771F881F991F1A9469F7609570958095CF
:104FD00090959B01AC01BD01CF010895EE0FFF1F1D
:104FE0000590F491E02D1994A29FB001B39FC001E8
:104FF000A39F700D811D1124911DB29F700D811D05
:105000001124911D0895F0DFA59F900DB49F900D80
:10501000A49F800D911D112408950790F691E02D15
:105020001994CF93DF938230910510F482E090E0E1
:10503000E091CB08F091CC0820E030E0A0E0B0E0B7
:10504000309739F14081518148175907B8F0481716
:10505000590771F482819381109729F013969C93DC
:105060008E9312972CC09093CC088093CB0827C0C6
:105070002115310531F04217530718F0A901DB0162
:1050800001C0EF019A01BD01DF010280F381E02D33
:10509000D7CF21153105F9F0281B390B2430310504
:1050A00080F48A819B816115710521F0FB01938356
:1050B000828304C09093CC088093CB08FE01329683
:1050C00044C0FE01E20FF31F8193919322503109F6
:1050D000398328833AC02091C9083091CA08232B0C
:1050E00041F420910202309103023093CA082093C8
:1050F000C90820910002309101022115310541F4C7
:105100002DB73EB74091040250910502241B350B88
:10511000E091C908F091CA08E217F307A0F42E1B2A
:105120003F0B2817390778F0AC014E5F5F4F24170B
:10513000350748F04E0F5F1F5093CA084093C908C7
:105140008193919302C0E0E0F0E0CF01DF91CF9135
:105150000895CF93DF93009709F487C0FC0132973D
:1051600013821282C091CB08D091CC08209781F491
:1051700020813181280F391F8091C9089091CA0878
:105180008217930779F5F093CA08E093C9086DC0B8
:10519000DE0120E030E0AE17BF0750F412964D91CB
:1051A0005C9113979D014115510509F1DA01F3CF87
:1051B000B383A28340815181840F951F8A179B0777
:1051C00071F48D919C911197840F951F0296918394
:1051D000808312968D919C911397938382832115DE
:1051E000310529F4F093CC08E093CB083EC0D901F7
:1051F0001396FC93EE9312974D915D91A40FB51FFA
:10520000EA17FB0779F480819181840F951F02963C
:10521000D90111969C938E938281938113969C93CE
:105220008E931297E0E0F0E08A819B81009719F05D
:10523000FE01EC01F9CFCE01029628813981820F5F
:10524000931F2091C9083091CA082817390769F4BB
:10525000309729F41092CC081092CB0802C0138228
:105260001282D093CA08C093C908DF91CF910895E4
:105270006F927F928F929F92AF92BF92CF92DF9266
:10528000EF92FF920F931F93CF93DF93EC01CB012B
:10529000209779F4DF91CF911F910F91FF90EF90BC
:1052A000DF90CF90BF90AF909F908F907F906F9046
:1052B000B8CEFE01E60FF71F9E0122503109E2171A
:1052C000F30708F4A8C0D9010D911C911197061796
:1052D0001707B0F00530110508F49BC0A801445031
:1052E00051094617570708F494C002501109061BCC
:1052F000170B019311936D937C93CF012ADF89C023
:105300005B01A01AB10A4E01800E911EA091CB083C
:10531000B091CC08612C712C60E070E0109709F41A
:1053200049C0A815B905C9F5ED90FC901197670122
:1053300042E0C40ED11CCA14DB0478F147018A187C
:105340009B08640142E0C40ED11C1296BC901297D7
:105350001396AC91B5E0CB16D10440F0B282A38392
:1053600091828082D9018D939C9309C00E5F1F4F5B
:105370000E0D1F1DF90111830083EB2DFA2F61150E
:10538000710531F0DB011396FC93EE93129741C047
:10539000F093CC08E093CB083CC06D917C911197C1
:1053A0006616770608F43B01BD0112960D90BC917C
:1053B000A02DB4CF6091C9087091CA08681579050D
:1053C000E9F468167906D0F4409100025091010288
:1053D0004115510541F44DB75EB7609104027091DB
:1053E0000502461B570BE417F507A8F4F093CA080B
:1053F000E093C908F901918380830BC012DE7C0120
:10540000009749F0A801BE012DD0CE01A2DEC70150
:1054100004C0CE0102C080E090E0DF91CF911F91E7
:105420000F91FF90EF90DF90CF90BF90AF909F9043
:105430008F907F906F900895FB01DC0102C0059072
:105440000D9241505040D8F70895FB01DC0104C093
:105450008D910190801921F441505040C8F7881B6C
:10546000990B0895FB01DC0102C001900D9241509F
:105470005040D8F70895FC018191861721F08823C8
:10548000D9F7992708953197CF010895FB01DC01E1
:1054900001900D920020E1F70895FB01DC014150DD
:1054A000504048F001900D920020C9F701C01D92B4
:1054B00041505040E0F708954532510518F442300C
:1054C00008F004C0FB011082CB010895BB27FB014B
:1054D0005527AA27880F991FAA1FA41710F0A41BED
:1054E00083955051B9F7A05DAA3308F0A95DA19347
:1054F000009779F7B111B1931192CB0100C0DC0193
:10550000FC01672F71917723E1F7329704C07C91FA
:105510006D9370836291AE17BF07C8F3089512E0D0
:10552000C4E9D2E000E005C022970109FE010BBFEB
:1055300074DDC639D10780E00807B1F7F894FFCFD2
:105540000000CD08800001010101010101314E6F11
:105550006465000000324E6F6465000000FFFFFFCD
:10556000FF2F0030002D003A0020434F4D4D414E9B
:1055700044204953535545443A20004C4F472E741C
:1055800078740020434152542053544152544544AE
:105590000020494E5445524E414C20434F4D4D4101
:1055A0004E442053303A200020494E5445524E413B
:1055B0004C20434F4D4D414E442053313A20002062
:1055C000494E5445524E414C20434F4D4D414E445F
:1055D0002053323A200020494E5445524E414C202F
:1055E000434F4D4D414E442053333A2000000000BC
:1055F000001E06F205C705CF05E205F10500000013
:1056000000970DAD0D8B0EE60DEF0DC80D000000DF
:10561000002D1BDC25000000005F22DC25B721D017
:1056200021C2213E220D0A006E616E00696E660085
:065630006F7666002E00FB
:00000001FF
