:100000000C9467000C948F000C948F000C948F005C
:100010000C948F000C948F000C948F000C948F0024
:100020000C948F000C948F000C948F000C948F0014
:100030000C948F000C948F000C948F000C948F0004
:100040000C9418050C948F000C940B080C943D082C
:100050000C948F000C948F000C948F000C948F00E4
:100060000C948F000C948F001112131415160A0BA8
:100070000C0D0E0F00010203040500000008000231
:10008000010000030407000000000000000001025E
:100090000408102040800102040810200102040816
:1000A00010200404040404040404020202020202F4
:1000B00003030303030300000000250028002B00B6
:1000C00000000000240027002A00FB006D08112416
:1000D0001FBECFEFD8E0DEBFCDBF11E0A0E0B1E0A2
:1000E000E6E2F4E102C005900D92A832B107D9F71B
:1000F00021E0A8E2B1E001C01D92A93EB207E1F7FC
:1001000010E0CEECD0E004C02297FE010E949009DE
:10011000CA3CD107C9F70E94B1080C94110A0C948B
:10012000000048E068E271E080E391E00E9469032A
:10013000E0914C01F0914D010280F381E02D48E007
:1001400050E068E271E08CE491E0099448E050E00E
:1001500068E271E08CE491E00E94160980E391E08E
:100160000E94BB0248E068E271E080E391E00E94F7
:10017000440380E391E00C94FD0326E040E052EC60
:1001800061E070E08CE491E00E94A90780E391E0D7
:100190000E949E0463E080E391E00E94430462E0D9
:1001A00070E080E391E00E945C044FE06FE080E348
:1001B00091E00E940F0568E080E391E00E94B502A3
:1001C0006AE071E080E391E00E94750340E151E054
:1001D00061E080E391E00E948F0380E391E00E9460
:1001E000FD0380E00E941106BC01882777FD809501
:1001F000982F0C94390945E064E080E391E00C9479
:10020000A3028CE491E00E94C6061816190614F4A5
:100210000E94A60080E391E00E94650381110C9486
:1002200091000895CF93CFB7F89480914201811146
:1002300027C0ECEAF0E08491E8E9F0E09491E82F3F
:10024000F0E0EE0FFF1FE054FF4FA591B4918C91A9
:10025000892321F461E08AE00E94900661E08AE04F
:100260000E9457068CB580618CBD8CB580648CBDB6
:1002700061E08DE00E94570661E08BE00E94570626
:10028000809142018F5F80934201CFBFCF9108954B
:100290008EBD00000DB407FEFDCF8EB508952CB5C0
:1002A0002F7D2CBD2CB5237F2CBD2CB52C7F2CBDD8
:1002B0002DB521602DBDFC0181810E94900685E055
:1002C00090E00C94CB05FC018081918189130C9402
:1002D0009006089560E00C944F0161E00C944F018A
:1002E000EF92FF921F93CF93DF931F92CDB7DEB7AC
:1002F0007C0169830E946A016981862F8F710E9447
:1003000048018FEF0E944801182FC7010E946D011C
:10031000812F0F90DF91CF911F91FF90EF90089563
:10032000CF92DF92EF92FF920F931F93CF93DF93C1
:1003300000D01F92CDB7DEB78C01F22E4A835B83CB
:1003400069830E946A016981862F8F7180620E9491
:100350004801E82E4A81C42E5B81D52EF40EFC1490
:1003600031F0F60181916F010E944801F8CFC80178
:100370000E946D018E2D0F900F900F90DF91CF9105
:100380001F910F91FF90EF90DF90CF900895EF9223
:10039000FF921F93CF93DF9300D0CDB7DEB77C01E0
:1003A0004A8369830E946A016981862F8F71806206
:1003B0000E944801182F4A81842F0E944801C701DA
:1003C0000E946D01812F0F900F90DF91CF911F91AF
:1003D000FF90EF900895AF92BF92DF92EF92FF925D
:1003E0000F931F93CF93DF9300D01F92CDB7DEB74B
:1003F0008C01FC01E580F42EE41608F4FE2CF801D3
:100400008681811102C0EF1801C0E12CC801298347
:100410006A837B830E946A012981822F0E9448019E
:10042000D82E6A81A62E7B81B72EF60EFA1431F0F3
:10043000F50181915F010E944801F8CFEE2029F07B
:1004400080E00E944801EA94F9CFC8010E946D0142
:100450008D2D0F900F900F90DF91CF911F910F91E5
:10046000FF90EF90DF90BF90AF900895AF92BF9252
:10047000DF92EF92FF920F931F93CF93DF9300D001
:10048000CDB7DEB78C01FC01E580F42EE41608F44C
:10049000FE2CF8018681811102C0EF1801C0E12C09
:1004A000C80169837A830E946A0181E60E9448013B
:1004B000D82E6981A62E7A81B72EF60EFA1439F05D
:1004C0008FEF0E944801F50181935F01F7CFEE2085
:1004D00029F08FEF0E944801EA94F9CFC8010E94E9
:1004E0006D018D2D0F900F90DF91CF911F910F9186
:1004F000FF90EF90DF90BF90AF900895EF92FF9242
:100500001F93CF93DF931F92CDB7DEB77C01698332
:100510000E946A016981862F0E944801182FC70135
:100520000E946D01812F0F90DF91CF911F91FF905D
:10053000EF90089562EE0C947E0261EE0C947E02C0
:100540006FEF0C947E02FC0160834183148280E291
:100550008583168285E0848717820895462F6E373B
:1005600008F04DE765E00C94C701613208F060E2E5
:10057000FC0165830895CF93DF93EC0160E00E9456
:1005800063018D859E850E94CB056DE1CE010E94A1
:10059000700181FF07C08D859E850E94CB05CE012D
:1005A0000E949D0260E0CE010E947001482F4E7FA4
:1005B00060E0CE010E94C70162E0CE010E9470019E
:1005C000E4E7F0E0E49121E030E001C0220FEA9599
:1005D000EAF7822B482F62E0CE01DF91CF910C9495
:1005E000C701CF93DF93EC0160E00E94700181FDB1
:1005F0000EC0482F426060E0CE010E94C70165E056
:1006000070E080E090E0DF91CF910C949105DF9154
:10061000CF9108950F93CF93DF93EC01222311F034
:1006200020EB01C020EACE010E94EB01002339F04B
:1006300061E0CE01DF91CF910F910C946301DF91C6
:10064000CF910F9108950F93CF93DF93EC0101E0C9
:100650000E940A03CE010E94A0028073D9F360E0D9
:10066000CE010E94630140E767E0CE010E94C7010E
:1006700084FF05C0CE010E949D0280E001C081E0A0
:10068000DF91CF910F91089520E00C9423030F93F5
:100690001F93CF93DF938C01EB0167E10E94700100
:1006A00080FD0BC0209759F0C8010E94A00290E085
:1006B000959587958770888302C080E001C081E0AE
:1006C000DF91CF911F910F91089560E070E00C943D
:1006D0004703CF93DF93EC010E94360240E767E0C7
:1006E000CE01DF91CF910C94C7010F931F93CF934D
:1006F000DF93EC018B012C85AB016AE00E94900135
:100700002C85A80160E1CE010E9490014D8161E13C
:10071000CE01DF91CF911F910F910C94C701FF92F1
:100720000F931F93CF93DF93EC01F62E8A01611193
:1007300007C04C8550E0B80107960E94000A07C028
:1007400086E0861708F437C081E0681307C0EF2DF4
:10075000F0E0E259FF4F64912C8506C0E62FF0E0EF
:10076000E259FF4F649121E0A801CE010E9490015F
:100770000F2D10E0F801E859FF4F64914D81CE0133
:100780000E94C70162E0CE010E947001F801EC589E
:10079000FF4F049121E030E001C0220F0A95EAF7F3
:1007A000822B482F62E0CE01DF91CF911F910F91F4
:1007B000FF900C94C701DF91CF911F910F91FF9093
:1007C00008951F93CF93DF93EC01162F62E00E94F0
:1007D0007001E12FF0E0EC58FF4FE49141E050E070
:1007E00001C0440FEA95EAF74095482362E0CE0144
:1007F000DF91CF911F910C94C701CF93DF93EC0150
:100800000E94F10260E0CE010E947001482F416019
:1008100060E0CE010E94C70140E767E0CE010E9480
:10082000C70161E0CE010E9463018F81882349F0F6
:100830002C85AE01495F5F4F6AE0CE010E949001B6
:1008400004C060E0CE010E94E1036DE1CE010E9490
:10085000700181FF05C0CE01DF91CF910C949D0204
:10086000DF91CF910895CF93DF93EC010E946A014D
:1008700080E50E94480183E70E944801CE01DF9194
:10088000CF910C946D011F93CF93DF93EC01162F42
:1008900066E00E947001887F143020F4612F660F9B
:1008A0006F5F01C067E0462F482B66E0CE01DF9105
:1008B000CF911F910C94C701EF92FF920F931F935A
:1008C000CF93DF931F92CDB7DEB77C018B0166E03B
:1008D0000E947001582F577D0230110531F450628B
:1008E0000BE910E020E030E00DC00130110529F0E7
:1008F00005E510E020E030E005C0586001E410E0BC
:1009000020E030E0F701058716872787308B452FD9
:1009100066E0C70159830E94C70166E0C7010E94D3
:10092000700191E05981851390E0892F0F90DF913C
:10093000CF911F910F91FF90EF9008951F93CF9348
:10094000DF93EC0188819981891719F061E00E9499
:10095000570689819881981719F061E00E9457061F
:100960000E94120160E0CE010E94630161E0CE01AD
:100970000E944F0165E070E080E090E00E949105E8
:100980004CE060E0CE010E94C7014FE564E0CE017B
:100990000E94C70162E070E0CE010E945C048823DF
:1009A00011F081E08C8366E0CE010E947001182F67
:1009B00060E070E0CE010E945C04CE010E9433042E
:1009C00040E06DE1CE010E94C70140E06CE1CE0144
:1009D0000E94C70140E767E0CE010E94C7016CE4B6
:1009E000CE010E94AE02CE010E949A02CE010E9468
:1009F0009D02CE010E94F10260E0CE010E947001D2
:100A0000482F4E7F60E0CE010E94C701115081E067
:100A10001E3F08F080E0DF91CF911F91089520E103
:100A2000629FB00111244F70462B64E00C94C70103
:100A30001F920F920FB60F9211242F933F938F9313
:100A40009F93AF93BF938091440190914501A091F2
:100A50004601B09147013091430123E0230F2D3728
:100A600020F40196A11DB11D05C026E8230F0296B2
:100A7000A11DB11D20934301809344019093450132
:100A8000A0934601B093470180914801909149019C
:100A9000A0914A01B0914B010196A11DB11D809317
:100AA000480190934901A0934A01B0934B01BF9133
:100AB000AF919F918F913F912F910F900FBE0F900B
:100AC0001F9018952FB7F8946091440170914501DB
:100AD00080914601909147012FBF08953FB7F89448
:100AE0008091480190914901A0914A01B0914B0138
:100AF00026B5A89B05C02F3F19F00196A11DB11D79
:100B00003FBF6627782F892F9A2F620F711D811D95
:100B1000911D42E0660F771F881F991F4A95D1F7F4
:100B200008958F929F92AF92BF92CF92DF92EF92F1
:100B3000FF926B017C010E946E054B015C01C114A8
:100B4000D104E104F104F1F00E9441090E946E0514
:100B5000681979098A099B09683E734081059105E6
:100B600070F321E0C21AD108E108F10888EE880E7E
:100B700083E0981EA11CB11CC114D104E104F1044E
:100B800029F7DDCFFF90EF90DF90CF90BF90AF902F
:100B90009F908F9008958230910538F0880F991FAB
:100BA000880F991F05970197F1F70895789484B5F8
:100BB000826084BD84B5816084BD85B5826085BD59
:100BC00085B5816085BDEEE6F0E08081816080833F
:100BD000E1E8F0E010828081826080838081816022
:100BE0008083E0E8F0E0808181608083E1EBF0E0E9
:100BF000808184608083E0EBF0E08081816080838D
:100C0000EAE7F0E080818460808380818260808375
:100C10008081816080838081806880831092C100A0
:100C200008958E3008F08E5087702091160190E460
:100C3000299F90011124822B80937C0080917A005F
:100C4000806480937A0080917A0086FDFCCF809149
:100C500078002091790090E0922B0895833081F004
:100C600028F4813099F08230A1F008958730A9F0FE
:100C70008830B9F08430D1F4809180008F7D03C03A
:100C8000809180008F7780938000089584B58F775E
:100C900002C084B58F7D84BD08958091B0008F77A8
:100CA00003C08091B0008F7D8093B0000895CF93F2
:100CB000DF9390E0FC01E257FF4F2491FC01EE55D9
:100CC000FF4F8491882349F190E0880F991FFC0120
:100CD000E054FF4FA591B4918A549F4FFC01C591F8
:100CE000D4919FB7611108C0F8948C91209582230C
:100CF0008C93888182230AC0623051F4F8948C91DD
:100D0000322F309583238C938881822B888304C073
:100D1000F8948C91822B8C939FBFDF91CF91089593
:100D20000F931F93CF93DF931F92CDB7DEB7282F7A
:100D300030E0F901E658FF4F8491F901E257FF4F87
:100D40001491F901EE55FF4F04910023C9F0882357
:100D500021F069830E942E066981E02FF0E0EE0FFA
:100D6000FF1FEA54FF4FA591B4919FB7F8948C915F
:100D7000611103C01095812301C0812B8C939FBF0B
:100D80000F90DF91CF911F910F910895FC01818DFC
:100D9000228D90E0805C9F4F821B91098F73992771
:100DA0000895FC01918D828D981731F0828DE80FA6
:100DB000F11D858D90E008958FEF9FEF0895FC0160
:100DC000918D828D981761F0828DDF01A80FB11D82
:100DD0005D968C91928D9F5F9F73928F90E00895A6
:100DE0008FEF9FEF089583E698E0892B49F080E02C
:100DF00090E0892B29F00E94630881110C94000077
:100E00000895FC01848DDF01A80FB11DA35ABF4FC7
:100E10002C91848D90E001968F739927848FA689F9
:100E2000B7892C93A089B1898C9180648C93938D20
:100E3000848D981306C00288F389E02D80818F7D10
:100E400080830895CF93DF93EC01888D8823C9F0C8
:100E5000EA89FB89808185FD05C0A889B9898C91C3
:100E600086FD0FC00FB607FCF5CF808185FFF2CF5E
:100E7000A889B9898C9185FFEDCFCE010E94010729
:100E8000E7CFDF91CF910895CF92DF92FF920F933A
:100E90001F93CF93DF931F92CDB7DEB76C0181E034
:100EA000D60158968C9358975B969C915B975C966D
:100EB0008C915C97981307C05096ED91FC915197D7
:100EC000808185FD2EC0F601038D10E00F5F1F4F5E
:100ED0000F731127F02EF601848DF81211C00FB692
:100EE00007FCF9CFD6015096ED91FC915197808186
:100EF00085FFF1CFC60169830E9401076981EBCFAD
:100F0000838DE80FF11DE35AFF4F6083D6015B9696
:100F10000C935B975296ED91FC9153978081806280
:100F20000CC0D6015696ED91FC9157976083509670
:100F3000ED91FC91519780818064808381E090E005
:100F40000F90DF91CF911F910F91FF90DF90CF9085
:100F50000895BF92CF92DF92EF92FF92CF93DF93EB
:100F6000EC016A017B01B22EE889F98982E0808375
:100F7000411581EE580761057105A1F060E079E047
:100F80008DE390E0A70196010E94420921503109AA
:100F9000410951095695479537952795211580E1C7
:100FA000380798F0E889F989108260E874E88EE1E2
:100FB00090E0A70196010E944209215031094109A0
:100FC00051095695479537952795EC85FD853083D2
:100FD000EE85FF852083188EEC89FD89B082EA8931
:100FE000FB89808180618083EA89FB8980818860B8
:100FF0008083EA89FB89808180688083EA89FB8914
:1010000080818F7D8083DF91CF91FF90EF90DF9083
:10101000CF90BF9008951F920F920FB60F92112498
:101020002F938F939F93EF93FF93E0915C01F09147
:101030005D018081E0916201F091630182FD12C047
:101040009081809165018F5F8F7320916601821777
:1010500051F0E0916501F0E0E45BFE4F958F8093E5
:10106000650101C08081FF91EF919F918F912F9138
:101070000F900FBE0F901F9018951F920F920FB6F2
:101080000F9211242F933F934F935F936F937F930E
:101090008F939F93AF93BF93EF93FF938CE491E073
:1010A0000E940107FF91EF91BF91AF919F918F91A6
:1010B0007F916F915F914F913F912F910F900FBE54
:1010C0000F901F9018958CE491E00E94C60621E0D5
:1010D000892B09F420E0822F089510924F0110927D
:1010E0004E0188EE93E0A0E0B0E080935001909331
:1010F0005101A0935201B09353018BE191E0909381
:101100004D0180934C0185EC90E0909359018093C0
:10111000580184EC90E090935B0180935A0180EC3D
:1011200090E090935D0180935C0181EC90E090935E
:101130005F0180935E0182EC90E090936101809367
:10114000600186EC90E090936301809362011092BD
:10115000650110926601109267011092680108956E
:1011600008950E94D6050E94B0080E94BD00C3EFFA
:10117000D6E00E9401012097E1F30E94F306F9CF27
:10118000CF92DF92EF92FF920F931F93CF93DF9353
:101190007C016A01EB0100E010E00C151D0571F007
:1011A0006991D701ED91FC910190F081E02DC7018B
:1011B0000995892B19F00F5F1F4FEFCFC801DF9101
:1011C000CF911F910F91FF90EF90DF90CF900895F6
:1011D0000F931F93CF93DF93EC010E946205688702
:1011E00079878A879B87E881F9810680F781E02DDE
:1011F000CE01099597FF15C00E94620508851985E3
:101200002A853B85601B710B820B930B0C811D8122
:101210002E813F81601771078207930720F38FEFBC
:101220009FEFDF91CF911F910F910895CF92DF92A1
:10123000EF92FF920F931F93CF93DF937C016A018C
:10124000EB0100E010E00C151D0549F0C7010E94FC
:10125000E80897FD04C089930F5F1F4FF4CFC801C2
:10126000DF91CF911F910F91FF90EF90DF90CF9082
:101270000895611571058105910511F00C94F70928
:1012800008950895A1E21A2EAA1BBB1BFD010DC0F3
:10129000AA1FBB1FEE1FFF1FA217B307E407F50726
:1012A00020F0A21BB30BE40BF50B661F771F881F02
:1012B000991F1A9469F760957095809590959B0198
:1012C000AC01BD01CF010895052E97FB1EF40094DB
:1012D0000E947B0957FD07D00E94420907FC03D0FA
:1012E0004EF40C947B0950954095309521953F4FD5
:1012F0004F4F5F4F089590958095709561957F4F02
:101300008F4F9F4F08950E949409A59F900DB49F01
:10131000900DA49F800D911D11240895EE0FFF1FC5
:101320000590F491E02D0994A29FB001B39FC001F4
:10133000A39F700D811D1124911DB29F700D811D01
:101340001124911D08958F929F92AF92BF92CF92D8
:10135000DF92EF92FF92CF93DF93EC016881798166
:101360008A819B81611571058105910521F464E2F3
:1013700079ED8BE597E02DE133EF41E050E00E94FD
:10138000640949015A019B01AC01A7EAB1E40E943A
:1013900083096B017C01ACEEB4EFA50194010E94BE
:1013A0000C0AC60ED71EE81EF91EF7FE06C081E025
:1013B000C81AD108E10880E8F80AC882D982EA820E
:1013C000FB82C701B6019F77DF91CF91FF90EF902D
:1013D000DF90CF90BF90AF909F908F9008950E9424
:1013E000A309089586E091E00E94A30908956093FF
:1013F00006017093070180930801909309010895F5
:10140000FB01DC0102C001900D9241505040D8F721
:101410000895B7FF0C9483090E948309821B930BE4
:061420000895F894FFCFCF
:101426000000E901800001000000314E6F64650094
:10143600324E6F64650001000000004407C008C614
:0814460006DF06D106220700B3
:00000001FF
