:100000002CC100005BC1000059C1000057C10000B5
:1000100055C1000053C1000051C100004FC1000094
:100020004DC100004BC1000049C1000047C10000A4
:1000300045C1000043C1000041C100003FC10000B4
:100040003DC100003BC1000039C1000037C10000C4
:1000500035C1000033C1000031C100000C94761F8F
:100060002DC100000C94FC220C94322327C1000007
:1000700025C1000023C1000021C100001FC10000F4
:100080001DC100001BC1000019C1000017C1000004
:100090000C94A7230C94DD2311C1000077C7000046
:1000A0000DC100000BC1000009C1000007C1000024
:1000B00005C1000003C1000001C10000FFC0000035
:1000C000FDC00000FBC00000F9C000000C945224E9
:1000D0000C948824F3C000000C94FD240C94332568
:1000E000EDC00000AB20AE209D20A120A720E52080
:1000F000B220B620BC20C020C420CA20CE20D220EE
:10010000E520D820DC20E0201112131415160A0B6C
:100110000C0D0E0F0001020304057C3C3E5E2B3DDE
:100120003F2F5B5D3B2C2A225C0000000A0B02097A
:100130000C0D0E0807030401000000000000000081
:1001400000000000000000000000000000000000AF
:10015000000000000000121110000000000000006C
:10016000000000000000000000000000000000008F
:1001700001021020200808102040102040800201B9
:10018000020108040201010204081020408080409E
:10019000201008040201800402018040201008049D
:1001A000020108040201010204081020408001023B
:1001B0000408102040800505050507050808080803
:1001C000020202020A0A08080404040401010101EF
:1001D00001010101030303030303030304070707EA
:1001E0000C0C0C0C0C0C0C0C02020202060606068F
:1001F000060606060B0B0B0B0B0B0B0B000020006F
:100200002300260029002C002F00320000010000EE
:1002100003010601090100002200250028002B002F
:100220002E003100340002010000050108010B011D
:1002300000002100240027002A002D003000330098
:1002400001010000040107010A01EF03DD06FE0FB2
:1002500064230F24BA246525F80311241FBECFEFB1
:10026000D1E2DEBFCDBF00E00CBF12E0A0E0B2E003
:10027000E4E7F4E500E00BBF02C007900D92A6385A
:10028000B107D9F728E0A6E8B2E001C01D92AD356C
:10029000B207E1F712E0C8E5D2E000E006C022971D
:1002A0000109FE010BBF0E94B027CA34D10780E0CC
:1002B0000807A9F70E94A9250C94292AA1CE8091AC
:1002C000B702813699F460E0809108020E941F21F4
:1002D0002091B80241E06091060280910A020E94DA
:1002E000542161E0809108020C941F210895CF935E
:1002F000DF9300D000D0CDB7DEB72091B602213613
:1003000081F482EA92E00E947E0A48E064EB72E0A7
:1003100082EA92E00E94F70A82EA92E00E94A10B30
:1003200000C1223671F4E091E505F091E605028006
:10033000F381E02D48E050E064EB72E085EE95E05B
:100340000FC0233679F4E0918206F0918306028093
:10035000F381E02D48E050E064EB72E082E896E043
:100360001995DFC0243609F45AC0253609F4C1C0F6
:10037000263679F4E091E505F091E6050280F381F7
:10038000E02D48E050E064EB72E085EE95E01995D1
:10039000DACF273671F4E091E505F091E6050280A9
:1003A000F381E02D48E050E064EB72E085EE95E0EB
:1003B00035C0283671F4E091E505F091E60502803C
:1003C000F381E02D48E050E064EB72E085EE95E0CB
:1003D0008FC02936B1F02A3609F451C02B3609F402
:1003E0007AC02C3651F5E091E505F091E6050280E2
:1003F000F381E02D48E050E064EB72E085EE95E09B
:100400001995E0918206F09183060280F381E02D38
:1004100048E050E064EB72E082E896E01995E091E4
:100420001F07F09120070280F381E02D48E050E0A3
:1004300064EB72E08FE197E093CF2D36F1F12E3629
:1004400071F4E091E505F091E6050280F381E02D7D
:1004500048E050E064EB72E085EE95E03BC02F365B
:10046000E1F4E091E505F091E6050280F381E02DED
:1004700048E050E064EB72E085EE95E01995E0917C
:100480008206F09183060280F381E02D48E050E07F
:1004900064EB72E082E896E02BC02037C1F5E09172
:1004A000E505F091E6050280F381E02D48E050E09B
:1004B00064EB72E085EE95E01995E0918206F0918B
:1004C00083060280F381E02D48E050E064EB72E0A7
:1004D00082E896E01995E0911F07F09120070280CD
:1004E000F381E02D48E050E064EB72E08FE197E0AB
:1004F0001995E091BC07F091BD070280F381E02DD2
:1005000048E050E064EB72E08CEB97E029CF2237B3
:1005100041F4BC01CE0101960E94970CCE010196D8
:10052000CEDE26960FB6F894DEBF0FBECDBFDF91AC
:10053000CF910895CF93DF93EB012A813B81FC019A
:10054000338322834C815D816E817F814483558317
:1005500066837783488559856A857B85408751877F
:10056000628773872DE0FE013C96DC011C960190AA
:100570000D922A95E1F7298D3A8DFC01328F218F5A
:10058000DF91CF910895EF92FF920F931F93CF9336
:10059000DF93CDB7DEB7A1970FB6F894DEBF0FBEDD
:1005A000CDBF7C0182EA92E00E94150B882309F4FA
:1005B00056C048E064EB72E082EA92E00E94180BB9
:1005C00066E772E0CE014C960E94D92604EB12E059
:1005D000F80161918F0140E1CE0101960E9404274C
:1005E000BE016F5F7F4FCE014C960E945927CE010E
:1005F00001960E94722664E272E0CE014C960E943F
:100600005F27F2E00C3B1F0719F723E146E252E0B7
:100610006DE773E0CE0101960E947F0FBE016F5F10
:100620007F4F86E892E086DFCE0101960E94020E9F
:10063000BE01645E7F4F86E892E00E94042686E851
:1006400092E00E94550EB701CE0101960E94970CD0
:10065000CE0101964CDECE014C960E947226A196E8
:100660000FB6F894DEBF0FBECDBFDF91CF911F91C3
:100670000F91FF90EF900895CF92DF92EF92FF924B
:100680000F931F93CF93DF93CDB7DEB76B970FB662
:10069000F894DEBF0FBECDBF0DE02CE04BE06AE06A
:1006A0008DE793E00E94670E08E012E061E0F80138
:1006B00080810E94E62086E0C82E82E0D82E61E08C
:1006C000F60180810E94E6209AE0E92E92E0F92E60
:1006D00061E0F70180810E94E62060E0F8018081FE
:1006E0000E941F212FEF40E0F6016081F701808119
:1006F0000E94542161E0F80180810E941F2126E0C0
:1007000040E052EC61E070E082E896E00E949C22BA
:1007100026E040E052EC61E070E08FE197E00E945B
:100720009C228CEB92E0C2D281EA92E00E94AF0C54
:1007300082EA92E00E94300C63E082EA92E00E943A
:10074000DA0B62E070E082EA92E00E94F10B4FE087
:100750006FE082EA92E00E948F0C68E082EA92E009
:10076000C7D662E172E082EA92E06CD74CE052E0D8
:1007700061E082EA92E07DD782EA92E0E2D723E16B
:1007800046E252E06DE773E0CE0101960E947F0FD2
:10079000BE016F5F7F4F86E892E0CCDECE0101960E
:1007A0000E94020ECE0101960E94B40C6EE272E02D
:1007B00086E892E00E94142686E892E00E94550E98
:1007C0006B960FB6F894DEBF0FBECDBFDF91CF9111
:1007D0001F910F91FF90EF90DF90CF90089545E02B
:1007E00064E082EA92E073D686E892E00C94EF0D22
:1007F00086E892E00C94020EEF92FF920F931F9303
:10080000CF93DF93CDB7DEB7A1970FB6F894DEBFD5
:100810000FBECDBF8C0185EE95E00E949021892B03
:1008200009F45AC048E050E064EB72E085EE95E0D0
:100830000E94502666E772E0CE014C960E94D926AF
:1008400054EBE52E52E0F52EF70161917F0140E176
:10085000CE0101960E940427BE016F5F7F4FCE013B
:100860004C960E945927CE0101960E94722664E29E
:1008700072E0CE014C960E945F27FCEBEF16F2E08F
:10088000FF0611F723E146E252E06DE773E0CE0187
:1008900001960E947F0FBE016F5F7F4F86E892E056
:1008A00049DECE0101960E94020EBE01645E7F4FBA
:1008B00086E892E00E94042686E892E00E94550EA7
:1008C000B801CE0101960E94970CCE0101960FDD72
:1008D000CE014C960E94722682E896E00E949021FA
:1008E000892B09F459C048E050E064EB72E082E8DB
:1008F00096E00E94502666E772E0CE014C960E9478
:10090000D92644EBE42E42E0F42EF70161917F01F9
:1009100040E1CE0101960E940427BE016F5F7F4F28
:10092000CE014C960E945927CE0101960E94722654
:1009300064E272E0CE014C960E945F27FCEBEF165A
:10094000F2E0FF0611F723E146E252E06DE773E0C3
:10095000CE0101960E947F0FBE016F5F7F4F86E838
:1009600092E0E8DDCE0101960E94020EBE01645EB7
:100970007F4F86E892E00E94042686E892E00E947B
:10098000550EB801CE010196D2D7CE010196AFDC4B
:10099000CE014C960E9472268FE197E00E94902132
:1009A000892B09F459C048E050E064EB72E08FE114
:1009B00097E00E94502666E772E0CE014C960E94B6
:1009C000D92634EBE32E32E0F32EF70161917F015B
:1009D00040E1CE0101960E940427BE016F5F7F4F68
:1009E000CE014C960E945927CE0101960E94722694
:1009F00064E272E0CE014C960E945F27FCEBEF169A
:100A0000F2E0FF0611F723E146E252E06DE773E002
:100A1000CE0101960E947F0FBE016F5F7F4F86E877
:100A200092E088DDCE0101960E94020EBE01645E56
:100A30007F4F86E892E00E94042686E892E00E94BA
:100A4000550EB801CE01019672D7CE0101964FDC4A
:100A5000CE014C960E9472268CEB97E00E9490216A
:100A6000892B09F459C048E050E064EB72E08CEB4C
:100A700097E00E94502666E772E0CE014C960E94F5
:100A8000D92624EBE22E22E0F22EF70161917F01BC
:100A900040E1CE0101960E940427BE016F5F7F4FA7
:100AA000CE014C960E945927CE0101960E947226D3
:100AB00064E272E0CE014C960E945F27FCEBEF16D9
:100AC000F2E0FF0611F723E146E252E06DE773E042
:100AD000CE0101960E947F0FBE016F5F7F4F86E8B7
:100AE00092E028DDCE0101960E94020EBE01645EF6
:100AF0007F4F86E892E00E94042686E892E00E94FA
:100B0000550EB801CE01019612D7CE010196EFDB4A
:100B1000CE014C960E947226A1960FB6F894DEBFC5
:100B20000FBECDBFDF91CF911F910F91FF90EF903E
:100B30000895CF93DF93CDB7DEB72C970FB6F89417
:100B4000DEBF0FBECDBFCE0107960ED7BE01695FD7
:100B50007F4FCE010196EBD6CE01019614DDBE018A
:100B6000695F7F4FCE010196E2D6CE01019644DE49
:100B70002C960FB6F894DEBF0FBECDBFDF91CF919C
:100B800008958091EC0290E02091ED02821B910982
:100B900008952091ED028091EC02281750F4E22F85
:100BA000F0E0E251FD4F808190E02F5F2093ED0255
:100BB00008958FEF9FEF0895E091ED028091EC0290
:100BC000E81730F4F0E0E251FD4F808190E00895A5
:100BD0008FEF9FEF08950895CF92DF92EF92FF92EB
:100BE0000F931F93CF93DF937C01CB018A01209158
:100BF000C802222389F0EB016B01C40ED51ECC156F
:100C0000DD0561F06991D701ED91FC910190F081D2
:100C1000E02DC7011995F3CF642F8FD1C801DF9163
:100C2000CF911F910F91FF90EF90DF90CF9008959B
:100C3000CF93DF931F92CDB7DEB769832091C802AF
:100C40002223D1F02091C902203240F021E030E08F
:100C5000FC013383228380E090E014C08091CA02BB
:100C6000E82FF0E0E553FD4F998190838F5F8093EB
:100C7000CA028093C90204C061E0CE0101965DD131
:100C800081E090E00F90DF91CF910895FC011382F5
:100C9000128248EE53E060E070E04483558366833F
:100CA000778380E492E09183808308951092ED022F
:100CB0001092EC021092CA021092C90281C081E027
:100CC0008093C8026093EB021092CA021092C9028C
:100CD0000895F5CF0F93062F21E04091C9026BECE8
:100CE00072E08091EB02D2D01092CA021092C90237
:100CF0001092C8020F9108958F929F92AF92BF9267
:100D0000CF92DF92EF92FF920F931F93CF93DF93D7
:100D1000EC01F62ED42E48015901EE2009F1CFDF67
:100D20001E2D143008F013E01150B8F0E881F9815D
:100D300028E0129FB0011124A501940104C056952A
:100D40004795379527956A95D2F7CA01B901019061
:100D5000F081E02DCE011995E7CF60E0CE01BADF3A
:100D60004D2D413208F040E22C2D6EEE72E08F2DB9
:100D700045D01092ED028093EC02DF91CF911F914C
:100D80000F91FF90EF90DF90CF90BF90AF909F902A
:100D90008F900895CF92EF920F931F93C22EE12C64
:100DA00000E010E09801A8DF1F910F91EF90CF9025
:100DB000089521E0EFCF61E08DCF8CEB92E066CF1C
:100DC00010927B0381E0809379031092780361E0B5
:100DD00084E10E941F2161E085E10E941F21E9EB6F
:100DE000F0E080818E7F808380818D7F808388E4A6
:100DF0008093B80085E48093BC000895413208F0E8
:100E000043C090917B039111FCCF91E090937B03C1
:100E1000209379032FEF20930E0310925303240F96
:100E20002093520390937A0390917A03880F892B31
:100E300080937A0380917803813061F41092780373
:100E400080917A038093BB008091BC0083FDF8CF32
:100E500085EC01C085EE8093BC0080917B038130DE
:100E6000E1F380915303841710F44091530324E578
:100E700033E0FB01D9018A2F821B841718F48D916E
:100E80008193F9CF842F089580E008950F93413224
:100E900008F04AC090917B039111FCCF92E09093AF
:100EA0007B03009379039FEF90930E0310925303FB
:100EB00040935203FB0164E573E0DB019A2F961B1C
:100EC000941718F491919D93F9CF10927A03909111
:100ED0007A03880F892B80937A038091780381307D
:100EE00061F41092780380917A038093BB00809123
:100EF000BC0083FDF8CF85EC01C085EE8093BC007B
:100F0000222321F080917B038230E1F380910E0354
:100F10008F3F61F080910E03803251F080910E037B
:100F2000803341F483E007C081E005C080E003C066
:100F300082E001C084E00F910895613298F420911D
:100F40007B03243089F460933003FC0182E393E057
:100F5000DC012A2F281B261718F421912D93F9CF95
:100F600080E0089581E0089582E0089585ED809302
:100F7000BC008091BC0084FDFCCF10927B030895DF
:100F800085EC8093BC0010927B0308951F920F9212
:100F90000FB60F9211240BB60F922F933F934F93DE
:100FA0005F936F937F938F939F93AF93BF93EF93D1
:100FB000FF938091B900887F803609F49DC070F559
:100FC000883209F45CC090F4803109F455C038F4DB
:100FD000882309F4F3C0883009F44EC0F2C0883188
:100FE00009F44DC0803209F45EC0EBC0803409F4CE
:100FF00069C050F4803309F456C0883309F0E1C069
:1010000080930E03BDDFDDC0803509F44FC0883505
:1010100009F45DC0883409F0D4C0D2C0883909F41D
:10102000C3C0A8F4883709F467C038F4883609F4D7
:1010300063C0803709F460C0C4C0883809F4B4C004
:10104000803909F45FC0803809F0BBC05BC0803BC9
:1010500009F482C038F4803A09F466C0883A09F489
:101060007BC0AFC0803C09F4A3C0883C09F4A0C099
:10107000883B09F486C0A5C080917A0310C0909186
:10108000530380915203981770F5E091530381E068
:101090008E0F80935303F0E0EC5AFC4F80818093D5
:1010A000BB0085EC82C080930E038AC0E09153039D
:1010B00081E08E0F809353038091BB00F0E0EC5AE7
:1010C000FC4F808390915303809152036AC0E0915A
:1010D000530381E08E0F809353038091BB00F0E0B7
:1010E000EC5AFC4F808380917903811169C081E0C3
:1010F0008093780384EA5DC083E080937B03109241
:101100000F03CFCF80910F03803208F04DC0E091E4
:101110000F0381E08E0F80930F038091BB00F0E0FE
:10112000E05FFC4F8083BDCF2BDF80910F038032C7
:1011300030F4E0910F03F0E0E05FFC4F108260912B
:101140000F0370E0E0917403F091750380E193E088
:10115000199510920F0335C084E080937B031092A1
:10116000310310923003E0917603F09177031995E3
:1011700080913003811105C081E08093300310928B
:101180003203E091310381E08E0F80933103F0E070
:10119000EE5CFC4F80818093BB0090913103809185
:1011A0003003981708F47DCF85E88093BC0009C010
:1011B00085EC8093BC0010927B0303C010920E0359
:1011C000D5DEFF91EF91BF91AF919F918F917F916C
:1011D0006F915F914F913F912F910F900BBE0F90A8
:1011E0000FBE0F901F901895CF93CFB7F8948091B2
:1011F0007C03811127C0EBEEF1E08491E5EAF1E098
:101200009491E82FF0E0EE0FFF1FE05DFD4FA591F8
:10121000B4918C91892321F461E085E30E941F2120
:1012200061E085E30E94E6208CB580618CBD8CB5C1
:1012300080648CBD61E084E30E94E62061E083E38A
:101240000E94E62080917C038F5F80937C03CFBF58
:10125000CF9108958EBD00000DB407FEFDCF8EB571
:1012600008952CB52F7D2CBD2CB5237F2CBD2CB51E
:101270002C7F2CBD2DB521602DBDFC0181810E94EC
:101280001F2185E090E00C942620FC018081918153
:1012900089130C941F21089560E0E3CF61E0E1CF52
:1012A000EF92FF921F93CF93DF931F92CDB7DEB7DC
:1012B0007C016983F1DF6981862F8F71CBDF8FEF2E
:1012C000C9DF182FC701EADF812F0F90DF91CF917F
:1012D0001F91FF90EF900895CF92DF92EF92FF92CF
:1012E0000F931F93CF93DF9300D0CDB7DEB78C0160
:1012F000F22E4A835B836983CFDF6981862F8F71EA
:101300008062A8DFE82E4A81C42E5B81D52EF40EC0
:10131000FC1429F0F60181916F019CDFF9CFC8011F
:10132000BDDF8E2D0F900F900F90DF91CF911F9109
:101330000F91FF90EF90DF90CF900895EF92FF9282
:101340001F93CF93DF931F921F92CDB7DEB77C011F
:101350004A836983A1DF6981862F8F7180627ADF7A
:10136000182F4A81842F76DFC70198DF812F0F90D5
:101370000F90DF91CF911F91FF90EF900895AF9262
:10138000BF92DF92EF92FF920F931F93CF93DF9361
:1013900000D0CDB7DEB78C01FC01E580F42EE41659
:1013A00008F4FE2CF8018681811102C0EF1801C0FB
:1013B000E12CC80129836A837B836EDF2981822F18
:1013C00049DFD82E6A81A62E7B81B72EF60EFA143D
:1013D00029F0F50181915F013DDFF9CFEE2021F089
:1013E00080E038DFEA94FACFC80158DF8D2D0F90E6
:1013F0000F900F90DF91CF911F910F91FF90EF9081
:10140000DF90BF90AF900895AF92BF92DF92EF92BE
:10141000FF920F931F93CF93DF931F921F92CDB72D
:10142000DEB78C01FC01E580F42EE41608F4FE2CF6
:10143000F8018681811102C0EF1801C0E12CC801BA
:1014400069837A8329DF81E605DFD82E6981A62E9C
:101450007A81B72EF60EFA1431F08FEFFBDEF5012C
:1014600081935F01F8CFEE2021F08FEFF3DEEA9455
:10147000FACFC80113DF8D2D0F900F90DF91CF9120
:101480001F910F91FF90EF90DF90BF90AF90089564
:10149000EF92FF921F93CF93DF931F92CDB7DEB7EA
:1014A0007C016983F9DE6981862FD4DE182FC7019C
:1014B000F5DE812F0F90DF91CF911F91FF90EF907C
:1014C000089562EEE5CF61EEE3CF6FEFE1CFFC016F
:1014D00060834183148280E28583168285E084875D
:1014E00017820895462F6E3708F04DE765E026CF46
:1014F000613208F060E2FC0165830895CF93DF93C9
:10150000EC0160E0C2DE8D859E850E9426206DE1A3
:10151000CE01C6DE81FF06C08D859E850E942620F5
:10152000CE01D1DF60E0CE01BBDE482F4E7F60E010
:10153000CE0104DF62E0CE01B3DEE4E1F1E0E4914C
:1015400021E030E001C0220FEA95EAF7822B482F14
:1015500062E0CE01DF91CF91F1CECF93DF93EC012A
:1015600060E09EDE81FD0DC0482F426060E0CE014C
:10157000E5DE65E070E080E090E0DF91CF910C94D3
:10158000EF1FDF91CF9108950F93CF93DF93EC017D
:10159000222311F020EB01C020EACE01F0DE00236F
:1015A00031F061E0CE01DF91CF910F916ECEDF91EE
:1015B000CF910F9108950F93CF93DF93EC0101E04A
:1015C000E3DFCE0182DF8073E1F360E0CE015DDE18
:1015D00040E767E0CE01B2DE84FF04C0CE0173DFD6
:1015E00080E001C081E0DF91CF910F91089520E06C
:1015F000E2CF0F931F93CF93DF938C01EB0167E151
:101600004FDE80FD0AC0209751F0C8015EDF90E0F8
:10161000959587958770888302C080E001C081E03E
:10162000DF91CF911F910F91089560E070E0E1CFBD
:10163000CF93DF93EC01E8DE40E767E0CE01DF9176
:10164000CF917CCE0F931F93CF93DF93EC018B014F
:101650002C85AB016AE040DE2C85A80160E1CE015B
:101660003BDE4D8161E1CE01DF91CF911F910F9162
:1016700065CEFF920F931F93CF93DF93EC01F62E6D
:101680008A01611107C04C8550E0B80107960E949D
:10169000CC2907C086E0861708F433C081E06813C0
:1016A00007C0EF2DF0E0E25FFE4F64912C8506C08D
:1016B000E62FF0E0E25FFE4F649121E0A801CE0149
:1016C0000BDE0F2D10E0F801E85FFE4F64914D81B5
:1016D000CE0134DE62E0CE01E3DDF801EC5EFE4FC8
:1016E000049121E030E001C0220F0A95EAF7822B35
:1016F000482F62E0CE01DF91CF911F910F91FF90B3
:101700001DCEDF91CF911F910F91FF9008951F93F0
:10171000CF93DF93EC01162F62E0C2DDE12FF0E002
:10172000EC5EFE4FE49141E050E001C0440FEA95C9
:10173000EAF74095482362E0CE01DF91CF911F91F7
:10174000FDCDCF93DF93EC0108DF60E0CE01A8DD93
:10175000482F416060E0CE01F1DD40E767E0CE0157
:10176000EDDD61E0CE0191DD8F81882341F02C8594
:10177000AE01495F5F4F6AE0CE01AEDD03C060E0BD
:10178000CE01C5DF6DE1CE018BDD81FF04C0CE014E
:10179000DF91CF9198CEDF91CF910895CF93DF93D2
:1017A000EC017ADD80E556DD83E754DDCE01DF9183
:1017B000CF9174CD1F93CF93DF93EC01162F66E08A
:1017C0006FDD887F143020F4612F660F6F5F01C0DA
:1017D00067E0462F482B66E0CE01DF91CF911F9145
:1017E000ADCDEF92FF920F931F93CF93DF931F9294
:1017F000CDB7DEB77C018B0166E052DD582F577DF7
:101800000230110531F450620BE910E020E030E0C5
:101810000DC00130110529F005E510E020E030E0B1
:1018200005C0586001E410E020E030E0F7010587D2
:1018300016872787308B452F66E0C70159837EDDE9
:1018400066E0C7012DDD91E05981851390E0892F75
:101850000F90DF91CF911F910F91FF90EF9008951E
:101860001F93CF93DF93EC0188819981891719F039
:1018700061E00E94E62089819881981719F061E063
:101880000E94E620B1DC60E0CE01FFDC61E0CE0129
:10189000E8DC65E070E080E090E00E94EF1F4CE043
:1018A00060E0CE014BDD4FE564E0CE0147DD62E054
:1018B00070E0CE0196DF882311F081E08C8366E032
:1018C000CE01EEDC182F60E070E0CE018ADFCE01A1
:1018D00065DF40E06DE1CE0131DD40E06CE1CE013D
:1018E0002DDD40E767E0CE0129DD6CE4CE01FADDB5
:1018F000CE01E7DDCE01E7DDCE012FDE60E0CE01D7
:10190000CFDC482F4E7F60E0CE0118DD115081E022
:101910001E3F08F080E0DF91CF911F91089520E1F4
:10192000629FB00111244F70462B64E007CDFC018B
:10193000DB018C91808311968C9111978183129693
:101940008C911297828313968C91139783831496AC
:101950008C911497848315968C91858308958CEBD4
:1019600092E0A4D981E00895CF92DF92EF92FF92A6
:101970000F931F93CF93DF93EC0168E670E08CEB3D
:1019800092E0A7D960E08CEB92E052D98CEB92E028
:1019900012DA47E050E068E670E08CEB92E009DA9A
:1019A0008CEB92E0F6D88F77982F92959F701AEF74
:1019B000082F919F000D11248CEB92E0EAD89C0136
:1019C0003327A4E035952795AA95E1F7F82E129FC5
:1019D000F00C11248CEB92E0DCD89C013327B4E0AE
:1019E00035952795BA95E1F7E82E129FE00C112462
:1019F0008CEB92E0CED88CEB92E0CBD89C013327D5
:101A000094E0359527959A95E1F7D82E129FD00C42
:101A100011248CEB92E0BDD89C01332744E035952E
:101A200027954A95E1F7C82E129FC00C11248CEB24
:101A300092E0AFD89C01332754E0359527955A950D
:101A4000E1F7129F800D11248883C982DA82EB822C
:101A5000FC820D83CE01DF91CF911F910F91FF90FA
:101A6000EF90DF90CF900895CF93DF931F92CDB783
:101A7000DEB76983DC01ED91FC910280F381E02DFA
:101A800041E050E0BE016F5F7F4F19950F90DF91ED
:101A9000CF910895CF93DF93EC01898D9A8D0097B4
:101AA00059F0FC01138212820E943219E98DFA8DDD
:101AB00022813381232B31F081E090E09B838A8364
:101AC00080E090E0DF91CF910895FC01818D928DAF
:101AD000009711F00C94E4160895CF93DF931F92B2
:101AE000CDB7DEB741E050E0BE016F5F7F4F82D7D8
:101AF000019719F4898190E002C08FEF9FEF0F905A
:101B0000DF91CF910895FC01818D928D009709F0AE
:101B1000E4CF8FEF9FEF08950F931F93CF93DF9341
:101B20008C01FC01818D928D0097B1F0D6DFEC0124
:101B30008F3FFFEF9F0799F0F801818D928DFC0197
:101B40004285538564857585415051096109710944
:101B50000E944916CE0105C080E090E002C08FEFE0
:101B60009FEFDF91CF911F910F910895CF92DF9258
:101B7000EF92FF920F931F93CF93DF93EC017B01C2
:101B80006A011B821A8208EE13E020E030E00C8329
:101B90001D832E833F8380E592E0998388838DE1C6
:101BA00090E00E94B4279A8F898F009779F02DE1F9
:101BB000F701DC0101900D922A95E1F74CE050E02D
:101BC000B601CE010C960E94E729188EDF91CF91C5
:101BD0001F910F91FF90EF90DF90CF900895FC013F
:101BE0001382128248EE53E060E070E04483558334
:101BF0006683778380E592E091838083128E118ED5
:101C00001486089520E532E0FC0131832083089595
:101C1000DC015996ED91FC915A97309729F0628535
:101C200073858485958508956FEF7FEFCB010895C7
:101C3000DC015996ED91FC915A97309729F0638910
:101C4000748985899689089560E070E0CB010895D4
:101C5000CF92DF92EF92FF92CF93DF93EC01898DC9
:101C60009A8D892BC9F0CE01E3DF6B017C01CE0197
:101C7000CFDFA7019601261B370B480B590BDA0162
:101C8000C901811530E89307A105B10538F08FEF40
:101C90009FE7A0E0B0E002C080E090E0DF91CF914C
:101CA000FF90EF90DF90CF900895CF93DF93EC01FA
:101CB000898D9A8D009741F00E942917898D9A8D00
:101CC0000E944C281A8E198EDF91CF910895EF92C1
:101CD0000F931F93CF93DF93EC01E02E022F242F5D
:101CE000462F61E0E3D2811102C080E01CC08E016A
:101CF000035F1F4F41E0BE01C8010E94641E88239C
:101D000051F0B801CE018B9626D691E0811101C029
:101D100090E0892F08C040E0BE01C8010E94641E07
:101D2000882319F3EECFDF91CF911F910F91EF90A0
:101D30000895FC01DB0112968D919C91139793837A
:101D4000828380E692E09183808314968C9114972D
:101D5000848315968C911597858316964D915D9188
:101D60006D917C91199746835783608771871A9686
:101D70004D915D916D917C911D974287538764874A
:101D800075871E964D915D916D917C915197468717
:101D90005787608B718B52968C915297828B53969A
:101DA0004D915D916D917C915697438B548B658BD2
:101DB000768B57964D915D916D917C915A97478B9B
:101DC000508F618F728F5B968D919C915C97948FF1
:101DD000838F08954F925F926F927F928F929F921E
:101DE000AF92BF92CF92DF92EF92FF920F931F9329
:101DF000CF93DF93CDB7DEB7C754D1090FB6F894B0
:101E0000DEBF0FBECDBF6C014A013901655D7F4F5A
:101E10005E018EE1A80EB11CC5018BDF1C821B8206
:101E200080E692E09A8389831E828401FE013196C6
:101E30007F015A2C4B2C6FE270E0C8010E94D5291B
:101E40000097D9F1F80120812F3219F40F5F1F4F4D
:101E5000F2CF801B8D3008F08CE0A82EB12CA501AC
:101E6000B801CE01CB960E94E729EBE3F0E0EC0F3E
:101E7000FD1FEA0DFB1D1082C701EBD721E0AE016B
:101E8000455C5F4F652D742DC7010E945318811169
:101E900009C0F6011382128280E692E0918380836A
:101EA000158214C00A0D1B1D852D942DD2D7C20199
:101EB0005E2C4F2CE92EF82EBECF08191909F3011C
:101EC00011830083652D742DC60133DFC601C95B04
:101ED000DF4F0FB6F894DEBF0FBECDBFDF91CF91BD
:101EE0001F910F91FF90EF90DF90CF90BF90AF9038
:101EF0009F908F907F906F905F904F900895BF92CA
:101F0000CF92DF92EF92FF920F931F93CF93DF93C5
:101F1000CDB7DEB7C955D1090FB6F894DEBF0FBEF5
:101F2000CDBF7C016A01B22E9E01285A3F4FCE01DF
:101F3000CB9650DF6A960EAD1FAD6A970C0D1D1D36
:101F4000F8018081811109C0BE01655C7F4FCE011F
:101F50000196EFDE4CE152E03AC019A218A280E6E9
:101F600092E09F8F8E8F1BA221968FAD21978111BA
:101F700003C0C70134DE30C082502B2DA80182304F
:101F800048F468EA73E0CE014E960E94531881111E
:101F90000DC0EFCFBE01655C7F4FCE014E960E9413
:101FA0005318882331F3CE01CB9653D78B2D8670EF
:101FB00039F049A95AA96BA97CA9CE014E9669D6D8
:101FC000BE01625E7F4FCE010196B3DEA801BE0165
:101FD0006F5F7F4FC701CADDC701C75ADF4F0FB61A
:101FE000F894DEBF0FBECDBFDF91CF911F910F914F
:101FF000FF90EF90DF90CF90BF90089510928203F2
:1020000010928303109286031092880382E090E07E
:10201000A0E0B0E080938A0390938B03A0938C039D
:10202000B0938D031092A1031092AB031092AA03F8
:1020300080E692E09093A9038093A8031092AD03E9
:1020400008959091D0039F3F39F48EBD00000DB4E8
:1020500007FEFDCF8EB50895F894E091CC03F09182
:10206000CD034091C803342F3095A091CE03B09199
:10207000CF035091C903652F609598E020812323F9
:1020800020832C9187FF02C0252B01C026232C938F
:102090002081242B2083880F915081F700000000BD
:1020A00000000000808183238083789408958091CC
:1020B000D0038F3F39F48EBD00000DB407FEFDCF75
:1020C0008EB50895F894E091CE03F091CF0380810E
:1020D0009091C903892B8083E091CC03F091CD03CB
:1020E0003091C803A091CA03B091CB035091C703AC
:1020F000432F409598E080E02081232B2083880F98
:102100002C91252309F08160208124232083000065
:102110000000915089F7789408952CB5982F93700A
:102120002C7F922B9CBD9DB582FB882780F99E7FDA
:10213000982B9DBD089561E0FC0184810C941F21C2
:1021400060E0FC0184810C941F21CF93DF93EC01AC
:102150008E81882379F08F8198859C012F5F3F4F76
:1021600038872F838230924010F4A1DFF4CFCE0164
:10217000E2DF1E82DF91CF910895673028F026E1DB
:10218000FC01258380E00895633079F028F4613004
:10219000A1F0623041F005C0653059F040F0663082
:1021A00051F084E00BC085E009C081E007C086E003
:1021B00005C082E003C083E001C080E0AEDF81E0C3
:1021C00008950F931F93CF93DF93EB010E94C01FDD
:1021D0008B016DDF8F3F49F00E94C01F601B710BA8
:1021E0006C177D07B0F380E001C081E0DF91CF91F3
:1021F0001F910F910895CF92DF92FF920F931F933B
:10220000CF93DF9300D01F92CDB7DEB76C01F62ECF
:1022100029833A834B835C8398DFC60191DF6CE2AC
:1022200071E0C601CEDF8F2D80640BDF08E110E086
:102230005C814B813A812981DA01C901002E04C0F9
:10224000B695A795979587950A94D2F729833A83EF
:102250004B835C83F6DE0850110929813A814B815A
:102260005C81083F8FEF180739F7FF2029F0E8E07D
:10227000FE1621F08FEF03C085E901C087E8E1DE9B
:1022800010E015DFF601828787FF04C01F3F11F0C1
:102290001F5FF7CF0F900F900F900F90DF91CF91AE
:1022A0001F910F91FF90DF90CF900895AF92BF9252
:1022B000CF92DF92EF92FF920F931F93CF93DF9312
:1022C000EC01B62E1B8619861E821D821C864C834D
:1022D0002093D2030093D103E092D0030E94C01F49
:1022E0008B0161E08C810E94E620CE0124DF8FEF1C
:1022F000E81609F45EC060E08091D1030E94E620F8
:1023000061E08091D2030E94E62061E08091D003D9
:102310000E94E6208091D003992787FD9095FC01CB
:10232000EA54FE4FE491F0E0EE0FFF1FEA5EFD4F2E
:10233000259134913093CD032093CC03FC01E059D7
:10234000FE4F84918093C8038091D203992787FD23
:102350009095FC01EA54FE4FE491F0E0EE0FFF1F70
:10236000EA5EFD4F259134913093CF032093CE0345
:10237000FC01E059FE4F84918093C9038091D10301
:10238000992787FD9095FC01EA54FE4FE491F0E017
:10239000EE0FFF1FE450FE4F259134913093CB0395
:1023A0002093CA03FC01E059FE4F84918093C70338
:1023B00004C00E94F40883E0B0DE2AE0A22E8FEF72
:1023C00040DEAA94E1F7CE01BBDE20E030E0A901B7
:1023D00060E0CE0110DFF82E8A8781E0F81649F020
:1023E0000E94C01F601B710B613D774070F381E05C
:1023F00046C02AEA31E040E050E068E0CE01FBDE72
:1024000082FF02C0FB860CC094E0F92E50DE8A8762
:10241000FA94E1F78A3A11F082E031C082E08B87CA
:102420008B85823031F4C12CD12CE12C80E4F82E44
:1024300003C0C12CD12C760120E030E0A90167E374
:10244000CE01D9DEA701960169E2CE01D4DE8A87EA
:10245000882349F00E94C01F601B710B613D7740CB
:1024600058F388E00CC08B858230B1F420E030E076
:10247000A9016AE3CE01BFDE882329F086E08D83BF
:10248000CE0159DE1EC013DE807C803C11F483E057
:102490008B870DDE0CDE0BDECE014DDE8091D0038E
:1024A0008F3F69F46B2DCE01DF91CF911F910F917A
:1024B000FF90EF90DF90CF90BF90AF905ECEAA24B8
:1024C000A3948A2DDF91CF911F910F91FF90EF90F0
:1024D000DF90CF90BF90AF9008950F931F93CF934D
:1024E000DF93EC010E94C01F8B01E1DD8A878F3FE3
:1024F00049F40E94C01F601B710B6D327140A8F33C
:102500008FE003C08E3F31F08DE08D83CE0113DE6E
:1025100080E001C081E0DF91CF911F910F9108957C
:10252000CF92DF92EF92FF920F931F93CF93DF939F
:10253000EC0169010115110509F45DC0C801820FA4
:10254000931F8130924008F058C08E81882371F02B
:1025500088819981AA81BB81481759076A077B073F
:1025600029F48F819885C816D90600F548835983C8
:102570006A837B838B85833039F0E9E0440F551FF4
:10258000661F771FEA95D1F79A01AB0161E1CE0191
:1025900032DE882319F083E08D832FC0CE019DDFCA
:1025A000882359F118861F8281E08E838F81988558
:1025B0008C159D0538F47BDD8F8198850196988771
:1025C0008F83F4CF6701E00EF11ECE14DF0429F0F3
:1025D0006EDDF60181936F01F8CF8F819885800FB2
:1025E000911F98878F832985222319F081159240A6
:1025F00010F0CE01AADD81E003C0CE019CDD80E0B9
:10260000DF91CF911F910F91FF90EF90DF90CF90CE
:102610000895EF92FF920F931F93790100E012E06B
:1026200020E030E07DDF1F910F91FF90EF90089543
:10263000AF92BF92CF92DF92EF92FF920F931F93D0
:10264000CF93DF931F921F92CDB7DEB78C01862FF9
:10265000F8019485992351F1DA01E12CF12CA12C98
:10266000B12CED91F0E0EB259F0164E035952795C5
:102670006A95E1F72E273F27BA2CAA24A226B32673
:10268000F901FE2FEE27F295F07FAE26BF2665E01A
:10269000220F331F6A95E1F7A226B326FFEFEF1A48
:1026A000FF0AE11492E0F906E1F603C0AA24AA9415
:1026B000BA2C49835A83C5DC4981E42E5A81F52E10
:1026C000C12CD12CF70181917F01BBDCFFEFCF1A28
:1026D000DF0AC11482E0D806A9F78B2DB2DC8A2D5F
:1026E000B0DCE5DCF80182878F71853031F081E163
:1026F0008583C80120DD80E001C081E00F900F904C
:10270000DF91CF911F910F91FF90EF90DF90CF90CD
:10271000BF90AF9008950F931F93CF93DF93EC0179
:102720008901411551056105710511F482E12DC042
:102730008B85833039F0E9E0440F551F661F771F02
:10274000EA95D1F79A01AB0168E1CE0154DD882307
:1027500011F084E01AC0A8016EEFCE0169DF882372
:10276000A9F068E572E0CE012CDD811102C085E19F
:102770000CC020E030E0A9016DE0CE013CDD81110C
:1027800003C095DC882331F084E18D83CE01D3DC56
:1027900080E003C0CE01CFDC81E0DF91CF911F91BB
:1027A0000F910895CF93DF93EC019C012A5F3F4F77
:1027B00041E050E060E070E08B8D9C8D0E94FF1C3A
:1027C0008823A1F04F89588D698D7A8D452B462B32
:1027D000472B71F44E815F81688579854F8B588FC7
:1027E000698F7A8F8C8180688C8302C080E001C001
:1027F00081E0DF91CF910895CF92DF92EF92FF9227
:102800001F93CF93DF93EC01CDDF811102C080E0F5
:102810004AC0EB8DFC8DCE80DF80E884F98482E0B5
:10282000C81AD108E108F108058404C0CC0CDD1CED
:10283000EE1CFF1C0A94D2F7468557856089718982
:10284000C40ED51EE61EF71E148181E0C81AD108F9
:10285000E108F108112359F0C701B601610F711D9C
:10286000811D911D1AD7882391F21150F3CFEB8D62
:10287000FC8DC12C82E0D82EE12CF12C058404C003
:10288000CC0CDD1CEE1CFF1C0A94D2F74B895C8932
:102890006D897E894C0D5D1D6E1D7F1D4B8B5C8B84
:1028A0006D8B7E8B81E0DF91CF911F91FF90EF9038
:1028B000DF90CF900895CF93DF93EC01462F6E8584
:1028C0007F8588899989AFD6882341F08A8920E25B
:1028D000829FC001112484529C4F02C080E090E08E
:1028E000DF91CF910895282FFB018BE030E23193E7
:1028F0008150E9F7A22FB92F20E037E09D9199236D
:1029000019F19E3219F0EAE1F1E008C03A3011F114
:1029100028E03AE0F3CF31964917E1F044914111B4
:10292000FACF3217B8F04FED490F4E3598F441E029
:10293000420FFB01E20FF11D2FE9290F2A3108F4A4
:1029400090529083242FDACF81E0FB019081903266
:1029500009F480E008950F931F93CF93DF93EC0168
:102960008B018D81882311F080E03FC0FB018789B6
:102970008031B1F482E08D831F8A188E198E1A8EF1
:10298000408D518D60E070E095E0440F551F661F4B
:10299000771F9A95D1F74B8B5C8B6D8B7E8B14C018
:1029A000803211F783E08D83FB01428D538D648D5E
:1029B000758D4F8B588F698F7A8F9E012D5E3F4F9B
:1029C000C80113D7882381F21C8F0B8F81E08C8381
:1029D0001E821F82188619861A861B861C861D86F3
:1029E0001E861F86188A198A1A8ADF91CF911F9135
:1029F0000F9108952F923F924F925F926F927F9224
:102A00008F929F92AF92BF92CF92DF92EF92FF92FE
:102A10000F931F93CF93DF93EC016B015A018D81CC
:102A2000811103C08FEF9FEFD7C08C8180FFFACF59
:102A30004B895C896D897E898A859B85AC85BD853E
:102A40002501612C712C8A019B01081B190B2A0B93
:102A50003B0B041515052605370518F45A01A81A6D
:102A6000B90A25011E0126E0220E311C4114510431
:102A700009F47AC04A855B856C857D854A0181E0D1
:102A80009822ED818A019B01F9E0369527951795EB
:102A90000795FA95D1F78B8D9C8DE23051F4FC01AE
:102AA000628D738D848D958D600F711F821F931FB2
:102AB0003DC0FC0174807A94702281149104C1F4A9
:102AC000711016C0452B462B472B49F48F89988DE2
:102AD000A98DBA8D8E839F83A887B98709C04E813F
:102AE0005F81688579859101FDD5882309F49ACFA6
:102AF000EB8DFC8D6E817F8188859985625071098F
:102B000081099109058404C0660F771F881F991FEA
:102B10000A94D2F70685178520893189600F711FC5
:102B2000821F931F670D711D811D911D20E032E0F2
:102B30002819390932012415350508F439012C8189
:102B400026FD04C06114F2E07F0699F50091180299
:102B50001091190220911A0230911B02601771071F
:102B60008207930719F425C0C50136C07601830199
:102B70009401AB01BC018091DA039091DB03D0DCBE
:102B8000882309F44FCFC60CD71C04C0E81BF90BEF
:102B9000CE0EDF1E8A859B85AC85BD85860D971D73
:102BA000A11DB11D8A879B87AC87BD874618570832
:102BB0005DCF40E038D5882309F434CFC401845276
:102BC0009C4FD6019C01260D371DFC01E217F3072F
:102BD000E9F241914D93FACFDF91CF911F910F917F
:102BE000FF90EF90DF90CF90BF90AF909F908F902D
:102BF0007F906F905F904F903F902F900895FF923D
:102C00000F931F93CF93DF931F92CDB7DEB78C0145
:102C1000FC018581823018F480E090E033C0F80137
:102C20004285538564857585A5E0769567955795AA
:102C30004795AA95D1F7F42FFF70FF2E41E050E0A1
:102C4000BE016F5F7F4FC801D5DE019719F429815E
:102C500030E002C02FEF3FEF2F3F3F4FE9F2F80186
:102C60004285538564857585415E5F4F6F4F7F4F09
:102C70004287538764877587F0E2FF9EC001112465
:102C800084529C4F0F90DF91CF911F910F91FF9035
:102C900008954F925F926F927F92AF92BF92CF92C0
:102CA000DF92EF92FF920F931F93CF93DF93EC018C
:102CB0006A017B012D81222309F456C08B899C89EE
:102CC000AD89BE8984179507A607B70708F44CC0DD
:102CD0004DC08A859B85AC85BD85EB8DFC8DE585DA
:102CE000F0E03996AC01BD0141505109610971090B
:102CF0000E2E04C076956795579547950A94D2F79E
:102D000097018601015011092109310904C0369546
:102D1000279517950795EA95D2F704171507260703
:102D20003707A8F58F89988DA98DBA8D8E839F83DB
:102D3000A887B987280139015E0186E0A80EB11C79
:102D4000411451046104710459F14E815F81688519
:102D5000798595018B8D9C8DC5D491E0491A5108D8
:102D6000610871088111ECCF80E01FC02230C1F0F2
:102D7000C114D104E104F10409F0ABCF1E821F821B
:102D8000188619861A861B861C861D860DC0892BFF
:102D90008A2B8B2B39F2041B150B260B370BCACF52
:102DA000CA86DB86EC86FD8681E0DF91CF911F919C
:102DB0000F91FF90EF90DF90CF90BF90AF907F90FA
:102DC0006F905F904F9008950F931F93CF93DF9371
:102DD000EC018D818823B9F18C8187FF2FC061E0E0
:102DE000CE0169DD8C01009771F18D81823048F44C
:102DF0004B895C896D897E89F801448F558F668F78
:102E0000778F4F89588D698D7A8DF801538F428F56
:102E1000758B648BE091D303F091D403309759F014
:102E2000B8016A5E7F4FC80148961995F801808DF8
:102E3000918D938B828B8C818F778C83DF91CF9157
:102E40001F910F91B7C380E0DF91CF911F910F9138
:102E50000895CF93DF93EC01B7DF882319F01D822B
:102E600081E001C080E0DF91CF9108954F925F92A1
:102E70006F927F92AF92BF92CF92DF92EF92FF92CA
:102E80000F931F93CF93DF9300D01F92CDB7DEB780
:102E90005C016A017B01FC0185818130E9F4848158
:102EA00081FF1AC0F50183899489A589B6898417A1
:102EB0009507A607B70780F0892B8A2B8B2B09F47F
:102EC00072C0F5014284538464847584B701A601FD
:102ED000C501DFDE811102C080E066C0F501838D8F
:102EE000948DC114D104E104F10469F44789508D33
:102EF000618D728D95D6882379F3F501178A108E2E
:102F0000118E128E37C0F50146815781608571851B
:102F10009E012F5F3F4FE6D38823F1F249815A810A
:102F20006B817C81F501838D948DFC012789203193
:102F300029F408EF1FEF20E030E004C008EF1FEF96
:102F40002FEF3FE0401751076207730798F468D6E8
:102F5000882309F4C1CFF5014681578160857185C9
:102F60000FEF1FEF2FEF3FE0838D948DA8D48823C0
:102F700009F4B2CFF501C38AD48AE58AF68A84813E
:102F800080688483C50120DF882309F4A5CFB701B9
:102F9000A6014C145D046E047F0410F4B301A20179
:102FA000C50177DE01C081E00F900F900F900F9068
:102FB000DF91CF911F910F91FF90EF90DF90CF9015
:102FC000BF90AF907F906F905F904F900895FF9269
:102FD0000F931F93CF93DF93EC01F42E80E2689F51
:102FE000F0011124E452FC4F8385817129F0842F74
:102FF000827411F080E051C06A8B80911802909128
:103000001902A0911A02B0911B028E879F87A88B8C
:10301000B98B4489558960E070E0BA01552744278F
:10302000028D138D20E030E0402B512B622B732B4F
:103030004F8B588F698F7A8F8385887151F4048DF7
:10304000158D268D378D0B8B1C8B2D8B3E8B81E048
:103050000BC0803179F69E012D5E3F4F8B8D9C8D8C
:10306000C4D3882339F284E08D838F2D8F708C83B5
:103070001E821F82188619861A861B861C861D864C
:10308000F6FE0AC040E050E0BA01CE01DF91CF91D8
:103090001F910F91FF90EACE81E0DF91CF911F91B8
:1030A0000F91FF900895AF92BF92CF92DF92EF926F
:1030B000FF920F931F93CF93DF93CDB7DEB72B977C
:1030C0000FB6F894DEBF0FBECDBF7C016B01CA0105
:1030D000B22EF70125812111B3C0BE016F5F7F4F72
:1030E00002DC882309F4ACC0F601838D948DF701CE
:1030F000948F838FF60116821782108611861286AE
:10310000138614861586A12CF60102851385248565
:10311000358583899489A589B689081719072A07EF
:103120003B07E0F545E036952795179507954A95B5
:10313000D1F70F70C60163DD009709F481C0FC016F
:103140002081222311F0253EB9F4A1100EC0F70111
:10315000028B409118025091190260911A027091ED
:103160001B0246875787608B718BFC018081AA24E4
:10317000A3948111C9CF12C04BE050E0BC01CE0135
:1031800001960E94BF29892B09F0BECF8B2D807339
:10319000803309F455C04B2D602F4FC08B2D8271A9
:1031A000823109F04DC0AA2039F061E0C70183DB0C
:1031B0008C01009771F444C0F6018581823009F4D6
:1031C0003FC0C60119DB8823D9F1F701128A0CED43
:1031D00013E080E2F80111928A95E9F78BE0FE0195
:1031E0003196D80101900D928A95E1F7E091D303D1
:1031F000F091D403309739F0B801625F7F4FC80176
:103200004096199509C081E298E2F801918B808B74
:1032100080E098E097878687F80180899189938B71
:10322000828B918F808F86859785978B868BC2D175
:10323000882331F04B2DF7016289C701C8DE01C038
:1032400080E02B960FB6F894DEBF0FBECDBFDF91A6
:10325000CF911F910F91FF90EF90DF90CF90BF9093
:10326000AF9008952F923F924F925F926F927F920C
:103270008F929F92AF92BF92CF92DF92EF92FF9286
:103280000F931F93CF93DF9300D01F921F92CDB760
:10329000DEB78C017B013A01DC0115968C91159704
:1032A0008130C1F414968C9181FF14C082FF1AC042
:1032B000F801438954896589768982859385A48537
:1032C000B58584179507A607B70761F0C801E1DC4B
:1032D000811108C081E090E0F8019383828380E04F
:1032E00090E040C163017FC0D8015B968D919C91B5
:1032F0005C97FC01F481F150B501A40129E07695B9
:103300006795579547952A95D1F7F423FD8321E0DA
:103310009222FF2309F473C080E092E08819990992
:1033200056018C159D0508F45C01D8015B96ED9162
:10333000FC915C9716962D903D904D905C9019975E
:10334000B2E02B1A310841085108058404C0220C50
:10335000331C441C551C0A94D2F786859785A08996
:10336000B189280E391E4A1E5B1EED812E0E311CBE
:10337000411C511CA114F2E0BF0609F085C08091E8
:10338000180290911902A0911A02B0911B028215A5
:103390009305A405B50559F48FEF9FEFDC018093E9
:1033A000180290931902A0931A02B0931B0297017E
:1033B000B201A1018091DA039091DB03ACD988239B
:1033C00009F488CF9EEFF91ACA18DB08F801828544
:1033D0009385A485B5858A0D9B1DA11DB11D82878E
:1033E0009387A487B587D8011A968D909D90AD904C
:1033F000BC901D97C114D10409F076CF86C081140A
:10340000910409F089CF16964D915D916D917C9153
:103410001997411551056105710559F457968D911C
:103420009D910D90BC91A02D0097A105B10531F59E
:1034300020C09E012F5F3F4F55D1882309F450CF04
:1034400089819A81AB81BC81F801238D348DF9018A
:103450002789203129F448EF5FEF60E070E004C075
:1034600048EF5FEF6FEF7FE084179507A607B70778
:1034700028F0C80197D981114FCF2CCFF80186834E
:103480009783A087B18748CF8114910421F5D80193
:103490001A964D915D916D917C911D9753968D91EA
:1034A0009D910D90BC91A02D481759076A077B0785
:1034B00090F080D0882309F40DCF2092180230922A
:1034C000190240921A0250921B028091D903816026
:1034D0008093D90307C041E0C201B101A4D0882381
:1034E00009F4F8CEC40184529C4FD7019C012A0DE7
:1034F0003B1DFC01E217F30719F04D914193FACF00
:10350000E81BF90BEE0EFF1E5FCF53968D919D9138
:103510000D90BC91A02DF801248188159905AA056C
:10352000BB0538F4838A948AA58AB68A20682483E6
:103530000CC08091D3039091D403892B31F0611496
:10354000710419F02068F8012483D80114968C9135
:1035500083FD02C0C30106C0C80136DC882309F41C
:10356000B9CEF8CF0F900F900F900F900F90DF9182
:10357000CF911F910F91FF90EF90DF90CF90BF9070
:10358000AF909F908F907F906F905F904F903F9003
:103590002F900895CF93DF931F92CDB7DEB7698345
:1035A00041E050E0BE016F5F7F4F5CDE0F90DF9126
:1035B000CF9108958091D903882389F14091180211
:1035C0005091190260911A0270911B022CED33E0A8
:1035D0008091DA039091DB039ED8882311F140910A
:1035E000D5035091D6036091D7037091D80341154C
:1035F00051056105710589F02CED33E08091DA0306
:103600009091DB0388D8882361F01092D503109243
:10361000D6031092D7031092D8031092D90381E0F9
:10362000089580E00895CF92DF92EF92FF92CF93BA
:103630006B017C01C42F8091180290911902A09116
:103640001A02B0911B028C159D05AE05BF05C9F08D
:10365000B1DF811102C080E01AC02CED33E0B70168
:10366000A6018091DA039091DB030E94091388235D
:1036700091F3C0921802D0921902E0921A02F092CD
:103680001B028091D9038C2B8093D90381E0CF91C9
:10369000FF90EF90DF90CF900895CF92DF92EF925E
:1036A000FF926B017C0186DF8823B1F0ECEDF3E043
:1036B000119285E0EC3DF807D9F7C0921802D0923C
:1036C0001902E0921A02F0921B028091D9038160E4
:1036D0008093D90381E001C080E0FF90EF90DF90FC
:1036E000CF9008958F929F92AF92BF92CF92DF9228
:1036F000EF92FF920F931F93CF93DF938C016A0198
:103700007B01E901FC0181859285A385B485019641
:10371000A11DB11D84179507A607B70710F480E017
:1037200057C0F80143895489658976898789803132
:1037300029F4BB27AF2D9E2D8D2D09C0D701C601C1
:1037400027E0B695A795979587952A95D1F74C01CF
:103750005D01840E951EA61EB71EC501B4018090A2
:10376000180290901902A0901A02B0901B026815DE
:1037700079058A059B0589F4F8018789803191F4E0
:10378000DD24EE24FF24F601EE0FFF1FE452FC4F70
:1037900080819181A0E0B0E016C040E044DF81115B
:1037A000EBCFBDCFE894C7F8DD24EE24FF24F6016B
:1037B000EE0FFF1FEE0FFF1FE452FC4F808191813F
:1037C000A281B381BF7088839983AA83BB8381E080
:1037D000DF91CF911F910F91FF90EF90DF90CF90ED
:1037E000BF90AF909F908F9008954F925F926F928D
:1037F0007F92AF92BF92CF92DF92EF92FF920F93A0
:103800001F93CF93DF9300D01F92CDB7DEB78C010B
:1038100049835A836B837C835901C12CD12C760157
:10382000412C42E0542E612C712C49815A816B81CC
:103830007C819E012F5F3F4FC80154DF882359F1DF
:10384000D301C201F801058404C0880F991FAA1F83
:10385000BB1F0A94D2F7C80ED91EEA1EFB1E49816F
:103860005A816B817C818789803129F488EF9FEFB1
:10387000A0E0B0E004C088EF9FEFAFEFBFE04817D3
:1038800059076A077B0788F2F501C082D182E2827C
:10389000F38281E001C080E00F900F900F900F90B5
:1038A000DF91CF911F910F91FF90EF90DF90CF901C
:1038B000BF90AF907F906F905F904F9008954F9220
:1038C0005F926F927F928F929F92AF92BF92CF92B0
:1038D000DF92EF92FF920F931F93CF93DF93EC0150
:1038E0006A017B01280139014230510561057105EA
:1038F00008F473C049855A856B857C854F5F5F4F9F
:103900006F4F7F4F4C155D056E057F0508F465C050
:103910008B889C88AD88BE888F89803129F4772771
:103920006F2D5E2D4D2D09C0B701A601E7E07695FC
:10393000679557954795EA95D1F7840E951EA61E73
:10394000B71E409118025091190260911A027091AD
:103950001B0284169506A606B70671F48F8980317E
:1039600091F4DD24EE24FF24F601EE0FFF1FE45254
:10397000FC4F5182408217C040E0C501B40153DEC4
:103980008111ECCF2AC0E894C7F8DD24EE24FF248F
:10399000F601EE0FFF1FEE0FFF1FE452FC4F4082B7
:1039A0005182628273828091D90381608093D903AE
:1039B0008A89823080F08D819E81AF81B885880DA3
:1039C000991DAA1DBB1D8093D5039093D603A09388
:1039D000D703B093D80381E001C080E0DF91CF919D
:1039E0001F910F91FF90EF90DF90CF90BF90AF901D
:1039F0009F908F907F906F905F904F9008952F923F
:103A00003F924F925F926F927F929F92AF92BF923E
:103A1000CF92DF92EF92FF920F931F93CF93DF939A
:103A2000CDB7DEB760970FB6F894DEBF0FBECDBF3F
:103A30005C014D875E876F87788B1901D9014D90A6
:103A40005D906D907C90411451046104710431F0DB
:103A5000BFEF4B1A5B0A6B0A7B0A10C0FC01408067
:103A6000518062807380992493940D851E852F85E3
:103A70003889013011052105310509F0912CD50156
:103A800019962D913D914D915C911C972F5F3F4F61
:103A90004F4F5F4F29873A874B875C8773016201DD
:103AA0001D821E821F821886F50181859285A3855D
:103AB000B4850D811E812F813885081719072A07C3
:103AC0003B0708F054C029853A854B855C852C1549
:103AD0003D054E055F0550F4A2E0CA2ED12CE12C25
:103AE000F12CB2E04B2E512C612C712C9E012F5FDA
:103AF0003F4FB701A601C501F5DD8823C1F149811A
:103B00005A816B817C81D701C6010196A11DB11D2F
:103B1000452B462B472B19F02C013D010FC0AC0162
:103B2000BD0144195509660977090D851E852F8544
:103B30003889401751076207730779F02D813E815C
:103B40004F8158852F5F3F4F4F4F5F4F2D833E83EF
:103B50004F8358876C017D01A7CF0FEF1FEF2FEF29
:103B60003FE0B701A601C501AADE811117C080E0C0
:103B70003FC0D701C6010197A109B1098D839E837A
:103B8000AF83B88797018601AC01BD01C50197DEFF
:103B9000882369F3CD80DE80EF80F8844C145D04C7
:103BA0006E047F0430F3D1014D915D916D917C9154
:103BB000411551056105710599F4F1014082518269
:103BC00062827382992099F0FFEF4F1A5F0A6F0AA1
:103BD0007F0AD5014D925D926D927C92139707C03A
:103BE00093018201C5016BDE8111E7CFC0CF81E077
:103BF00060960FB6F894DEBF0FBECDBFDF91CF91B8
:103C00001F910F91FF90EF90DF90CF90BF90AF90FA
:103C10009F907F906F905F904F903F902F9008956E
:103C2000AF92BF92CF92DF92EF92FF920F931F93CA
:103C3000CF93DF9300D01F92CDB7DEB75C016A014E
:103C40007B0182E090E0A0E0B0E0F5018083918309
:103C5000A283B3839E012F5F3F4FB701A601C50129
:103C600041DD882309F100E010E09801B701A601C9
:103C7000C50125DE8823C1F0C980DA80EB80FC8095
:103C8000F5018789803129F488EF9FEFA0E0B0E04B
:103C900004C088EF9FEFAFEFBFE0C816D906EA0671
:103CA000FB06C0F281E001C080E00F900F900F9002
:103CB0000F90DF91CF911F910F91FF90EF90DF90C8
:103CC000CF90BF90AF9008958F929F92AF92BF9286
:103CD000CF92DF92EF92FF920F931F93CF93DF93D8
:103CE000EC01142F7093DB036093DA03442339F162
:103CF000453010F080E0EDC040E060E070E0CB01C6
:103D000092DC8823B9F320E1129FF0011124E657D9
:103D1000FA4F80818F7771F784859585A685B78561
:103D200084369105A105B10528F3C084D184E284CD
:103D3000F384C114D104E104F10421F4DBCFC12CDC
:103D4000D12C760140E0C701B6016DDC882391F2E9
:103D50008091E7039091E8038115924059F63091E4
:103D6000EC03332339F28091EA039091EB03892B22
:103D700009F4C0CF2091E903222309F4BBCF3A8B89
:103D80002C831D8630E041E050E06D85062FCA018E
:103D9000062E02C0880F991F0A94E2F728173907E8
:103DA00031F081E0860F8D87683078F3A3CF2091C2
:103DB000F2033091F3032115310519F040E050E092
:103DC00008C02091000430910104409102045091F8
:103DD00003042D833E834F8358878091EA0390919B
:103DE000EB0346015701880E991EA11CB11C8B8A5A
:103DF0009C8AAD8ABE8AE091ED03F091EE03F98FC3
:103E0000E88FA091EC03B0E00E94A627680D791D11
:103E10008A1D9B1D6A8F7B8F8C8F9D8F15E0EE0F07
:103E2000FF1F1A95E1F7E150FE4FEF2FFF27E695B0
:103E3000DC01CB018E0F9F1FA11DB11D8E879F87B7
:103E4000A88BB98B8090EF039090F00381149104BC
:103E500019F0A12CB12C08C08090FC039090FD03B8
:103E6000A090FE03B090FF03A7019601281B390B19
:103E70004A0B5B0BDA01C901880D991DAA1DBB1DF8
:103E800004C0B695A795979587950A95D2F7898727
:103E90009A87AB87BC87853F3FE09307A105B105B3
:103EA00010F48CE014C0853F9F4FA105B10510F4BC
:103EB00080E10DC08091080490910904A0910A044A
:103EC000B0910B048A8F9B8FAC8FBD8F80E28F8B5C
:103ED00081E0DF91CF911F910F91FF90EF90DF90E4
:103EE000CF90BF90AF909F908F9008951F920F92A8
:103EF0000FB60F9211242F933F938F939F93AF93FD
:103F0000BF938091DD059091DE05A091DF05B09112
:103F1000E0053091DC0523E0230F2D3720F40196D6
:103F2000A11DB11D05C026E8230F0296A11DB11DDC
:103F30002093DC058093DD059093DE05A093DF05DB
:103F4000B093E0058091E1059091E205A091E30531
:103F5000B091E4050196A11DB11D8093E1059093F8
:103F6000E205A093E305B093E405BF91AF919F9163
:103F70008F913F912F910F900FBE0F901F9018952A
:103F80002FB7F8946091DD057091DE058091DF0513
:103F90009091E0052FBF08953FB7F8948091E10517
:103FA0009091E205A091E305B091E40526B5A89BA8
:103FB00005C02F3F19F00196A11DB11D3FBF662717
:103FC000782F892F9A2F620F711D811D911D42E05C
:103FD000660F771F881F991F4A95D1F708958F9212
:103FE0009F92AF92BF92CF92DF92EF92FF926B01BE
:103FF0007C01D2DF4B015C01C114D104E104F10466
:10400000E1F06CD7C9DF681979098A099B09683E14
:1040100073408105910580F321E0C21AD108E108BF
:10402000F10888EE880E83E0981EA11CB11CC11413
:10403000D104E104F10431F7DFCFFF90EF90DF907E
:10404000CF90BF90AF909F908F9008958230910550
:1040500038F0880F991F880F991F05970197F1F77E
:104060000895789484B5826084BD84B5816084BDF0
:1040700085B5826085BD85B5816085BDEEE6F0E0E1
:10408000808181608083E1E8F0E01082808182603D
:104090008083808181608083E0E8F0E080818160BE
:1040A0008083E1EBF0E0808184608083E0EBF0E0EE
:1040B000808181608083E1E9F0E08081826080839B
:1040C000808181608083E0E9F0E08081816080838D
:1040D000E1EAF0E08081826080838081816080837A
:1040E000E0EAF0E0808181608083E1E2F1E08081BC
:1040F00082608083808181608083E0E2F1E0808162
:1041000081608083EAE7F0E0808184608083808141
:1041100082608083808181608083808180688083E9
:104120001092C100089590E0FC013197E231F10551
:1041300008F04BC0EE58FF4FF4C6809180008F7797
:1041400003C0809180008F7D8093800008958091CE
:104150008000877FF9CF84B58F7702C084B58F7DCB
:1041600084BD08958091B0008F7703C08091B00026
:104170008F7D8093B0000895809190008F7707C065
:10418000809190008F7D03C080919000877F809305
:10419000900008958091A0008F7707C08091A000C3
:1041A0008F7D03C08091A000877F8093A000089539
:1041B000809120018F7707C0809120018F7D03C0FF
:1041C00080912001877F809320010895CF93DF9312
:1041D00090E0FC01E059FE4F2491FC01EA54FE4FAF
:1041E0008491882349F190E0880F991FFC01E05DDC
:1041F000FD4FA591B4918A5E9D4FFC01C591D4916C
:104200009FB7611108C0F8948C91209582238C93FC
:10421000888182230AC0623051F4F8948C91322F45
:10422000309583238C938881822B888304C0F894F3
:104230008C91822B8C939FBFDF91CF9108950F9328
:104240001F93CF93DF931F92CDB7DEB7282F30E0B7
:10425000F901E65DFE4F8491F901E059FE4F14919A
:10426000F901EA54FE4F04910023C1F0882319F0AC
:10427000698359DF6981E02FF0E0EE0FFF1FEA5EEE
:10428000FD4FA591B4919FB7F8948C91611103C033
:104290001095812301C0812B8C939FBF0F90DF91DC
:1042A000CF911F910F910895BF92CF92DF92EF921D
:1042B000FF920F931F93CF93DF93C82ED62EB42E69
:1042C000C7E0D0E0022F10E087E0E82EF12CB1101B
:1042D0000AC0F701EC1BFD0BB80102C0759567958C
:1042E000EA95E2F707C0B8010C2E02C075956795F4
:1042F0000A94E2F7617077278C2DA1DF61E08D2DA4
:104300009EDF60E08D2D9BDF219708F7DF91CF9135
:104310001F910F91FF90EF90DF90CF90BF90089585
:10432000FC01818D228D90E0805C9F4F821B910962
:104330008F7399270895FC01918D828D981731F024
:10434000828DE80FF11D858D90E008958FEF9FEF2E
:104350000895FC01918D828D981761F0828DDF01A7
:10436000A80FB11D5D968C91928D9F5F9F73928F68
:1043700090E008958FEF9FEF08958BE593E2892BEE
:1043800039F080E090E0892B19F095D1811122C09D
:1043900086E094E2892B39F080E090E0892B19F0D7
:1043A00035D281111AC081EB94E2892B39F080E07B
:1043B00090E0892B19F0D5D2811112C08CE595E2DD
:1043C000892B99F080E090E0892B79F075D38111E9
:1043D0000AC008950E940000DBCF0E940000E3CFD6
:1043E0000E940000EBCF0C9400000895FC01848D26
:1043F000DF01A80FB11DA35ABF4F2C91848D90E00F
:1044000001968F739927848FA689B7892C93A089E9
:10441000B1898C9180648C93938D848D981306C0A0
:104420000288F389E02D80818F7D80830895CF936A
:10443000DF93EC01888D8823C1F0EA89FB898081B4
:1044400085FD05C0A889B9898C9186FD0EC00FB67F
:1044500007FCF5CF808185FFF2CFA889B9898C91BF
:1044600085FFEDCFCE01C2DFE8CFDF91CF91089578
:10447000CF92DF92FF920F931F93CF93DF931F9200
:10448000CDB7DEB76C0181E0D60158968C93589772
:104490005B969C915B975C968C915C97981307C098
:1044A0005096ED91FC915197808185FD2DC0F601CC
:1044B000038D10E00F5F1F4F0F731127F02EF601D1
:1044C000848DF81210C00FB607FCF9CFD6015096B4
:1044D000ED91FC915197808185FFF1CFC6016983F1
:1044E00085DF6981ECCF838DE80FF11DE35AFF4F23
:1044F0006083D6015B960C935B975296ED91FC918D
:104500005397808180620CC0D6015696ED91FC9144
:10451000579760835096ED91FC915197808180640C
:10452000808381E090E00F90DF91CF911F910F91F8
:10453000FF90DF90CF900895BF92CF92DF92EF92DD
:10454000FF92CF93DF93EC016A017B01B22EE889E1
:10455000F98982E08083411581EE58076105710574
:1045600099F060E079E08DE390E0A7019601B7D47F
:10457000215031094109510956954795379527959D
:10458000211580E1380790F0E889F989108260E808
:1045900074E88EE190E0A7019601A1D42150310981
:1045A000410951095695479537952795EC85FD8525
:1045B0003083EE85FF852083188EEC89FD89B082DB
:1045C000EA89FB89808180618083EA89FB89808117
:1045D00088608083EA89FB89808180688083EA899A
:1045E000FB8980818F7D8083DF91CF91FF90EF9059
:1045F000DF90CF90BF9008951F920F920FB60F9249
:1046000011240BB60F922F938F939F93EF93FF93E9
:10461000E091F505F091F6058081E091FB05F091C0
:10462000FC0582FD12C090818091FE058F5F8F7323
:104630002091FF05821751F0E091FE05F0E0EB516B
:10464000FA4F958F8093FE0501C08081FF91EF9115
:104650009F918F912F910F900BBE0F900FBE0F90D7
:104660001F9018951F920F920FB60F9211240BB640
:104670000F922F933F934F935F936F937F938F93FB
:104680009F93AF93BF93EF93FF9385EE95E0AEDEDC
:10469000FF91EF91BF91AF919F918F917F916F911A
:1046A0005F914F913F912F910F900BBE0F900FBED6
:1046B0000F901F90189585EE95E032DE21E0892B52
:1046C00009F420E0822F08951092E8051092E70582
:1046D00088EE93E0A0E0B0E08093E9059093EA05CE
:1046E000A093EB05B093EC0588E692E09093E60585
:1046F0008093E50585EC90E09093F2058093F105B9
:1047000084EC90E09093F4058093F30580EC90E0C6
:104710009093F6058093F50581EC90E09093F80571
:104720008093F70582EC90E09093FA058093F90569
:1047300086EC90E09093FC058093FB051092FE05BB
:104740001092FF05109200061092010608951F9224
:104750000F920FB60F9211240BB60F922F938F93D7
:104760009F93EF93FF93E0919206F09193068081DF
:10477000E0919806F091990682FD12C09081809197
:104780009B068F5F8F7320919C06821751F0E091FA
:104790009B06F0E0EE57F94F958F80939B0601C082
:1047A0008081FF91EF919F918F912F910F900BBE80
:1047B0000F900FBE0F901F9018951F920F920FB67B
:1047C0000F9211240BB60F922F933F934F935F9349
:1047D0006F937F938F939F93AF93BF93EF93FF93C9
:1047E00082E896E003DEFF91EF91BF91AF919F9138
:1047F0008F917F916F915F914F913F912F910F908A
:104800000BBE0F900FBE0F901F90189582E896E098
:1048100087DD21E0892B09F420E0822F0895109292
:1048200085061092840688EE93E0A0E0B0E08093C5
:10483000860690938706A0938806B093890688E63B
:1048400092E090938306809382068DEC90E09093A3
:104850008F0680938E068CEC90E090939106809367
:10486000900688EC90E0909393068093920689ECF2
:1048700090E090939506809394068AEC90E0909354
:104880009706809396068EEC90E09093990680931D
:10489000980610929B0610929C0610929D0610920C
:1048A0009E0608951F920F920FB60F9211240BB619
:1048B0000F922F938F939F93EF93FF93E0912F0786
:1048C000F09130078081E0913507F091360782FD45
:1048D00012C09081809138078F5F8F7320913907C4
:1048E000821751F0E0913807F0E0E15EF84F958FC4
:1048F0008093380701C08081FF91EF919F918F9144
:104900002F910F900BBE0F900FBE0F901F90189518
:104910001F920F920FB60F9211240BB60F922F9386
:104920003F934F935F936F937F938F939F93AF9337
:10493000BF93EF93FF938FE197E058DDFF91EF91E5
:10494000BF91AF919F918F917F916F915F914F91A7
:104950003F912F910F900BBE0F900FBE0F901F90A5
:1049600018958FE197E0DCDC21E0892B09F420E049
:10497000822F0895109222071092210788EE93E06B
:10498000A0E0B0E08093230790932407A09325072D
:10499000B093260788E692E09093200780931F0744
:1049A00085ED90E090932C0780932B0784ED90E0A9
:1049B00090932E0780932D0780ED90E09093300721
:1049C00080932F0781ED90E0909332078093310719
:1049D00082ED90E0909334078093330786ED90E06A
:1049E0009093360780933507109238071092390755
:1049F00010923A0710923B0708951F920F920FB63C
:104A00000F9211240BB60F922F938F939F93EF93D6
:104A1000FF93E091CC07F091CD078081E091D20720
:104A2000F091D30782FD12C090818091D5078F5FEE
:104A30008F732091D607821751F0E091D507F0E0EF
:104A4000E454F84F958F8093D50701C08081FF9182
:104A5000EF919F918F912F910F900BBE0F900FBEF2
:104A60000F901F9018951F920F920FB60F9211245E
:104A70000BB60F922F933F934F935F936F937F9358
:104A80008F939F93AF93BF93EF93FF938CEB97E03C
:104A9000ADDCFF91EF91BF91AF919F918F917F918D
:104AA0006F915F914F913F912F910F900BBE0F909F
:104AB0000FBE0F901F9018958CEB97E031DC21E032
:104AC000892B09F420E0822F08951092BF071092DD
:104AD000BE0788EE93E0A0E0B0E08093C00790931B
:104AE000C107A093C207B093C30788E692E09093F2
:104AF000BD078093BC0785E391E09093C90780933D
:104B0000C80784E391E09093CB078093CA0780E3C2
:104B100091E09093CD078093CC0781E391E090934F
:104B2000CF078093CE0782E391E09093D1078093E3
:104B3000D00786E391E09093D3078093D207109239
:104B4000D5071092D6071092D7071092D80708956C
:104B5000089587DAFDDF0E943C03CDEBD1E20E948D
:104B600099052097E1F309DCFACFCF92DF92EF921B
:104B7000FF920F931F93CF93DF937C016A01EB01A8
:104B800000E010E00C151D0571F06991D701ED9161
:104B9000FC910190F081E02DC7011995892B19F046
:104BA0000F5F1F4FEFCFC801DF91CF911F910F9182
:104BB000FF90EF90DF90CF9008956115710581F01F
:104BC000DB010D900020E9F7AD0141505109461B72
:104BD000570BDC01ED91FC910280F381E02D1994DB
:104BE00080E090E00895DC01ED91FC91DB011496EA
:104BF0004D915C9115976D917C910280F381E02D30
:104C0000199464E772E0D9CF0F931F93CF93DF938A
:104C1000EC01E9DF8C01CE01F4DF800F911FDF9101
:104C2000CF911F910F9108950F931F93CF93DF930F
:104C3000EC01C3DF8C01CE01E4DF800F911FDF9117
:104C4000CF911F910F9108950F931F93CF93DF93EF
:104C5000EC0196D9688779878A879B87E881F981F3
:104C60000680F781E02DCE01199597FF14C088D9F1
:104C7000088519852A853B85601B710B820B930B78
:104C80000C811D812E813F81601771078207930778
:104C900028F38FEF9FEFDF91CF911F910F91089530
:104CA000CF92DF92EF92FF920F931F93CF93DF93F8
:104CB0007C016A01EB0100E010E00C151D0541F0DC
:104CC000C701C2DF97FD04C089930F5F1F4FF5CF67
:104CD000C801DF91CF911F910F91FF90EF90DF906E
:104CE000CF900895FC0180819181D6C1CF93DF934D
:104CF000EC0188819981009709F0CED11982188240
:104D00001D821C821B821A82DF91CF9108950F931E
:104D10001F93CF93DF93EC018B016F5F7F4F8881EF
:104D2000998149D2009731F0998388831B830A8344
:104D300081E001C080E0DF91CF911F910F91089534
:104D4000CF93DF93EC0188819981892B29F08A81A7
:104D50009B818617970758F4CE01D9DF882341F04D
:104D60008C819D81892B19F4E881F981108281E081
:104D7000DF91CF910895EF92FF920F931F93CF93FE
:104D8000DF93EC017B018A01BA01DADF811103C0F4
:104D9000CE01ACDF06C01D830C83B70188819981E9
:104DA0000FD3CE01DF91CF911F910F91FF90EF9024
:104DB0000895FC01118210821382128215821482DE
:104DC0006115710551F0FB0101900020E9F7AF0179
:104DD00041505109461B570BCECF0895CF93DF9317
:104DE000EC016115710559F0FB0101900020E9F714
:104DF000AF0141505109461B570BBDDF01C076DFA3
:104E0000CE01DF91CF9108950F931F93CF93DF933E
:104E1000CDB7DEB729970FB6F894DEBF0FBECDBF72
:104E20008C01862FF8011182108213821282158262
:104E3000148250E0BE016F5F7F4F90E0D7D2BE0179
:104E40006F5F7F4FC801CADF29960FB6F894DEBFA7
:104E50000FBECDBFDF91CF911F910F910895EF92BB
:104E6000FF920F931F93CF93DF93EC017B010C8193
:104E70001D816115710511F480E014C041155105C3
:104E800081F0040F151FB8015BDF8823A9F3288187
:104E900039818C819D81B701820F931F91D21D832F
:104EA0000C8381E0DF91CF911F910F91FF90EF90E4
:104EB0000895FB014481558160817181D0CF6115D6
:104EC000710551F0FB0101900020E9F7AF0141505D
:104ED0005109461B570BC3CF80E008950895A1E206
:104EE0001A2EAA1BBB1BFD010DC0AA1FBB1FEE1F64
:104EF000FF1FA217B307E407F50720F0A21BB30BAF
:104F0000E40BF50B661F771F881F991F1A9469F72A
:104F100060957095809590959B01AC01BD01CF0186
:104F20000895EE0FFF1F0590F491E02D1994A29FB4
:104F3000B001B39FC001A39F700D811D1124911D6D
:104F4000B29F700D811D1124911D0895F0DFA59F62
:104F5000900DB49F900DA49F800D911D1124089574
:104F60000790F691E02D1994CF93DF93823091054D
:104F700010F482E090E0E0915B08F0915C0820E0A2
:104F800030E0A0E0B0E0309739F14081518148171E
:104F90005907B8F04817590771F482819381109727
:104FA00029F013969C938E9312972CC090935C08D3
:104FB00080935B0827C02115310531F04217530754
:104FC00018F0A901DB0101C0EF019A01BD01DF0169
:104FD0000280F381E02DD7CF21153105F9F0281B90
:104FE000390B2430310580F48A819B81611571056C
:104FF00021F0FB019383828304C090935C0880932B
:105000005B08FE01329644C0FE01E20FF31F81935C
:10501000919322503109398328833AC0209159084D
:1050200030915A08232B41F420910202309103025F
:1050300030935A08209359082091000230910102C0
:105040002115310541F42DB73EB74091040250912E
:105050000502241B350BE0915908F0915A08E2171C
:10506000F307A0F42E1B3F0B2817390778F0AC018B
:105070004E5F5F4F2417350748F04E0F5F1F509368
:105080005A08409359088193919302C0E0E0F0E000
:10509000CF01DF91CF910895CF93DF93009709F46B
:1050A00087C0FC01329713821282C0915B08D091B5
:1050B0005C08209781F420813181280F391F80916D
:1050C000590890915A088217930779F5F0935A0876
:1050D000E09359086DC0DE0120E030E0AE17BF0755
:1050E00050F412964D915C9113979D014115510515
:1050F00009F1DA01F3CFB383A28340815181840F98
:10510000951F8A179B0771F48D919C911197840FBD
:10511000951F02969183808312968D919C9113978F
:10512000938382832115310529F4F0935C08E09381
:105130005B083EC0D9011396FC93EE9312974D91F4
:105140005D91A40FB51FEA17FB0779F48081918167
:10515000840F951F0296D90111969C938E9382819C
:10516000938113969C938E931297E0E0F0E08A81EE
:105170009B81009719F0FE01EC01F9CFCE01029658
:1051800028813981820F931F2091590830915A0844
:105190002817390769F4309729F410925C081092A7
:1051A0005B0802C013821282D0935A08C093590838
:1051B000DF91CF9108956F927F928F929F92AF92DD
:1051C000BF92CF92DF92EF92FF920F931F93CF93F4
:1051D000DF93EC01CB01209779F4DF91CF911F9100
:1051E0000F91FF90EF90DF90CF90BF90AF909F9086
:1051F0008F907F906F90B8CEFE01E60FF71F9E0153
:1052000022503109E217F30708F4A8C0D9010D9123
:105210001C91119706171707B0F00530110508F417
:105220009BC0A801445051094617570708F494C081
:1052300002501109061B170B019311936D937C9378
:10524000CF012ADF89C05B01A01AB10A4E01800E8E
:10525000911EA0915B08B0915C08612C712C60E0FC
:1052600070E0109709F449C0A815B905C9F5ED908B
:10527000FC901197670142E0C40ED11CCA14DB04F4
:1052800078F147018A189B08640142E0C40ED11CE2
:105290001296BC9012971396AC91B5E0CB16D10440
:1052A00040F0B282A38391828082D9018D939C9336
:1052B00009C00E5F1F4F0E0D1F1DF90111830083E2
:1052C000EB2DFA2F6115710531F0DB011396FC937C
:1052D000EE93129741C0F0935C08E0935B083CC0EA
:1052E0006D917C9111976616770608F43B01BD011C
:1052F00012960D90BC91A02DB4CF60915908709179
:105300005A0868157905E9F468167906D0F44091D1
:105310000002509101024115510541F44DB75EB7AD
:105320006091040270910502461B570BE417F507C4
:10533000A8F4F0935A08E0935908F9019183808307
:105340000BC012DE7C01009749F0A801BE0124D0F9
:10535000CE01A2DEC70104C0CE0102C080E090E011
:10536000DF91CF911F910F91FF90EF90DF90CF9041
:10537000BF90AF909F908F907F906F900895FB01AA
:10538000DC0104C08D910190801921F441505040FE
:10539000C8F7881B990B0895FB01DC0102C001903E
:1053A0000D9241505040D8F70895FC018191861725
:1053B00021F08823D9F7992708953197CF010895CF
:1053C000FB01DC0101900D920020E1F70895FB0143
:1053D000DC014150504048F001900D920020C9F787
:1053E00001C01D9241505040E0F7089545325105EB
:1053F00018F4423008F004C0FB011082CB0108957C
:10540000BB27FB015527AA27880F991FAA1FA4179E
:1054100010F0A41B83955051B9F7A05DAA3308F092
:10542000A95DA193009779F7B111B1931192CB01C6
:1054300000C0DC01FC01672F71917723E1F73297FF
:1054400004C07C916D9370836291AE17BF07C8F35F
:10545000089512E0C8E5D2E000E005C022970109F6
:10546000FE010BBF7DDDCA35D10780E00807B1F72B
:04547000F894FFCFDE
:1054740000005D0880002D002E002F00314E6F6467
:105484006500324E6F646500FFFFFFFF2F003000A0
:105494002D003A0020004C4F472E747874002043AE
:1054A40041525420535441525445440000000000DA
:1054B4001806EC05C105C905DC05EB050000000074
:1054C400340D4A0D280E830D8C0D650D000000006F
:1054D400CA1AB525000000003822B5259021A9215B
:1054E4009B2117220D0A006E616E00696E66006FC3
:0654F4007666002E0000A8
:00000001FF
